S01200004653464B5F4B4C32365A2E7372656330
S214000000003000201104000015000100150001005A
S2140000101500010015000100150001001500010083
S2140000201500010015000100150001001500010073
S2140000301500010015000100150001005B510100CC
S2140000405B5101005B5101005B5101005B510100F7
S2140000505B5101005B5101005B5101005B510100E7
S2140000605B5101005B5101005B5101005B510100D7
S2140000705B5101005B5101005B5101005B510100C7
S2140000805B5101005B5101005B5101005B510100B7
S2140000905B5101005B5101005B5101005B510100A7
S2140000A05B5101005B5101005B5101005B51010097
S2140000B05B5101005B5101005B5101005B51010087
S214000400FFFFFFFFFFFFFFFFFFFFFFFF7EFBFFFF7C
S21400041009480A4908600A490860EFF3088080F333
S2140004200988EFF314800221084380F31488BFF391
S2140004306F8F0EF047FBC046FFFFFFFF80E100E036
S21400044080E200E002B4714649084900095C4900B0
S2140004508E4402BC7047C046002934D001230022D7
S21400046010B488422CD301242407A14204D281422E
S21400047002D209011B01F8E7E400A14204D281423E
S21400048002D249005B00F8E7884201D3401A1A43BB
S2140004904C08A04202D3001B5C0822438C08A042F2
S2140004A002D3001B9C082243CC08A04202D3001BA8
S2140004B0DC082243002803D01B0901D00909E3E722
S2140004C0101C10BC7047002801D00020C04307B4A1
S2140004D0024802A14018029003BDC046D9000000A1
S2140004E00029F0D003B5FFF7B9FF0EBC4243891AC6
S2140004F01847C046002941D010B4041C4C40A446FE
S21400050001230022002900D54942002800D5404298
S21400051088422CD301242407A14204D2814202D26D
S21400052009011B01F8E7E400A14204D2814202D28D
S21400053049005B00F8E7884201D3401A1A434C088A
S214000540A04202D3001B5C0822438C08A04202D3C0
S214000550001B9C082243CC08A04202D3001BDC08E8
S2140005602243002803D01B0901D00909E3E7101C29
S2140005706446002C00D5404210BC7047002806D0C8
S21400058003DB0020C043400801E08020000607B4DB
S214000590024802A14018029003BDC04619000000A0
S2140005A00029EBD003B5FFF7A7FF0EBC4243891A1C
S2140005B01847C0467047C0468446101C62468C46A4
S2140005C0191C634600E0C0461FB513F0A3FD0028C3
S2140005D001D40021C8421FBD10B513F0F7FC4042FD
S2140005E0013010BD10B513F095FD002801DB00208A
S2140005F010BD012010BDC04610B513F08BFD0028BD
S21400060001DD002010BD012010BDC04610B513F05E
S2140006101BFD002801DC002010BD012010BDC046D7
S21400062010B513F011FD002801DA002010BD0120DE
S21400063010BDC0468446081C6146FFE71FB512F091
S2140006401CFC002801D40021C8421FBD10B512F0C2
S214000650A7FB4042013010BD10B512F00EFC00287A
S21400066001DB002010BD012010BDC04610B512F001
S21400067004FC002801DD002010BD012010BDC0468E
S21400068010B512F0B0FB002801DC002010BD0120E0
S21400069010BDC04610B512F0A6FB002801DA0020F7
S2140006A010BD012010BDC04603B471464908400085
S2140006B04900095A49008E4403BC70471C21012397
S2140006C01B04984201D3000C10391B0A984201D330
S2140006D0000A08391B09984201D30009043902A20E
S2140006E0105C40187047C046040302020101010175
S2140006F0000000000000000008B5054B0548033365
S2140007001B1A062B03D9044B002B00D0984708BDB4
S214000710BCF2FF1FBCF2FF1F00000000064807499E
S21400072008B5091A8910CB0F5918491003D0044B85
S214000730002B00D0984708BDBCF2FF1FBCF2FF1F7D
S21400074000000000084B10B51A781C1C002A09D1BE
S214000750FFF7D2FF054B002B02D0054800E000BF94
S2140007600123237010BDC046BCF2FF1F000000002E
S2140007700C50010008B5094B002B03D00848094966
S21400078000E000BF08480368002B03D0074B002B8F
S21400079000D09847FFF7C2FF08BDC0460000000023
S2140007A00C500100C0F2FF1FBCF2FF1F000000004B
S2140007B008B505486C23C35A026F01219B180367CE
S2140007C00EF03EFC08BDC046D0F4FF1F7047C04682
S2140007D0034A7423D05C01210143D1547047C046BC
S2140007E0D0F4FF1F034A7423D05C02210143D15486
S2140007F07047C046D0F4FF1F7047C046F8B5594A48
S21400080044465F4656464D46F0B49068904610F013
S21400081027FA03B2002B00DCA2E0534B534F544C94
S214000820461E9B46534B7D1CB6B2E1783A1CAE1969
S21400083099469A466078A378207000026370C318C1
S2140008401B0212785B18A1701B024B499B18E270C2
S2140008508B425BD029DC49498B4260D04BDC48494F
S2140008608B4200D17AE047498B4200D174E046497A
S2140008708B4205D0111C2A1EB2420AD00135D9E798
S21400088001223C4B7E21DA707E23E3702A1EB242A0
S214000890F4D14346391C9868012210F0A7F93CBCF5
S2140008A090469946A246AB46F8BD38498B4248D09A
S2140008B00FDC37498B424DD036498B4248D03649FB
S2140008C08B42D7D103222B4B7E211A717E23E370F5
S2140008D0D1E732498B422DD031498B4218D031496D
S2140008E08B42C7D10DF0CAFC00235A4613677E23FD
S2140008F0E3707E21BFE72C498B4219D02B498B42EF
S21400090014D02B498B42B5D10022DCE70422DAE76B
S21400091000234A4613707E23E3707E21ABE7002255
S214000920144B7E215A707E23E370A4E70122CAE7A7
S2140009300222C8E70123524613707E23E3707E210D
S21400094099E700220B4B7E219A707E23E37092E794
S2140009500122F7E70522B6E70122E1E7002290E749
S214000960024F96E744F3FF1FD0F4FF1FB0F4FF1FBB
S214000970ACF3FF1F4CF5FF1F47413651202D424474
S2140009802D544C41202B42442B544C412D43505265
S214000990202039512B435052414D3651202B47567B
S2140009A0202D47562054535220473351204D335163
S2140009B020203351FE21F8B58905041CFFF76AFE96
S2140009C0002801D04748F8BD201C4749FFF74EFED7
S2140009D000286AD1211C201C12F094FA011CFE206B
S2140009E0800512F07DFB10F05BFB011C201C12F052
S2140009F0E9F80021041CFFF72FFE002600284DD141
S214000A00FE21201C8905FFF73BFE00284BD0FE2068
S214000A10211C800512F0D6F80125041C201C334941
S214000A20FFF72EFE002842D0201C314912F058FB5A
S214000A302F49071C201C12F065FAFE21890511F0CB
S214000A405DFF011C381C12F0BDF8041C211C12F0BE
S214000A5059FA2849071C12F055FA274911F04EFF9B
S214000A60011C201C12F04EFA2449041C381C11F0FC
S214000A7045FF011C201C12F0A5F8214911F03EFF8D
S214000A80011C002D03D0174812F02AFB011C002E73
S214000A9002D080231B06C918081C94E780231B0677
S214000AA0E4180126ACE70025B8E716488BE7211CBA
S214000AB0201C12F027FA0F49071C12F023FA0E49E1
S214000AC011F01CFF011C201C12F01CFA0B49041C20
S214000AD0381C11F013FF011C201C12F073F8011CC7
S214000AE0CFE7C0460000B442000080BFA330893E76
S214000AF03ACD133F0EB2C841EE49C142DCE7D73FBC
S214000B000000F0410000B4C2FE21F8B58905041CBF
S214000B10FFF7C0FD002801D00020F8BD201C914939
S214000B20FFF7A4FD002873D1201C0021FFF78EFDDF
S214000B3000286BD1201C0021FFF7A2FD002869D0F9
S214000B40211C201C12F0DEF9011CFE20800512F08C
S214000B50C7FA10F0A5FA211C12F034F80021041C84
S214000B60FFF77AFD0026002800D0F4E0FE21201CC6
S214000B708905FFF785FD002800D1F1E0FE20211C45
S214000B80800512F01FF80125041C201C7649FFF78B
S214000B9077FD002800D1A3E0201C744912F0A0FACB
S214000BA07249071C201C12F0ADF9FE21890511F0D0
S214000BB0A5FE011C381C12F005F8041C211C12F0BE
S214000BC0A1F96B49071C12F09DF96A4911F096FECF
S214000BD0011C201C12F096F96749041C381C11F001
S214000BE08DFE011C201C11F0EDFF644911F086FEFD
S214000BF0011C002D03D0624812F072FA011C002E70
S214000C0002D080231B06C918081C86E75C4884E7C8
S214000C105C4882E7211C201C12F074F9011CFE209F
S214000C20800512F05DFA10F03BFA211C11F0CAFFA5
S214000C300021041CFFF710FD002600286AD1FE21C3
S214000C40201C8905FFF71CFD002868D0FE20211C0B
S214000C50800511F0B7FF0125041C201C4249FFF750
S214000C600FFD00285DD0201C404912F039FA3F499C
S214000C70071C201C12F046F9FE21890511F03EFEE5
S214000C80011C381C11F09EFF041C211C12F03AF9BE
S214000C903749071C12F036F9364911F02FFE011CB1
S214000CA0201C12F02FF93449041C381C11F026FEC3
S214000CB0011C201C11F086FF304911F01FFE011C9C
S214000CC0002D03D02E4812F00BFA011C002E02D085
S214000CD080231B06C918081C2A4911F00FFE1CE7C2
S214000CE0211C201C12F00EF92149071C12F00AF9EB
S214000CF0204911F003FE011C201C12F003F91E49C6
S214000D00041C381C11F0FAFD011C201C11F05AFFBF
S214000D10011C6EE780231B06E41801268FE70025DA
S214000D209BE7211C201C12F0EDF81149071C12F05D
S214000D30E9F8104911F0E2FD011C201C12F0E2F85F
S214000D400D49041C381C11F0D9FD011C201C11F0A3
S214000D5039FF011CB4E780231B06E418012605E7CB
S214000D60002512E7000080BFA330893E3ACD133F2E
S214000D700EB2C841EE49C142DCE7D73F0000F04161
S214000D800000B44200003443F8B50021041CFFF70D
S214000D9063FC0025002868D1FE21201C8905FFF78A
S214000DA06FFC002800D16CE0FE20211C800511F0AD
S214000DB009FF0126041C201C3349FFF761FC0028AC
S214000DC039D0201C314912F08BF93049071C201C01
S214000DD012F098F8FE21890511F090FD011C381CD0
S214000DE011F0F0FE041C211C12F08CF82849071C98
S214000DF012F088F8274911F081FD011C201C12F022
S214000E0081F82549041C381C11F078FD011C201CB3
S214000E1011F0D8FE214911F071FD011C002E03D0FF
S214000E201F4812F05DF9011C002D02D080231B061E
S214000E30C918081CF8BD211C201C12F063F81449C0
S214000E40071C12F05FF8134911F058FD011C201C16
S214000E5012F058F81049041C381C11F04FFD011C04
S214000E60201C11F0AFFE011CD8E780231B06E418F7
S214000E70FE21201C89050125FFF702FC002800D072
S214000E8092E7002697E7C046A330893E3ACD133F47
S214000E900EB2C841EE49C142DCE7D73F0000F04140
S214000EA00000B442F8B5051C0C1C081C0021FFF716
S214000EB0CDFB002808D0281C0021FFF7E1FB002806
S214000EC000D1B4E0CC48F8BD201C0021FFF7D8FBC9
S214000ED0002847D0211C281C11F074FE0021041C99
S214000EE0FFF7BAFB0026002800D0D9E0FE21201C20
S214000EF08905FFF7C5FB002800D1CFE0FE20211CA6
S214000F00800511F05FFE0125041C201CBB49FFF77D
S214000F10B7FB002800D093E0211C201C11F0F2FF44
S214000F20B749071C11F0EEFFB64911F0E7FC011CAB
S214000F30201C11F0E7FFB449041C381C11F0DEFC3D
S214000F40011C201C11F03EFE011C002D03D0AA48F7
S214000F5012F0C6F8011C002E02D080231B06C9180A
S214000F60081CB0E7201C0021FFF776FB002800D005
S214000F70B5E0211C281C11F025FE0021041CFFF7FB
S214000F806BFB0026002800D010E1FE21201C8905FE
S214000F90FFF776FB002800D106E1FE20211C800525
S214000FA011F010FE0125041C201C9449FFF768FB75
S214000FB000287AD0201C954912F092F89349071C15
S214000FC0201C11F09FFFFE21890511F097FC011CE3
S214000FD0381C11F0F7FD041C211C11F093FF884902
S214000FE0071C11F08FFF874911F088FC011C201C9C
S214000FF011F088FF8449041C381C11F07FFC011C8A
S214001000201C11F0DFFD824911F078FC011C002D38
S21400101003D0794812F064F8011C002E02D0802319
S2140010201B06C918081C7B4912F05AF84BE7281C07
S2140010300021FFF711FB002800D0B3E0002042E7B4
S214001040201C724912F04CF87049071C201C11F045
S21400105059FFFE21890511F051FC011C381C11F0C6
S214001060B1FD041C211C11F04DFF6549071C11F051
S21400107049FF644911F042FC011C201C11F042FF9C
S2140010806149041C381C11F039FC011C201C11F0AD
S21400109099FD5F4911F032FC011C56E7002534E744
S2140010A080231B06E418012620E7211C201C11F0D3
S2140010B029FF5349071C11F025FF524911F01EFC69
S2140010C0011C201C11F01EFF4F49041C381C11F097
S2140010D015FC011C201C11F075FD011C97E7281C4F
S2140010E00021FFF7CDFA002800D142E7211C281C7A
S2140010F011F068FD0021041CFFF7AEFA0026002858
S21400110073D1FE21201C8905FFF7BAFA002871D09A
S214001110FE20211C800511F055FD0125041C201C15
S2140011203649FFF7ADFA002845D0201C374911F0A4
S214001130D7FF3649071C201C11F0E4FEFE21890566
S21400114011F0DCFB011C381C11F03CFD041C211CBA
S21400115011F0D8FE2A49071C11F0D4FE294911F0D7
S214001160CDFB011C201C11F0CDFE2749041C381CA9
S21400117011F0C4FB011C201C11F024FD244911F0C1
S214001180BDFB011C002D03D01B4811F0A9FF011C5C
S214001190002E02D080231B06C918081C1D4911F01A
S2140011A0ADFB90E61C488EE60025FDE680231B0678
S2140011B0E4180126E9E6211C201C11F0A3FE1049C4
S2140011C0071C11F09FFE0F4911F098FB011C201C14
S2140011D011F098FE0C49041C381C11F08FFB011C02
S2140011E0201C11F0EFFC011CCCE780231B06E41842
S2140011F0012686E7002592E70000B442A330893E28
S2140012000EB2C841EE49C142DCE7D73F3ACD133FA4
S2140012100000F041000034430000B4C2F0B5574669
S2140012204E464546E0B4602284B08A460021041C3F
S2140012300FF014FA2B4926230B702B4E00234B700D
S2140012407423F25C894601218A43F254201C012350
S214001250494602220FF052F9742302AD9846012740
S21400126003E04146735C1F4208D1201C291C0FF086
S2140012702DFA2B88002BF4D000202BE0201C69468A
S2140012800FF032FA6A461378012BF7D14946262228
S2140012900A70B9224A707422B15C201C9943B1547A
S2140012A00123494602220FF029F974210122735CBA
S2140012B01A42FCD0201C69460FF016FA6A461378CC
S2140012C0012BF7D1DE239B0551460B61EE239B05D0
S2140012D04B61012040B204B01CBC90469946A24621
S2140012E0F0BDC0469CF3FF1FD0F4FF1FF0B54F467D
S2140012F04646C0B4894683B0002190461E22061C8E
S2140013000FF0ACF9564F2A233B70564D00237B70E6
S2140013107423EA5C01218A43EA54391C0222301CF9
S21400132001230FF0EBF8742101226B5C1A42FCD00B
S2140013306C460734301C211C0FF0D6F92378012B9D
S214001340F8D15B223A701F227A707422A95C301C96
S2140013509943A9540123391C02220FF0CFF87421B7
S21400136001226B5C1A42FCD0301C211C0FF0BCF929
S2140013702378012BF8D15C223A7020227A707422EE
S214001380A95C301C9943A9540123391C02220FF092
S214001390B5F8742101226B5C1A42FCD0301C211C6B
S2140013A00FF0A2F92378012BF8D10E223A707B7049
S2140013B07422A95C301C9943A9540123391C0222CB
S2140013C00FF09CF8742101226B5C1A42FCD0301C92
S2140013D0211C0FF089F92378012BF8D12B223A70C3
S2140013E002227A707422A95C301C9943A954012306
S2140013F0391C02220FF082F8742101226B5C1A421B
S214001400FCD0301C211C0FF06FF92378012BF8D18B
S2140014102A223A700D227A707422A95C301C9943F5
S214001420A9540123391C02220FF068F87421012206
S2140014306B5C1A42FCD0301C211C0FF055F9237847
S214001440012BF8D1E4234A469B055362064B4246DD
S214001450D363064B136403B00CBC90469946F0BDAC
S2140014609CF3FF1FD0F4FF1FCDCCCC3D00002041E5
S214001470F0B5474680B4202282B088460021061C7C
S2140014800FF0ECF82C4F13233B702C4D00237B7091
S2140014907423EA5C01218A43EA54391C0222301C78
S2140014A001230FF02BF8742101226B5C1A42FCD04A
S2140014B06C460734301C211C0FF016F92378012BDC
S2140014C0F8D10D223A7000227A707422A95C301C82
S2140014D09943A9540123391C02220FF00FF87421F6
S2140014E001226B5C1A42FCD0301C211C0FF0FCF869
S2140014F02378012BF8D113223A7002227A707422D4
S214001500A95C301C9943A9540123391C02220EF011
S214001510F5FF742101226B5C1A42FCD0301C211CA2
S2140015200FF0E2F82378012BF8D1054B4246936181
S21400153002B004BC9046F0BD9CF3FF1FD0F4FF1F22
S214001540CDCC4C3DF0B5602283B00F1C0021051CAD
S2140015500FF084F81D4E01221D4C32707423E15C9E
S214001560281C9143E1540122311C00230EF0C6FFD3
S21400157074200121235C74221942FBD0A35C022153
S2140015808B43A354311C0522281C01230FF00EF8B0
S21400159074210222635C1A42FCD0281C69460FF0B4
S2140015A0A3F86A461378012BF7D1727833781204C1
S2140015B01B061343B278120213433B60F37832796A
S2140015C01B0213437B8303B0F0BDC0469CF3FF1F92
S2140015D0D0F4FF1FF0B5474680B4884682B000219D
S2140015E0171C1E22061C0FF039F8404D0122404CF5
S2140015F02A707423E15C301C9143E1540122291CBB
S21400160000230EF07BFF74200121235C7422194214
S214001610FBD0A35C02218B43A354291C0C22301C54
S21400162001230EF0C3FF74210222635C1A42FCD031
S214001630301C69460FF058F86A461378012BF7D12C
S2140016402E786B7836021E4343461E85AC78EB78C0
S214001650240242461C43548528796B7900021843BD
S2140016609085A979EB79090219434423F9522A7A1D
S2140016706B7A12021A434623FA52AB7AED7A1B02B1
S2140016802B4348257B531B4D36B2AE422AD0194D0C
S21400169024B2AC4222D0174C00B2A0421AD0154851
S2140016A009B2814212D0134912B28A420AD0114AB4
S2140016B01BB2934202D1104A4823FA5202B004BC2D
S2140016C09046F0BD0C494622B952F0E70A4844213C
S2140016D07852E8E708484646B085E0E7064C4546B7
S2140016E06C85D8E7044D46463585D0E79CF3FF1F4A
S2140016F0D0F4FF1F0080FFFF0180FFFFF0B54746D4
S21400170080B4884682B00021171C2022051C0EF0EB
S214001710A5FF314E0122314C32707423E15C281C47
S2140017209143E1540122311C00230EF0E7FE7420A1
S2140017300121235C74221942FBD0A35C02218B4357
S214001740A354311C0622281C01230EF02FFF7421FF
S2140017500222635C1A42FCD06946281C0EF0C4FFC5
S21400176069460B78012BF7D130787B007478DA194C
S21400177052000002424420439083B078F47800027E
S2140017802043D0833079747900022043111C1084E2
S2140017901C22885E124A183190421AD0DA1952007A
S2140017A042441E21505E0E491A3288420ED0DB1982
S2140017B05B0043442022995E094A1C33914201D1C2
S2140017C0084A9A8002B004BC9046F0BD0549918054
S2140017D0EDE7044A8A80E1E79CF3FF1FD0F4FF1F81
S2140017E00080FFFF0180FFFF38B50A490A4B0A1C3C
S2140017F0041C21CB21C2188810809B78201C937073
S2140018000A220FF009FA201C0FF02CFA0A28FAD147
S21400181038BDC046B0F3FF1FE0490100F0B55F4693
S21400182056464D464446F0B4884AD1231B01D1584B
S21400183093B0039004208143854FD15085487E2382
S2140018403B7001237B70037A82467E2B00D10DE12C
S214001850BB7003227D2B00D108E2013354467E4D37
S21400186023727023E95C7E2900D10DE17D2900D129
S21400187012E2531CB9547122A95C7E2900D10EE1F4
S2140018807D2900D102E25A1CF9547223E95C7E29B4
S21400189000D10FE17D2900D1F2E1531CB954732227
S2140018A0AA5C7E2A00D110E17D2A00D1E2E1591C13
S2140018B0FA546A4B2E229A5C7E2A00D111E17D2AC8
S2140018C000D1EFE1481C7A542F229A5C7E2A00D180
S2140018D012E17D2A00D1F1E1411C3A543022985C95
S2140018E07E2800D113E17D2800D1E1E14A1C78541E
S2140018F03121585C7E2800D114E17D2800D10DE20C
S214001900511CB8543222985C7E2800D115E17D28FF
S21400191000D1FDE14A1C785433215B5C7E2B00D15C
S21400192016E17D2B00D1EDE1511CBB544C4B5022EF
S214001930985C7E2800D117E17D2800D1DCE14A1CA6
S21400194078545121585C7E2800D118E17D2800D1BA
S214001950CCE1511CB8545222985C7E2800D119E183
S2140019607D2800D1BCE14A1C78545321585C7E285F
S21400197000D11AE17D2800D1ACE1511CB8545422A4
S214001980985C7E2800D11BE17D2800D19CE14A1C92
S214001990785455215B5C7E2B00D11CE17D2B00D159
S2140019A0E7E1511CBB542F4B4C22985C7E2800D19B
S2140019B01DE17D2800D1D6E14A1C78544D21585CA3
S2140019C07E2800D11EE17D2800D1C6E1511CB85406
S2140019D04E22985C7E2800D11FE17D2800D1B6E11A
S2140019E04A1C78544F21585C7E2800D120E17D287F
S2140019F000D1A6E1511CB8545022985C7E2800D134
S214001A0021E17D2800D196E14A1C785451215B5C87
S214001A107E2B00D122E17D2B00D185E1511C894629
S214001A20BB5400236A4610AC1386138513841387B1
S214001A30A3806380238052461379052B01D902F0D8
S214001A4031F8094A9B00D3589F46C04600E000E0A4
S214001A50B0F3FF1F4CF5FF1FD0F4FF1F74F5FF1FF8
S214001A604414002028070020A049010001335446F2
S214001A70C34D237270237D22E95CBA705E22FA7031
S214001A8004227E2900D0F1E67D23791C5E20BB541B
S214001A908854931C7122A95C7E2900D0F0E67D2232
S214001AA0791C5E20FA54C8549A1C7223E95C7E297D
S214001AB000D0EFE67D23791C5E20BB548854931C2F
S214001AC07322AA5C7E2A00D0EEE67D22FA545E20BF
S214001AD07A1CD054991CAB4B2E229A5C7E2A00D0DE
S214001AE0EDE67D227A545E247A1C54542F229A5CAA
S214001AF0881C7E2A00D0ECE67D223A545E247A1CAE
S214001B0014543022811C985C7E2800D0EBE67D229F
S214001B10781C5E247A5444548A1C3121585C7E28F2
S214001B2000D0EAE67D21781C5E24B9548454911CCA
S214001B303222985C7E2800D0E9E67D22781C5E245E
S214001B407A5444548A1C33215B5C7E2B00D0E8E632
S214001B507D23BB545E207B1C98548B4B911C5022DB
S214001B60985C7E2800D0E7E67D22781C5E247A54B6
S214001B7044548A1C5121585C7E2800D0E6E67D211C
S214001B80781C5E24B9548454911C5222985C7E289A
S214001B9000D0E5E67D22781C5E247A5444548A1CE4
S214001BA05321585C7E2800D0E4E67D21781C5E2414
S214001BB0B9548454911C5422985C7E2800D0E3E6E5
S214001BC07D22781C5E247A5444548A1C55215B5C22
S214001BD07E2B00D0E2E67D23BB545E207B1C98540F
S214001BE06A4B911C4C22985C7E2800D0E1E67D2250
S214001BF0781C5E247A5444548A1C4D21585C7E28F6
S214001C0000D0E0E67D21781C5E24B9548454911CF3
S214001C104E22985C7E2800D0DFE67D22781C5E246B
S214001C207A5444548A1C4F21585C7E2800D0DEE645
S214001C307D21781C5E24B9548454911C5022985CF3
S214001C407E2800D0DDE67D22781C5E247A5444543B
S214001C508A1C51215B5C7E2B00D0DCE67D23BB54C6
S214001C60961C7B1C5E21B1469954DAE65D22FA701A
S214001C700422F2E5FA545D207A1C991CD05418E62A
S214001C80B9545D20791C931C885408E6F9545D20ED
S214001C90791C9A1CC854F8E5B9545D20791C931C2D
S214001CA08854E8E57A545D247A1C881C54540BE664
S214001CB078545D24781C8A1C445419E63A545D24F2
S214001CC07A1C811C145409E678545D24781C8A1CFE
S214001CD044545EE6B8545D24781C911C84544EE649
S214001CE078545D24781C8A1C44543EE6B8545D241F
S214001CF0781C911C84542EE678545D24781C8A1C2B
S214001D0044541EE6BB545D207B1C911C98540DE683
S214001D1078545D24781C8A1C4454FDE5B8545D2430
S214001D20781C911C8454EDE5BB54901C7B1C5D21F3
S214001D308146995475E678545D24781C8A1C445470
S214001D4064E6B8545D24781C911C845454E6785498
S214001D505D24781C8A1C445444E6B8545D24781CE0
S214001D60911C845434E678545D24781C8A1C4454B0
S214001D7024E6BB545D207B1C911C985413E6C04699
S214001D80D0F4FF1F74F5FF1F44140020280700201E
S214001D90C74E306C716CF36BB26B02900491706D31
S214001DA0C4499B46904611F0ADF811F003FBC149BB
S214001DB02080B06D11F0A6F811F0FCFABD496080E5
S214001DC0F06D11F09FF811F0F5FABB49A08030686D
S214001DD011F098F811F0EEFA6A461084B649706869
S214001DE011F090F811F0E6FA6B461885B249F068E3
S214001DF011F088F811F0DEFA69460886306E142174
S214001E00FEF778FB6A461087AC49404611F07AF830
S214001E1011F0D0FA80B2A9498046584611F072F8FF
S214001E2011F0C8FA80B2A5498346029811F06AF804
S214001E3011F0C0FA80B20190A049049811F062F83F
S214001E4011F0B8FA00261423049380B20296424694
S214001E506946D3B20A837E2B00D160E34A467D2BC7
S214001E6001D101F055F8494601327B546B465B7E42
S214001E709C467E2B00D161E37D2B01D101F077F8E3
S214001E806646531CBE545A466946D6B20A837E2E10
S214001E9000D160E37D2E01D101F062F85A1CFE5499
S214001EA06B465B7E9C467E2B00D160E37D2B01D18A
S214001EB001F04FF86646531CBE54019E69460E83D9
S214001EC0F6B27E2E00D15FE37D2E01D101F03AF806
S214001ED05A1CFE546B465E7E7E2E00D15FE37D2E3E
S214001EE001D101F059F8531CBE546A461083C0B2A3
S214001EF07E2800D15FE37D2801D101F046F85A1C08
S214001F00F8546E46737E7E2B00D15FE37D2B01D1A5
S214001F1001F034F8501CBB5404993A1811707B1C1D
S214001F20042119547E21917056467278C31C002AEB
S214001F3001D000F003FF56463278002A01D000F0A8
S214001F4021FE51468A78002A01D000F032FD514623
S214001F50CA78002A05D009228A56002A01D001F044
S214001F607DF97E22FA5406217A1CD1545246117A03
S214001F70981C7E2901D100F0F9FC7D2901D100F0E2
S214001F8004FDDA1C39544E4C4E4B0131504601725A
S214001F90E15C7E2901D100F0E1FC7D2901D100F051
S214001FA0EDFC531CB954484AA25C7E2A01D100F0CD
S214001FB0CCFC7D2A01D100F0EFFC5D1CA846FA544B
S214001FC0424D4349AE6B301CFEF75AFB002801D049
S214001FD000F09CFC301C384910F094FF11F0EAF930
S214001FE06E4680B23083C0B27E2801D100F096FCE7
S214001FF07D2801D100F094FF4346414601337854D2
S21400200069464A7E7E2A01D100F096FC7D2A01D1DF
S21400201000F090FF581C8346FA545146CE880C2197
S214002020B2B2131C0A3B9BB218B298469146FEF712
S21400203061FA0C2180B249424143414489B233B22D
S2140020400591092B0EDD0BB25A009446634401B28B
S214002050DB005B18B133FF339B00E358013301D13B
S21400206001F00DFA69460E83F6B27E2E01D100F01D
S214002070D2FE5B467D2E01D101F060F85A46013350
S214002080BE546E46727E7E2A01D100F0D5FE7D2AB1
S21400209001D101F05DF85E1CFA545146CB88092B3D
S2140020A001D900F0D5FE0B4A9B00D3589F46C04688
S2140020B0B40F00200000A041000020410060EA4666
S2140020C04CF6FF1F560B0000570B000010030020B5
S2140020D033CB4C45B8490100D849286910F012FFA7
S2140020E011F068F96946C3B208837E2B01D101F06E
S2140020F0A8FA7D2B01D101F012FC721CBB556C4670
S214002100637E7E2B01D101F084FB7D2B01D101F093
S214002110FFFB541CBB54C949686910F0F3FE11F06C
S21400212049F96E46C3B230837E2B01D101F069FBBC
S2140021307D2B01D101F0E5FB621C3B556846437ED2
S2140021407E2B01D101F055FB7D2B01D101F0D2FB96
S214002150541CBB54286AB94910F0D4FE11F02AF971
S2140021606946C3B208837E2B01D101F0A3F97D2B0B
S21400217001D101F0FEF9611C3B556B465A7E7E2A62
S21400218000D17EE07D2A00D112E14B1C7A545046E5
S214002190C2882A21013292B210B2FF31884201DD94
S2140021A000F002FC5146CA807E20F8545546297934
S2140021B05A1C0C1FE4B2012C01D800F0F4FE92B2B7
S2140021C00398391C0EF028FD13B03CBC9046994687
S2140021D0A246AB46F0BD9949E86810F093FE11F0B0
S2140021E0E9F86C46C3B220837E2B01D101F0F9FAE0
S2140021F07D2B01D101F077FB721CBB556E46737EBA
S2140022007E2B01D101F0E5FA7D2B01D101F048FBD0
S214002210541CBB548949E86910F074FE11F0CAF8E2
S2140022206946C3B208837E2B01D101F0CAFA7D2B22
S21400223001D101F02EFB621C3B556C46637E7E2B63
S21400224001D101F0B6FA7D2B01D101F01BFB541C25
S214002250BB54E86A794910F055FE11F0ABF86D46AC
S214002260C3B228837E2B01D101F09BFA7D2B01D1CE
S21400227001F001FB611C3B556E46727E7E2A00D043
S21400228080E77D237A1C5E207B548B1C50547EE7AF
S2140022906B49286810F036FE11F08CF86946C3B218
S2140022A008837E2B01D101F074FA7D2B01D101F059
S2140022B013FB721CBB556C46637E7E2B01D101F06E
S2140022C060FA7D2B01D101F000FB541CBB545C4925
S2140022D0686810F017FE11F06DF86E46C3B23083D2
S2140022E07E2B01D101F045FA7D2B01D101F0E6FAF3
S2140022F0621C3B556846437E7E2B01D101F031FAC5
S2140023007D2B01D101F0D3FA541CBB54A8684C496C
S21400231022E700236A4613837E2B01D101F019FAC7
S2140023207D2B01D101F051FB721CBE1933706C4637
S214002330637E7E2B01D101F004FA7D2B01D101F0E2
S2140023403DFB541CBB54286B3D4910F0DBFD11F0DF
S21400235031F86D46C3B228837E2B01D101F0E9F92E
S2140023607D2B01D101F023FB611C3B556E46737E2D
S2140023707E2B01D101F0D5F97D2B01D101F010FBA8
S2140023804A1C7B54029C6846E3B204837E2B01D130
S21400239001F0BFF97D2B01D101F035FB511CBB5478
S2140023A06D466A7E7E2A00D16BE77D2A00D0ECE679
S2140023B07A545D207A1C8B1C5054E8E600236C4649
S2140023C023837E2B01D101F09CF97D2B01D101F0F6
S2140023D012FB711CBE1933706D466B7E7E2B01D1CD
S2140023E001F087F97D2B01D101F0FEFA4A1C7B54DF
S2140023F06E46337E7E2B01D101F073F97D2B01D121
S21400240001F0EBFA511CBB546846437E7E2B01D18B
S21400241001F05FF97D2B01D101F0A3FA4A1C7B5431
S21400242069460B7E7E2B01D101F04BF97D2B01D145
S21400243001F090FA511CBB549FE6C04600007A4457
S21400244000002041F64EB06BF16B736C326C804628
S2140024508B46706DF3490593049210F053FD10F00F
S214002460A9FFF0492080B06D10F04CFD10F0A2FFDF
S214002470EC496080F06D10F045FD10F09BFFEA49D6
S214002480A080306810F03EFD10F094FF6946088486
S2140024907068E54910F036FD10F08CFF6A4610852E
S2140024A0E149F06810F02EFD10F084FF6B461886A8
S2140024B0B823F058DC4910F025FD10F07BFF80B201
S2140024C002901421306EFEF715F86E46D749308715
S2140024D0404610F017FD10F06DFF80B2D3498046DD
S2140024E0584610F00FFD10F065FF80B2CF498346C6
S2140024F0049810F007FD10F05DFF80B2CB49019004
S214002500059810F0FFFC10F055FF18214246049184
S214002510D3B2694680B20A837E2B00D09EE47D2328
S2140025204E46BB555E214B467E1CF1546B465B7E89
S2140025304A4602329C467E2B00D09DE47D237E1CBC
S2140025405E21BB54B154931C5A466946D6B20A83E0
S2140025507E2E00D09EE47D227E1C5E21FA54F1542D
S2140025609A1C6B465B7E9C467E2B00D09EE47D23A9
S2140025707E1C5E21BB54B154019E69460E83F6B2A2
S214002580931C7E2E00D09FE47D227E1C5E21FA5492
S214002590F1549A1C6B465E7E7E2E00D09FE47D230F
S2140025A07E1C5E21BB54B154931C6A461083C0B295
S2140025B07E2800D09FE47D225E26781CFA54C654FE
S2140025C06E469A1C737E7E2B00D09FE47D23BB5400
S2140025D05E267B1C901C9E549EE4954EF06B316CE0
S2140025E0726CB36B83460291706D8E490492984666
S2140025F010F088FC10F0DEFE8A492080B06D10F0E6
S21400260081FC10F0D7FE87496080F06D10F07AFCF0
S21400261010F0D0FE8449A080306810F073FC10F0F3
S214002620C9FE6B4618848049706810F06BFC10F089
S214002630C1FE69460885F0687B4910F063FC10F01F
S214002640B9FE6A4610861421306EFDF753FF6B46BE
S21400265018877649404610F055FC10F0ABFE80B265
S21400266072498046584610F04DFC10F0A3FE80B22A
S2140026706E498346029810F045FC10F09BFE80B22F
S21400268001906A49049810F03DFC10F093FE112664
S2140026900496002680B20296FFF7D9FB654EB06B13
S2140026A0F16B736C326C80468B46706D5D4904939B
S2140026B0029210F027FC10F07DFE5A492080B06D83
S2140026C010F020FC10F076FE56496080F06D10F099
S2140026D019FC10F06FFE5449A080306810F012FC10
S2140026E010F068FE6946088470684F4910F00AFCCE
S2140026F010F060FE6A4610854B49F06810F002FC48
S21400270010F058FE6B4618861421306EFDF7F2FE68
S2140027106E4630874549404610F0F4FB10F04AFEFE
S21400272080B242498046584610F0ECFB10F042FE5C
S21400273080B23E498346029810F0E4FB10F03AFE61
S21400274080B23A490190049810F0DCFB10F032FE9B
S21400275000261621049180B20296FFF778FB364ECB
S214002760B06BF16B736C326C80468B46706D2D4986
S2140027700493029210F0C6FB10F01CFE294920803C
S214002780B06D10F0BFFB10F015FE26496080F06DAE
S21400279010F0B8FB10F00EFE2349A080306810F051
S2140027A0B1FB10F007FE6946088470681E4910F0F9
S2140027B0A9FB10F0FFFD6A4610851B49F06810F073
S2140027C0A1FB10F0F7FD6B4618861421306EFDF75E
S2140027D091FE6E4630871549404610F093FB10F088
S2140027E0E9FD80B211498046584610F08BFB10F088
S2140027F0E1FD80B20D498346029810F083FB10F08D
S214002800D9FD80B209490190049810F07BFB10F0C6
S214002810D1FD00261321049180B20296FFF717FB24
S2140028207C0700200000A041000020410060EA462E
S214002830A4010020A8F5FF1F9C140020CC4EB06B0E
S214002840F16B736C326C80468B46706DC94905938C
S214002850049210F057FB10F0ADFDC6492080B06D15
S21400286010F050FB10F0A6FDC2496080F06D10F02D
S21400287049FB10F09FFDC049A080306810F042FB75
S21400288010F098FD694608847068BB4910F03AFB62
S21400289010F090FD6A461085B749F06810F032FBDC
S2140028A010F088FD6B4618869C23F058B24910F04D
S2140028B029FB10F07FFD80B202901421306EFDF7E8
S2140028C019FE6E46AD493087404610F01BFB10F0EF
S2140028D071FD80B2A9498046584610F013FB10F0EF
S2140028E069FD80B2A5498346049810F00BFB10F0F2
S2140028F061FD80B2A1490190059810F003FB10F02D
S21400290059FD122180B20491FFF7A1FA9C486E4649
S2140029103083C0B27E2801D0FFF76AFB7D23404695
S2140029207A1C5E213B54115469464A7E4346023364
S2140029307E2A01D0FFF76AFB7D22FA549A1C934642
S2140029405E217A1CD154FFF768FB7D22991CFA544D
S21400295088467A1C5E21D154FFF732FB7D23791C12
S2140029605E20BB54931C8854FFF71DFB7D223A540F
S2140029705E24F81C1A1DC454FFF705FBB9545D20ED
S214002980791C931C8854FFF70EFB39545D24F81C01
S2140029901A1DC454FFF7F7FAFA549A1C90465D21A4
S2140029A07A1CD154FFF70CFB00225446E280FFF756
S2140029B0FBFB7E22FA5404217A1CD1545246117A2B
S2140029C0981C7E2979D07D2900D1B2E0DA1C3954D2
S2140029D00131534619727023E95C7E297AD07D292D
S2140029E000D1B2E0531CB9547122A95C7E297BD079
S2140029F07D2900D1A3E05A1CF9547223E95C7E2994
S214002A007CD07D2900D1A6E0531CB9547322AA5C61
S214002A107E2A7DD07D2A00D1A3E0591CFA5408AC4A
S214002A2023787E2B7ED07D2B01D100F0FCFD4A1C46
S214002A307B546B4621331B787E2B01D100F061FD61
S214002A407D2B01D100F0C5FD511CBB540AAE337876
S214002A507E2B01D100F065FD7D2B01D100F0EAFD53
S214002A604A1C7B546B4629331B787E2B01D100F021
S214002A7050FD7D2B01D100F0BAFD511CBB540CA8B3
S214002A8003787E2B01D100F05CFD7D2B01D100F098
S214002A90A7FD4A1C7B546B4631331B787E2B01D135
S214002AA000F047FD7D2B01D100F0B6FD511CBB5454
S214002AB07E224B1C7A54FFF74AFA7D223A545E2453
S214002AC0F81CC45401311A1D534619727023E95C70
S214002AD07E2984D17D23791C5E20BB548854931CA8
S214002AE07122A95C7E2983D17D22791C5E20FA544E
S214002AF0C8549A1C7223E95C7E2982D17D23791CF6
S214002B005E20BB548854931C7322AA5C7E2A81D113
S214002B107D22FA545E207A1CD05408AC991C237887
S214002B207E2B80D17D237B545E207B1C8A1C5854D0
S214002B307FE739545D24F81C1A1DC45448E7F9543D
S214002B405D20791C9A1CC85457E7B9545D20791C3F
S214002B50931C885448E7B9545D20791C931C88540C
S214002B6054E7FA545D207A1C991CD05457E7C046A7
S214002B70640200200000A041000020410060EA46F8
S214002B80FF7F00007E22FA5403217A1CD154317A4A
S214002B90981C7E2979D07D2900D1B7E0DA1C3954FB
S214002BA00131504670230172E95C7E297AD07D2976
S214002BB000D1A5E0531CB9547122A95C7E297BD0B4
S214002BC07D2900D1AEE05A1CF9547223E95C7E29B7
S214002BD07CD07D2900D19FE0531CB9547322AA5C97
S214002BE07E2A7DD07D2A00D1A2E0591CFA54237893
S214002BF07E2B7ED07D2B01D100F0DDFC4A1C7B5461
S214002C006B4641331B787E2B01D100F062FC7D2B96
S214002C1001D100F0FAFC511CBB546B4642331B78C2
S214002C207E2B01D100F065FC7D2B01D100F0CAFCA3
S214002C304A1C7B546B4643331B787E2B01D100F035
S214002C4050FC7D2B01D100F09BFC511CBB5411ABFA
S214002C501B787E2B01D100F084FC7D2B01D100F087
S214002C60CDFC4A1C7B546B4645331B787E2B01D12A
S214002C7000F06FFC7D2B01D100F096FC511CBB547C
S214002C807E224B1C7A54FFF75CF97D223A545E266E
S214002C90F81CC65401311A1D504670230172E95CB7
S214002CA07E2984D17D23791C5E20BB548854931CD6
S214002CB07122A95C7E2983D17D22791C5E20FA547C
S214002CC0C8549A1C7223E95C7E2982D17D23791C24
S214002CD05E20BB548854931C7322AA5C7E2A81D142
S214002CE07D22FA545E207A1CD054991C23787E2BC1
S214002CF080D17D237B545E207B1C8A1C58547FE742
S214002D00B9545D20791C931C885455E739545D26C8
S214002D10F81C1A1DC65443E7B9545D20791C931C51
S214002D2088545BE7F9545D20791C9A1CC8544CE71C
S214002D30FA545D207A1C991CD05458E7F9540222A4
S214002D403B1D1A54337A411D7E2B33D07D2B50D039
S214002D50821D7B54013350460372D3235B006E46BC
S214002D60D9B233837E293DD07D2948D0531CB9542F
S214002D706846427E7E2A24D07D2A46D0591CFA54C4
S214002D800EAA13787E2B26D07D2B01D100F005FCF1
S214002D904A1C7B546B4639331B787E2B00D191E35B
S214002DA07D2B00D1F3E3511CBB547E224B1C7A547E
S214002DB0FFF7C1F87D227A545E26B91DC21D0E5457
S214002DC0C8E77D22FA545E207A1CD0540EAA991CBD
S214002DD013787E2BD8D17D237B545E207B1C8A1CE7
S214002DE05854D7E77D23791C5E20BB54931C885427
S214002DF0BEE77B545D26B91DC21D0E54AAE7B95422
S214002E005D20791C931C8854B2E7FA545D207A1C26
S214002E10991CD054B4E77E1CB44661467D235A46BE
S214002E205E265944BB540E706E46727E5B46023375
S214002E307E2A01D0FFF72BF97D22FA54791C5E22F8
S214002E40CA5451469E1CCB88092B01D8FFF72BF994
S214002E50059D00B229B24B005D18ED002D186D00DF
S214002E602D192A78A9467E2A01D100F021FC7D2A58
S214002E7001D100F067FD751CA846BA554E4672781B
S214002E807E2A01D100F007FC7D2A01D100F04EFD1C
S214002E900125AB464646C344BA555A18D200121806
S214002EA02132FF3252001219904612787E2A00D143
S214002EB0E8E35E467D2A01D100F06AFD5D460136F4
S214002EC07A5545466A787E2A00D1CBE37D2A01D121
S214002ED000F056FD751CA946BA555B18DB00902617
S214002EE01B18B6009B195B00E41823787E2B00D1D4
S214002EF0AFE349467D2B01D100F03AFD484601314B
S214002F003B5462787E2A01D0FFF73CF9FFF7B9F907
S214002F10BB547E1C5D23494602327354FEF7A6FF5F
S214002F204246B85443467A1C5D21464602339155C4
S214002F30FFF766F8FA549E1C7A1C5D21B346D154FE
S214002F40FFF76BF8FE545D217E1C9A1CF154FEF7C9
S214002F50C1FF7E1C5D21BB54931CB154FEF7ADFF30
S214002F60FE545D217E1C9A1CF154FEF799FF7E1CD0
S214002F705D21BB54931CB154FEF785FFBB545D2600
S214002F807B1C901C9E54FEF7C7FFF8545D26781CE9
S214002F909A1CC654FEF7B5FFBE545D217E1C931CDA
S214002FA0B154FEF7A2FFB8540724BA1CD4542A7AA8
S214002FB0D81C7E2A00D1A7E07D2A00D1ABE01C1DDC
S214002FC03A540132564632729E489F4A9F4B367993
S214002FD0002583469146984604291DD000200529E1
S214002FE000D1F0E06A4610836846037E7E2B26D02A
S214002FF07D2B00D131E2621C3B5569464B7E7E2B11
S21400300027D07D2B00D11CE2541CBB5404350C2D5C
S21400301028D0311C0429E1D140462B18186F8C4962
S2140030200FF070FF02908B49FDF72AFB002878D03E
S2140030305B466A4613836846037E7E2BD8D17D2383
S2140030403B555E217B1C195569464B7EA21C7E2B88
S214003050D7D17D23BB545E217B1C0435941C995428
S2140030600C2DD6D15246794E1279764BB3460025B2
S2140030709846161C042E00D19DE00020052E7CD01C
S2140030806A4610836846037E7E2B6FD07D2B00D168
S214003090DDE1621C3B5569464B7E7E2B5FD07D2B67
S2140030A000D1E6E1541CBB5404350C2DE2D1524647
S2140030B0654E1279634B6548B246002598468146B0
S2140030C0161C042E00D1B5E00020052E00D193E09A
S2140030D06B4618836846037E7E2B7CD07D2B00D102
S2140030E0C1E1621C3B5569464B7E7E2B7DD07D2B15
S2140030F000D1A0E1541CBB5404350C2DE1D17E2335
S214003100621C3B55FFF75BF87D243C545E25381D5A
S2140031105C1DC55455E73A545D25381D5C1DC554E5
S2140031204FE7C72102980906FDF796FA002800D057
S21400313075E1029810F03EF980B253E7FE547E1C0B
S214003140B44661465D26594402330E70FEF799FF79
S214003150FA54791C5D229E1CCA54FEF79EFF7D23FE
S214003160BB545E217B1C941C99549DE77D233B55E4
S2140031705E217B1CA21C19558DE733496B18586ECF
S21400318033490FF0BFFE814648463249FDF778FACC
S214003190002803D043466A46138373E7C721484690
S2140031A00906FDF759FA002800D03CE1484610F021
S2140031B001F980B264E758462B18586E24490FF080
S2140031C0A1FE8146E0E749466B18186F20490FF0CC
S2140031D099FE029027E77D233B555E217B1C1955FF
S2140031E069464B7EA21C7E2B81D17D23BB545E217B
S2140031F07B1C941C99547FE75246AB18D86F16492F
S2140032000FF080FE834658461249FDF739FA00282B
S21400321003D040466B4618835CE7C721584609062C
S214003220FDF71AFA002800D001E1584610F0C2F85F
S21400323080B24DE749466B18D86F07490FF062FE1B
S2140032408346E0E7FF7F00007C070020B40F0020E5
S21400325000007A4400FEFF4600401C467E22FA54D8
S21400326005217A1CD1545246117A981C7E2900D129
S21400327081E07D2900D1B4E0DA1C3954013153468F
S21400328019727023E95C7E2900D182E07D2900D185
S214003290B3E0531CB9547122A95C7E2900D183E0A7
S2140032A07D2900D1A3E05A1CF9547223E95C7E29DB
S2140032B000D184E07D2900D1ABE0531CB9547322C1
S2140032C0AA5C7E2A00D185E07D2A00D19BE05C1CAA
S2140032D0FA54E84DE84928680FF014FE10F06AF832
S2140032E00F90C0B27E2800D19BE27D2800D191E3EA
S2140032F0621C38556B463D331B787E2B00D1B3E2FB
S2140033007D2B00D198E3511CBB546B463E331B7893
S2140033107E2B00D1A1E27D2B00D187E34A1C7B5493
S2140033206B463F331B787E2B00D18FE27D2B00D17E
S21400333076E3541CBB546868D0490FF0E3FD10F0E8
S21400334039F86D46C3B228837E2B00D177E27D2BF9
S21400335000D17DE3621C3B556E46737E7E2B00D10A
S21400336066E27D2B00D16DE3511CBB547E224B1CC4
S2140033707A54FEF7F6FD7D223A545E24F81CC454B7
S21400338001311A1D534619727023E95C7E2900D05C
S2140033907CE77D23791C5E20BB548854931C7122E5
S2140033A0A95C7E2900D07BE77D22791C5E20FA543A
S2140033B0C8549A1C7223E95C7E2900D07AE77D23E4
S2140033C0791C5E20BB548854931C7322AA5C7E2A08
S2140033D000D079E77D22FA545E217A1C9C1CD154D9
S2140033E077E739545D24F81C1A1DC45446E7F9548F
S2140033F05D20791C9A1CC85457E7B9545D20791C87
S214003400931C885447E7FA545D217A1C9C1CD154BF
S2140034105FE7B9545D20791C931C88544FE79849A0
S21400342068460183E0E59649684601832AE6944AA1
S21400343069460A834EE6BB545D217B1C941C995456
S2140034405AE6BB545D217B1C941C9954DEE53B5523
S2140034505D217B1CA21C19551DE63B555D217B1C7E
S214003460A21C1955C9E53B555D217B1CA21C1955AC
S21400347039E6BB545D217B1C941C995414E64E46D9
S214003480734269460B83DBB27E2B00D1EEE27D2BC6
S21400349000D1F6E259465A460131BB546E46737E59
S2140034A07E2B00D1DAE27D2B00D1F4E24E1C7B5459
S2140034B0FEF7F3FD7D233B555E227B1CA11C1A55AF
S2140034C0FEF75BFE7D23BB545E207B1C911C98544C
S2140034D06BE47D23BB545E207B1C911C9854FFF745
S2140034E09CFB7D23BB545E207B1C911C9854FFF7ED
S2140034F0AEFB7D237B545E207B1C8A1C5854FFF752
S21400350099FB7D23BB545E207B1C911C9854FFF7CF
S2140035109DFA7D23BB545E207B1C911C9854FFF7BC
S214003520AEFA7D237B545E207B1C8A1C5854FFF722
S21400353099FA7D23BB545E207B1C911C9854FFF7A0
S214003540B7FA7D237B545E207B1C8A1C5854FFF7F9
S214003550A2FA7D23BB545E207B1C911C9854FFF777
S2140035608FFB7D237B545E207B1C8A1C5854FFF700
S2140035707AFB3B555D227B1CA11C1A55FEF7FDFD10
S214003580BB545D207B1C911C9854FFF760FBBB541A
S2140035905D207B1C911C985407E47B545D207B1CAB
S2140035A08A1C5854FFF7F6FBBB545D207B1C911C0D
S2140035B09854FFF765FB7B545D207B1C8A1C58548F
S2140035C0FFF71EFB7B545D207B1C8A1C5854FFF7BC
S2140035D031FBBB545D207B1C911C9854FFF736FAD8
S2140035E07B545D207B1C8A1C5854FFF754FABB544E
S2140035F05D207B1C911C9854FFF741FA7B545D209C
S2140036007B1C8A1C5854FFF72EFBBB545D207B1C8A
S214003610911C9854FFF701FBBB545D207B1C911C4A
S2140036209854FFF745FA7B545D207B1C8A1C58543F
S214003630FFF7FFF97B545D207B1C8A1C5854FFF76C
S21400364011FA7D23BB555E217B1CB21C9955FEF7F3
S21400365056FD7D234E46BB5549467B1C5E220231F5
S2140036609A554EE47D22BA55B21C91467D1C5E22C8
S214003670AA5532E45CF5FF1F00007A440000C842F9
S2140036800080FFFF7D225E46BA557A1C5E255A44AE
S2140036900236157015E47D2245467A557A1C0226B8
S2140036A0151CB34645445E26C3442E70FFF7F5FB53
S2140036B07D22BA55B21C90465E257A1C9555FFF7BA
S2140036C0DDFB7D23BB545E207B1C911C9854FEF7CB
S2140036D054FD7D237B545E207B1C8A1C5854FEF7C9
S2140036E09FFE7D23BB545E207B1C911C9854FEF7E6
S2140036F08BFE7D237B545E207B1C8A1C5854FEF771
S21400370077FE7D23BB555E227B1CB11C9A55FEF7C7
S21400371063FE7D23BB545E207B1C911C9854FEF7F1
S2140037203FFE7D237B545E207B1C8A1C5854FEF78C
S21400373029FE7D233B555E227B1CA11C1A55FEF7F5
S21400374015FE7D23BB545E217B1C941C9954FEF70A
S214003750FAFD7D23BB555E217B1CB21C9955FEF7F6
S214003760E6FD7D23BB545E217B1C941C9954FEF71A
S214003770CDFD7D233B555E217B1CA21C1955FEF713
S214003780B9FD7D23BB545E217B1C941C9954FEF727
S2140037909EFD7D23BB555E217B1CB21C9955FEF712
S2140037A08AFD7D233B555E227B1CA11C1A55FEF725
S2140037B063FD7D23BB545E217B1C941C9954FEF74D
S2140037C048FD7D233B555E217B1CA21C1955FEF748
S2140037D034FD7D23BB545E217B1C941C9954FEF75C
S2140037E019FD7D23BB555E217B1CB21C9955FEF747
S2140037F005FD7D23BB545E217B1C941C9954FEF76B
S214003800A9FC7D233B555E217B1CA21C1955FEF7A7
S21400381095FC7D23BB545E217B1C941C9954FEF7BB
S2140038207AFC7D233B555E217B1CA21C195561E565
S2140038307D23BB545E207B1C911C985496E57D230B
S2140038403B555E217B1CA21C195585E57D23BB5488
S2140038505E217B1C941C99546DE57D237B545E2071
S2140038607B1C8A1C58545BE57D23BB545E207B1C66
S214003870911C985449E53B555D227B1CA11C1A55AA
S214003880FEF7FAFCBB545D217B1C941C9954FEF792
S214003890E0FC3B555D217B1CA21C1955FEF7CDFCB8
S2140038A0BB545D217B1C941C9954FEF7B3FCBB549F
S2140038B05D217B1C941C9954FEF728FD3B555D2129
S2140038C07B1CA21C1955FEF715FDBB545D217B1C05
S2140038D0941C9954FEF7FBFCBB555D217B1CB21C67
S2140038E09955FEF7E8FCBB555D217B1CB21C99552B
S2140038F0FEF784FCBB545D217B1C941C9954FEF798
S21400390029FC3B555D217B1CA21C1955FEF716FCB5
S214003910BB545D217B1C941C9954FEF7FCFBBB55E5
S2140039205D217B1CB21C9955FEF7E9FB4646BA554D
S2140039307D1C022293462A1C5D264244C344167010
S214003940FFF7ABFABA55B21C90465D257A1C955522
S214003950FFF794FABB545D207B1C911C9854FEF72D
S2140039600CFC7B545D207B1C8A1C5854FEF758FDCB
S2140039707B545D227B1C4D4602315A55FFF7C1FA37
S214003980B51CBA55A9467A1C5D259555FFF7A5FACC
S214003990BA557A1C5D255A4402361570FFF791FA1F
S2140039A07B545D207B1C8A1C5854FEF7EBFC3B5571
S2140039B05D227B1CA11C1A55FEF7D8FCBB545D216A
S2140039C07B1C941C9954FEF7BEFCBA1913705D213B
S2140039D07B1CB21C9955FEF7AAFCBB545D207B1CD1
S2140039E0911C9854FEF710FD7B545D207B1C8A1CAE
S2140039F05854FEF7FDFCBA1913707B1C5D22B11CEF
S214003A009A55FEF7E9FCBB545D207B1C911C98542C
S214003A10FEF7C6FC7B1C5D213855A21C195569E4CF
S214003A20BB545D217B1C941C995484E47B545D201C
S214003A307B1C8A1C585473E4BB545D207B1C911C71
S214003A40985462E4BB545D207B1C911C98548DE412
S214003A503B555D217B1CA21C19557DE47D237B54C0
S214003A607A1C5E238E1C5354FEF717FB7D235E469E
S214003A707A1CBB55131C59465E265B4402311E70E9
S214003A800CE55E467A1CBB55131C59465D265B4406
S214003A9002311E7002E57B547A1C5D238E1C535443
S214003AA0FEF7FBFA10220492044A00260020019634
S214003AB0B34690460296FEF7CAF9C0463075000037
S214003AC0F8B5E14B4F464646C0B4171C0022041C0E
S214003AD0C252081C0FF08EFC011CFE2080050FF061
S214003AE071F8DA4B051CE050381C0FF083FC011C03
S214003AF0281C0FF007FA9023DB00D54A011CE05083
S214003B0091460FF0FFF94B46E050FA278F23BF058A
S214003B10DB00E750CF4A9123DB00E250CE4B002576
S214003B20E5508223DB00E550CC4B9046E5508323DE
S214003B30DB00E550CA4BCB4AE5508423DB00E5505A
S214003B408523DB00E550C84B201CE5508623DB00B0
S214003B50E550C64B1430E5508723DB00E550C44BD8
S214003B600026E5508823DB00E550C24BE55089234C
S214003B70DB00E5508A23DB00E550BF4BE5508B2386
S214003B80DB00E550BD4BE5508C23DB00E550BC4B1D
S214003B90E5508D23DB00E550BA4BE5508E23DB0065
S214003BA0E550FE239B05A350B74AA350B74AA3503F
S214003BB007F008FE201C38300AF02CFB231C643368
S214003BC01E705E709E70DE701E715E719E71DE717C
S214003BD01E725E729E72DE7280331E705E709E7003
S214003BE0DE701E715E719E71DE711E725E729E7256
S214003BF0DE72683B1E705E709E70DE701E715E71B7
S214003C009E71DE711E725E729E72DE720C3B1E70BC
S214003C105E709E70DE701E715E719E71DE711E7229
S214003C205E729E72DE724B46E05899490FF06AF952
S214003C3041460FF067F997490EF060FE8A235B0055
S214003C40E050B3239B00E550B4239B00E550B62319
S214003C509B00E550B7239B00E550B8239B00E5503A
S214003C60B9239B00E550BA239B00E550BB239B007D
S214003C70E550BD239B00E550BE239B00E550C023C6
S214003C809B00E550C1239B00E550C2239B00E550F6
S214003C90C3239B00E550C4239B00E550C5239B002F
S214003CA0E550C7239B00E550C8239B00E550CA2378
S214003CB09B00E550CB239B00E550CC239B00E550B2
S214003CC0CE239B00E550CF239B00E550D1239B00DD
S214003CD0E550D2239B00E550D3239B00E550D42328
S214003CE09B00E550D5239B00E550D6239B00E5506E
S214003CF0D8239B00E550D9239B00E550DB239B008F
S214003D00E550DC239B00E550DD239B00E550DE23D9
S214003D109B00E550DF239B00E550E0239B00E55029
S214003D20E2239B00E550E3239B00E550E5239B0040
S214003D30E550E6239B00E550E7239B00E550E8238B
S214003D409B00E550E9239B00E550EA239B00E550E5
S214003D50EB239B00E550EC239B00E550ED239B00F6
S214003D60E550EF239B00E550F0239B00E550F12340
S214003D709B00E550F2239B00E550F3239B00E550A3
S214003D80F4239B00E550F5239B00E550F6239B00AB
S214003D90E550F7239B00E550F9239B00E550FA23F6
S214003DA09B00E550FB239B00E550FC239B00E55061
S214003DB0FD239B00E550FE239B00E550FF239B0060
S214003DC0E5508023DB00E550334B344AE550B22300
S214003DD09B00E250D0239B00E750CD239B00E5508C
S214003DE0B5239B00E550EE212D4B89006350BC2186
S214003DF089006250DA2189006750D7218900655012
S214003E00BF2189006550F82189006350C6218900CA
S214003E106250E4229200A750E1229200A550C922E7
S214003E209200A5508122D200A3501E4B5A79032A35
S214003E3002D804225A711A711B4B0022E2540CBCA1
S214003E4090469946F8BDC0468C0400007C040000ED
S214003E50840400009A99993E0C04000014040000A3
S214003E601C040000740400002C040000340400004D
S214003E703C04000044040000540400005C040000FD
S214003E80640400006C0400004C04000024040000DD
S214003E900FB59F39D5E8D538040400000AD7A33CEF
S214003EA017B7D1384CF5FF1F8E040000F0B5474613
S214003EB09846FD4B80B40F1C0021041CC152101CF8
S214003EC00FF098FA011CFE2080050EF07BFEF74BE3
S214003ED0051CE05040460FF08DFA011C281C0FF020
S214003EE011F8F34B011CE0500FF00CF8F14BF24ABE
S214003EF0E050FA239B05A35082221201A350EF4AFA
S214003F0083231B01E250D7230025DB00E550EC4B52
S214003F10E722E550D823DB00E550EA4BD200E55017
S214003F20D923DB00E550E84B201CE550E74B143066
S214003F30E550DB23DB00E550E54B0026E550DC23AF
S214003F40DB00E550E34BE550DD23DB00E550E24BBC
S214003F50E550DE23DB00E550E04BE550DF23DB00D9
S214003F60E550DF4BE550E023DB00E550E123DB00C6
S214003F70E550DC4BE550E223DB00E550DA4BE5503C
S214003F80E323DB00E550D94BE550E423DB00E550A6
S214003F90D74BE550E523DB00E550D64BE550E6234E
S214003FA0DB00E550D44BE550D44BE550E823DB006E
S214003FB0E550D34BE550E923DB00E550D14BE55007
S214003FC0EA23DB00E550D04BE550EB23DB00E55061
S214003FD0CE4BE550EC23DB00E550CD4BE550ED2312
S214003FE0DB00E550EE23DB00E550CA4BE550EF233F
S214003FF0DB00E550C84BE550F023DB00E550C74B2F
S214004000E550F123DB00E550C54BE550F223DB001D
S214004010E550C44BE550F323DB00E550C24BE550BA
S214004020C24BE550F523DB00E550C14BE550F623C7
S214004030DB00E550BF4BE550F723DB00E550BE4BF9
S214004040E550F823DB00E550BC4BE550F923DB00D8
S214004050E550BB4BE550FA23DB00E550FE239B05FD
S214004060A350B84AA350DA22D200A350B64BB74AA0
S214004070A350F422D200A350B54AA35007F0A2FBE7
S214004080201C38300AF0C6F8231C64331E705E709D
S2140040909E70DE701E715E719E71DE711E725E72A3
S2140040A09E72DE7230331E705E709E70DE701E7101
S2140040B05E719E71DE711E725E729E72DE721E737D
S2140040C05E739E73DE731E745E749E74DE741E755D
S2140040D05E759E75DE75183B1E705E709E70DE7097
S2140040E01E715E719E71DE711E725E729E72DE724F
S2140040F00C3B1E705E709E70DE701E715E719E714F
S214004100DE711E725E729E72DE72B823E550002F5C
S21400411000D045E28F4A82235B00E25084235B0096
S214004120E55086235B00E550624B8B49E0580EF065
S214004130E9FE6249051C0EF0E5FE88490EF0DEFB3E
S21400414088235B00E0508349281C0EF0DBFE814983
S2140041500EF0D8FE59490EF0D5FE81490EF0CEFB82
S2140041608A235B007F4AE0500023A3509022D200AF
S214004170A3509122D200A3507B4A7C4DA35092229A
S214004180D200A3507A4AFA20A3509322D200A3501A
S214004190784A8005A3509422D200A350764A7749E5
S2140041A0A3509522D200A3509622D200A350744A60
S2140041B0744EA350744AA3509822D200A350734A58
S2140041C0A3509922D200A350714AA3509A22D2003B
S2140041D0A350704AA3509B22D200A3506E4AA3500D
S2140041E06E4AA3509D22D200A3509E22D200A35016
S2140041F06B4AA3509F22D200A3506A4AA350A02223
S214004200D200A350684AA350684AA350A222D20004
S214004210A350A322D200A350654AA350A422D200E2
S214004220A350644AA350A522D200A350624AA350CA
S214004230A622D200A350614AA350A722D200A350C0
S214004240A822D200A3505E4AA3505E4AA350AA22D8
S214004250D200A3505C4AA350AB22D200A3505B4AC4
S214004260A350AC22D200A350594AA350AD22D2008C
S214004270A350584AA350584AA350AF22D200A35086
S214004280B022D200A350554AA350B122D200A35068
S214004290534AA350B222D200A350524AA350B3228C
S2140042A0D200A350A0E0C046340800002408000056
S2140042B0280800002C0800001C0800009A99993E67
S2140042C0BC060000C4060000CC060000D4060000B1
S2140042D0DC060000E4060000EC060000F406000021
S2140042E0FC0600000C070000140700001C07000076
S2140042F0240700002C070000340700003C070000DD
S214004300440700004C070000540700005C0700004C
S21400431064070000740700007C07000084070000A4
S2140043208C070000940700009C070000A40700000C
S214004330AC070000B4070000BC070000C40700007C
S214004340CC07000004070000000080BFD407000070
S2140043506C070000000048420FB59F39D5E8D538F5
S2140043609A99193F7C0400008C0400000AD7A33CED
S214004370940400009C040000A404000017B7D13881
S214004380B40400004C060000BC040000C404000096
S214004390CC040000D4040000DC040000E4040000A8
S2140043A0F4040000FC040000040500000C050000F6
S2140043B01C050000240500002C0500003405000044
S2140043C0440500004C050000540500005C05000094
S2140043D0640500006C0500007405000084050000FC
S2140043E08C05000094050000734AA350B422D20046
S2140043F0A350724AA350B522D200A350704AA350CD
S214004400704AA350B722D200A3506F4AA350B822D6
S214004410D200A3506D4AA350B922D200A3506C4AD2
S214004420A350BA22D200A3506A4AA350BB22D2009D
S214004430A350694AA350BC22D200A350BD22D2008A
S214004440A350664AA350BE22D200A350644AA3508B
S214004450BF22D200A350634AA350C022D200A3506A
S214004460614AA350C122D200A350604AA350C22280
S214004470D200A3505E4AA3505E4AA350C422D20084
S214004480A3505D4AA350C522D200A3505B4AA35056
S214004490C622D200A3505A4AA350C722D200A35025
S2140044A0584AA350C822D200A350574AA350C92244
S2140044B0D200A350CA22D200A350544AA350CB2203
S2140044C0D200A350524AA350CC22D200A350514A45
S2140044D0A350CD22D200A3504F4AA350CE22D200E2
S2140044E0A3504E4AA350CF22D200A3504C4AA3500A
S2140044F04C4AA350D122D200A3504B4AA350D222FA
S214004500D200A350494AA350D322D200A350484A0F
S214004510A350D422D200A350464AA350D522D2009C
S214004520A350454AA350D622D200A3508F22D200D1
S214004530A550424AA050A122D200A350404AA35000
S214004540B622D200A1503F4AA2513F4EA551A926FD
S214004550F600A0513D4EA3519726F600A3513C4EBF
S214004560A151D026F600A2519C26F600A551394D41
S2140045706051AE20C000235037482350C323DB00D1
S214004580E150364BE250364B5A79042A02D80522BF
S2140045905A711A71334B0022E25404BC9046F0BDA7
S2140045A082235B00E550304A84235B00E25086237A
S2140045B05B00E550B8E5C0469C050000A405000079
S2140045C0AC050000B4050000BC050000C4050000F2
S2140045D0CC050000D4050000DC050000EC0500005A
S2140045E0F4050000FC050000040600000C060000B0
S2140045F0140600001C060000240600002C0600001E
S214004600340600003C060000440600005406000085
S2140046105C060000640600006C06000074060000DD
S2140046207C060000840600008C060000940600004D
S2140046309C060000A4060000AC060000140500005E
S214004640840400009A99193FAC0400003C05000061
S214004650E40500007C050000EC040000B406000041
S2140046604CF5FF1F3608000000004842F8B5142538
S2140046704557041C0F1C161C002D06D00A4B8360E1
S2140046800A4BC36000230375F8BD081CE268211CB2
S214004690331C083009F0FEFB381C0C30211DE26884
S2140046A0331C09F0F7FBEFE70AD7233D0D74DA3C1D
S2140046B070B5041CA020255682B0161C002D36D1DD
S2140046C0251C64351831281C002B39D0012B62D0EC
S2140046D007F090FF281C2435291C08F0D9FF9C23DE
S2140046E0211CE258281C5431503D01969823261C64
S2140046F0E35800911436291C09F056F9301C291C81
S21400470009F066F8211C281C483109F0F1F8231C32
S2140047100C33009304330193221D301C211C083BEC
S21400472008F02EFE0023E360A36002B070BD2F4A9F
S2140047309823E2502E4A9C23E25000232354F4E7A9
S21400474007F028FE281C2435291C08F0A1FF9C230E
S214004750211CE2580196281C5431503D261C9823F3
S214004760E35800911436291C09F01EF9301C291C48
S21400477009F02EF8211C281C483109F0B9F8231C32
S2140047800C33009304330193221D301C211C083B7C
S21400479008F00AFDC6E707F093FE281C2435291CFE
S2140047A008F076FF9C23211CE2580196281C543101
S2140047B0503D261C9823E35800911436291C09F016
S2140047C0F3F8301C291C09F003F8211C281C48317A
S2140047D009F08EF8231C0C33009304330193221D3A
S2140047E0301C211C083B08F055FD9BE70AD7233DEB
S2140047F0CCCC4C3EF0B5041CA020205683B0151C33
S214004800002811D0504A9823E250504A9C23E25088
S2140048104F4B5A79002A02D101225A711A7100228E
S214004820A023E25403B0F0BD261C64363031301CA1
S214004830002B2ED0012B59D0271C883707F0FEFFFF
S214004840301C391C08F024FF9C23211CE2582C3E07
S21400485001955431251C9823E3580091381C311CCF
S214004860143509F0A1F8281C311C08F0B1FF211CF2
S214004870301C483109F03CF8211C0C31231C0091F7
S21400488004310191221D0833281C211C08F078FDF4
S214004890C8E7271C883707F065FF301C391C08F06E
S2140048A0F7FE9C23211CE2582C3E01955431251C12
S2140048B09823E3580091381C311C143509F074F81D
S2140048C0281C311C08F084FF211C301C483109F0DC
S2140048D00FF8211C0C31231C009104310191221D7C
S2140048E00833281C211C08F05FFC9BE7271C883730
S2140048F007F06EFF301C391C08F0CAFE9C23211CF2
S214004900E2582C3E01955431251C9823E35800911B
S214004910381C311C143509F047F8281C311C08F0E7
S21400492057FF211C301C483108F0E2FF211C0C31D7
S214004930231C009104310191221D0833281C211CE0
S21400494008F0A8FC6EE7C0460AD7233D8888883D55
S2140049504CF5FF1FF0B54D4644465F465646F0B44C
S21400496089B0039312AB89460022995E7C2302919C
S214004970C3568046002B00D076E04B46DB6849469F
S2140049804A46096943655269029B8165C265002BE8
S21400499000DC9FE0382364229B469246C244C34410
S2140049A0002700235E00F6184946760042468D69C9
S2140049B04E44546F1C23F05E0EF01CFD291C0EF0B6
S2140049C0A1FA211C0EF09EFA05901E21705E0EF0D4
S2140049D011FD291C0EF096FA211C0EF093FA069093
S2140049E02022B05E0EF006FD011C281C0EF08AFA8E
S2140049F0011C201C0EF086FAFE22079005A95046E0
S214004A00920508F07BFD01375146584609F0FCFA3E
S214004A10FFB202997BB28B42C4DB4446584614343C
S214004A2009F08EFB201C594608F0D2FE4146584637
S214004A30483108F05DFF039A002A2FD0012A3BD0A8
S214004A4041460C31424643460091043101910432FE
S214004A500833201C414608F093FC09B03CBC904645
S214004A609946A246AB46F0BD1C4B41464B671C4BD5
S214004A7040468B67143006F0A5FE4046383009F0F5
S214004A80C9FB184B5A79012A04D900227C234146D7
S214004A90CA54E2E702225A711A71F6E741460C310F
S214004AA04246434600910431019104320833201CEB
S214004AB0414608F079FBD0E741460C314246434672
S214004AC000910431019104320833201C414608F05D
S214004AD0E1FBC2E738218B46C3449EE70AD7A33BD7
S214004AE00AD7233D4CF5FF1FF0B5474680B482B089
S214004AF0041C08A81D1C0023C65EA82020560028FB
S214004B0013D0624AA023E250614AA423E250614BCC
S214004B105A79022A02D803225A711A710022A8234F
S214004B20E25402B004BC9046F0BD002E40D0012EE8
S214004B3075D03031261C271C8C466437131C9836DB
S214004B4062461833381C311C08F0A6F9381C243786
S214004B50391C08F09DFDA423211CE258381C543152
S214004B60503FA023E35800910195391C08F01CFF24
S214004B7014231B19181C391C984608F029FE211C02
S214004B80381C483108F0B4FE231C0C330093043361
S214004B900193221D4046211C083B08F0F1FB211C16
S214004BA0A423E2589C31301C2B1C09F073F9B8E79B
S214004BB0261C3031271C8C4664379836131C183355
S214004BC06246381C311C07F06FFE381C2437391C2F
S214004BD008F05EFDA423211CE258381C5431503FD7
S214004BE0A023E35800910195391C08F0DDFE14233C
S214004BF01B19181C391C984608F0EAFD211C381CA5
S214004C00483108F075FE231C0C33009304330193DF
S214004C10221D4046211C083B08F0C6FABFE7261CAA
S214004C203031271C8C4664379836131C183362467E
S214004C30381C311C07F0B4FF381C2437391C08F028
S214004C4027FDA423211CE258381C5431503FA023D2
S214004C50E35800910195391C08F0A6FE14231B1991
S214004C60181C391C984608F0B3FD211C381C483126
S214004C7008F03EFE231C0C33009304330193221DE0
S214004C804046211C083B08F005FB88E70AD7233D71
S214004C908888883D4CF5FF1FF0B55F464D46444674
S214004CA05646F0B4B5B00E933EAB8346079100214E
S214004CB0585EE94B90465A46D3568146002B01D0A3
S214004CC000F0C2FFE54B5C46E35E002B1CD10E9C59
S214004CD0002C01D100F0C1FF012C01D101F014F825
S214004CE05C4607991434201C0C310D9407F082FCA6
S214004CF05C4638340D98211C0B9408F0C9FCD74B41
S214004D0001225846C25204E05C4614340D94243402
S214004D100B945A464146C868516E0EF0E1F9444677
S214004D205B46996E586520690EF0DAF95946886533
S214004D306069C96E0EF0D4F95A46D065B83208924A
S214004D40131C0B9A13CA13C312685C461A60C83445
S214004D504A460694002A4CDDC14800275C460023DC
S214004D60CB468246B9465F00FF1841467F008E69F3
S214004D70474452461C23F85EA5580EF03BFB311CF8
S214004D800EF0C0F8616E0EF0ABF9291C0EF0BAF802
S214004D9013901E21785E0EF02DFB311C0EF0B2F83B
S214004DA0A16E0EF09DF9291C0EF0ACF8149020228E
S214004DB0B85E0EF01FFB011C301C0EF0A3F8E16E6F
S214004DC00EF08EF9011C281C0EF09CF8FE221590A1
S214004DD013A90698920508F091FB0898069909F021
S214004DE013F94B460133DBB299465BB25B45BADB3F
S214004DF0A34658469430089908F0EAFC0E9C9C237B
S214004E00002C01D100F0D5FE5846022C01D100F04E
S214004E102EFFC458802109066418FC23C450FC21C8
S214004E20D823C05889050EF06DF884235A465B00D7
S214004E30D050079BD9680EF053F9211C0EF050F99C
S214004E405C46F023E050A823E45880200006802328
S214004E50241859465B00CC50DC23C858FC21890531
S214004E600EF050F886235A465B00D050079B19690F
S214004E700EF036F9211C0EF033F95C46F423E050B0
S214004E80B423E458802000068223594624185B0089
S214004E90CC50E023C858FC2189050EF033F888234F
S214004EA05B005A46D050079B59690EF019F9211C31
S214004EB00EF016F95C46F823E05082235B00E058BB
S214004EC068490EF01FF882235A46DB00D050802334
S214004ED05B00071C6449E0580EF014F8634B5C4610
S214004EE0E050FC23061C5F49E0580EF00BF88723C1
S214004EF0DB00E050051C8020000686233A18DB0005
S214004F00E2505B4B3218E2508B232A18DB00E2504B
S214004F109023DB00E4582418211C381C0DF0F2FF07
S214004F20544B5946C850071C211C301C0DF0EAFF94
S214004F308423DB005A46D050211C061C281C0DF08A
S214004F40E1FF4D4B5C468021E05009064B4B7F1835
S214004F50E7508C23DB007618E650494B4018E050AB
S214004F60B2239B001C1C5C444648231C099437ACA7
S214004F700A94041C1CAA5C4492461F1C07940C202E
S214004F80404280460799D044894646460022326011
S214004F90B04600244E4609E041460868291C0DF03C
S214004FA0ADFC424610600434242C26D03D59002126
S214004FB0281CFBF74BFB0028F5D133590021181CA1
S214004FC09946FBF743FB0028EDD1FE2148468905AC
S214004FD0FBF73CFB0028DFD148462B49FBF736FBA6
S214004FE0002800D1B2E143461868291C0EF078F874
S214004FF0043441460860242CD8D1B14646460436CF
S214005000A1445645C2D10C20B04682460A9CC244F2
S2140050102437A245B3D18C2149000C1C5C44862061
S214005020C0000F940A940024804607945C46D84437
S2140050300C942421079A0A9849428B468146C34419
S214005040924655B2474600214846AD0019AA01606F
S21400505055195C4625E0C0468E0400008C0400000E
S2140050607C04000035FA8E3C35FA8EBC1404000031
S214005070540400001C040000440400003C0400002B
S214005080640400000C040000000080BF4946086865
S21400509041460DF033FC4A46106004340C35BC42E1
S2140050A027D026680021301CFBF7D0FA0028F4D160
S2140050B02B680021181C9846FBF7C8FA0028ECD18C
S2140050C0FE21301C8905FBF7C1FA0028DED1301C12
S2140050D0A749FBF7BBFA002800D12BE14B4618681E
S2140050E041460DF0FDFF0434494608600C35BC42CD
S2140050F0D7D153460133DBB204205DB281449A46D1
S214005100022DA0DD079B2434A0460A9C0133DBB2A7
S21400511028340A945CB20793032C8AD10C988A230D
S2140051205B00C6588C256D008346311C40590DF037
S214005130E5FBA0235B005A4699465B4650514B441C
S2140051401968301C0DF0DAFB59464944B42708604C
S2140051507F005A46D159301C0DF0D0FB8E265B4698
S214005160D851760098599E225200902798507F007A
S214005170DB59B020594640000B50A2235B00CB58A9
S214005180B22252008B509E200F9BB022400052004D
S2140051901693011C131C59445B44079117911893EE
S2140051A0009416A810A912AB11AA06F0BDFE97230C
S2140051B09B001C1C5C4419A800210A9480468A4661
S2140051C0AAE08C235A465B00D158381C0DF09AFE94
S2140051D000210DF093FB8146206041464E68002179
S2140051E0301CFBF733FA00280CD19E235A465B008E
S2140051F0D158301C0DF086FE011C48460DF07EFB93
S21400520081462060404685680021281CFBF71EFA70
S21400521000280AD1B0235A465B00D158281C0DF04E
S21400522071FE49460DF06AFB206050466060002122
S214005230381CFBF70BFA002800D093E08E235A4662
S2140052405B00D158381C0DF05DFE00210DF056FBBA
S21400525081466060301C0021FBF7F8F900280CD16D
S214005260A0235A465B00D158301C0DF04BFE011CA3
S21400527048460DF043FB81466060281C0021FBF782
S214005280E5F900280AD1B2235A465B00D158281CFB
S2140052900DF038FE49460DF031FB60605046A060C8
S2140052A00021381CFBF7D2F900285ED190235A461D
S2140052B05B00D158381C0DF025FE00210DF01EFBBA
S2140052C0071CA060301C0021FBF7C0F900280CD199
S2140052D0A2235B005A46D158301C0DF013FE011C69
S2140052E0381C0DF00BFB071CA060281C0021FBF7E8
S2140052F0ADF900280AD1B4235B005A46D158281CC1
S2140053000DF000FE391C0DF0F9FAA06009980C2388
S2140053100C349844A0422DD043461F685246226063
S214005320381C0021FBF792F9002800D149E700203D
S214005330814652E74146301C0DF0E4FD4A46011C0A
S21400534010680DF0DBFA4B461860A6E64946281CA6
S2140053500DF0D8FD4246011C10680DF0CFFA43460A
S214005360186020E60020814674E70027AAE7C046BA
S214005370000080BF5946F023CD58F423CC58F823BC
S214005380CF58A0239B00C958281C0DF0BBFD002158
S2140053900DF0B4FAA1239B005A46D158061C201CD7
S2140053A00DF0B0FD011C301C0DF0A8FAA9239B00DF
S2140053B05A46D1588046281C0DF0A4FD00210DF059
S2140053C09DFAAA239B005A46D158061C201C0DF0B5
S2140053D099FD011C301C0DF091FA97239B005A464C
S2140053E0D1588146281C0DF08DFD00210DF086FA5F
S2140053F098239B005A46D158061C201C0DF082FDAF
S214005400011C301C0DF07AFA99239B005A46D1589D
S214005410061C381C0DF076FD011C301C0DF06EFAD3
S2140054205B461867A2239B005A46D158381C0DF0DD
S21400543069FD011C40460DF061FA5B46D867AB2358
S2140054409B005A46E420D1588246381C0DF05AFD7F
S214005450011C48460DF052FA5B4653441860A323DD
S2140054609B005A46D158281C0DF04CFD00210DF02B
S21400547045FAA4239B005A46D158061C201C0DF062
S21400548041FD011C301C0DF039FAAC239B005A4636
S214005490D1588046281C0DF035FD00210DF02EFA5F
S2140054A0AD239B005A46D158061C201C0DF02AFD41
S2140054B0011C301C0DF022FA9A239B005A460C90D1
S2140054C0D158281C0DF01EFD00210DF017FA9B2365
S2140054D09B005A46D158061C201C0DF013FD011CDB
S2140054E0301C0DF00BFA9C239B005A46D158061C24
S2140054F0381C0DF007FD011C301C0DF0FFF95B4653
S2140055005867A5239B005A468020D1588146381CF0
S2140055100DF0F8FC011C40460DF0F0F95B464B44DC
S2140055201860AE239B005A46E820D1588046381CA7
S2140055300DF0E8FC011C0C980DF0E0F95B464344C6
S2140055401860A6239B005A46D158281C0DF0DAFC9A
S21400555000210DF0D3F9A7239B005A46D158061C0C
S214005560201C0DF0CFFC011C301C0DF0C7F9AF233A
S2140055709B005A46D1580C90281C0DF0C3FC002105
S2140055800DF0BCF9B0239B005A46D158061C201CCF
S2140055900DF0B8FC011C301C0DF0B0F99D235A46E6
S2140055A09B00D158061C281C0DF0ACFC00210DF009
S2140055B0A5F99E239B00051C201C5C46E1580DF0B7
S2140055C0A1FC011C281C0DF099F99F239B005A464C
S2140055D0D158041C381C0DF095FC011C201C0DF045
S2140055E08DF95B469867A8239B005A46D158381C0D
S2140055F00DF088FC011C0C980DF080F984245B46A5
S2140056001851B1239B005A46D158381C0DF07AFC2D
S214005610011C301C0DF072F9EC255B4659465851BA
S21400562070310698A34A07F069FF069A08990B9806
S21400563008F046FC0B9808F083FD0D980B9908F0CF
S214005640C7F859460B98483108F052F95946486E43
S214005650C96F0DF045FD84235A465B005066D0584E
S2140056605B46534419680DF03BFD5A46D82359460D
S2140056704A44C850886E11680DF032FD5B46986645
S2140056805A46862342445B005946C85811680DF0B6
S21400569027FDDC235946C850C86E09590DF020FD79
S2140056A088235A465B005159D066D0580DF018FD35
S2140056B05C46E023E0505B460C330E9C5A46009353
S2140056C00433019304320D985946083B002C00D150
S2140056D0B7E2012C00D1BDE207F052FED420400014
S2140056E0079C011C59445B4607910893A346B421C6
S2140056F08900242040420C1CBD218146890009985F
S2140057005C448846D94406948246D84400234A46D8
S21400571013605546069C47460AE0494608684146D7
S2140057200DF0ECF84A46106004342435A74226D023
S21400573026680021301CFAF789FF0028F4D1286873
S21400574000218046FAF782FF0028EDD1FE21301CAA
S2140057508905FAF77BFF0028DFD1301C5549FAF798
S21400576075FF002800D199E04B46186841460DF0B9
S214005770B7FC0434494608602435A742D8D104242F
S214005780A144B846A244D945C0D124208346079CEC
S214005790CB44A345ABD10A9908988846099A0F9935
S2140057A000239246994606908B464E46544675B25E
S2140057B0AD005D442F680021381CFAF747FF00282B
S2140057C009D143461968381C0DF09CFB011C206863
S2140057D00DF086FC20606F6A0021381CFAF736FF51
S2140057E0002809D142465168381C0DF08BFB011C7D
S2140057F020680DF075FC2060AD6C0021281CFAF7BF
S21400580025FF002809D143469968281C0DF07AFB2D
S214005810011C20680DF064FC20600136F6B275B2FB
S2140058200434082DC4DD4B460133DBB228240C209B
S2140058309946A2448044092BB7D106998E2252007D
S2140058408B46161C00235E441D1C9C46B0460F1C4F
S214005850D6246400231C43441A684346043B1A605B
S21400586063460133DBB29C465BB2092B24D0D821B9
S21400587049000C1C444440466246DE00F3185B199F
S21400588002CC463301329B00D2B2D95153B202C089
S214005890092BF2D1282201359044D9E74146301C25
S2140058A00DF030FB4A46011C10680DF027F84B46F9
S2140058B0186039E7000080BFB32200239200BB5077
S2140058C0B4229200BB50B6229200BB50B722920080
S2140058D0BB50B8229200BB50B9229200BB50BA22ED
S2140058E09200BB50BB229200BB50BD229200BB5020
S2140058F0BE229200BB50C0229200BB50C122920032
S214005900BB50C2229200BB50C3229200BB50C4229E
S2140059109200BB50C5229200BB50C7229200BB50DB
S214005920C8229200BB50CA229200BB50CB229200E3
S214005930BB50CC229200BB50CE229200BB50CF224E
S2140059409200BB50D1229200BB50D2229200BB5094
S214005950D3229200BB50D4229200BB50D522920094
S214005960BB50D6229200BB50D8229200BB50D92200
S2140059709200BB50DB229200BB50DC229200BB5050
S214005980DD229200BB50DE229200BB50DF22920046
S214005990BB50E0229200BB50E2229200BB50E322B2
S2140059A09200BB50E5229200BB50E6229200BB500C
S2140059B0E7229200BB50E8229200BB50E9229200F8
S2140059C0BB50EA229200BB50EB229200BB50EC2266
S2140059D09200BB50ED229200BB50EF229200BB50CB
S2140059E0F0229200BB50F1229200BB50F2229200AD
S2140059F0BB50F3229200BB50F4229200BB50F5221B
S214005A009200BB50F6229200BB50F7229200BB5089
S214005A10F9229200BB50FA229200BB50FB22920061
S214005A20BB50FC229200BB50FD229200BB50FE22CF
S214005A309200BB50FF229200BB508022D200BB5087
S214005A40B64ABB46BB50B64B5C46FE589123DB00BD
S214005A50FF589023DB00E5588F23DB00E458C8236B
S214005A6059465B00CB58802000062D18391C181CA0
S214005A7098460CF043FF311C0DF044FA8C235A462E
S214005A805B00011CD0580CF039FFB2239B0059462E
S214005A90C8504046A3490CF031FFD0235A469B001D
S214005AA0D050291C0DF02EFACD2359469B00C85025
S214005AB0B5239B00C85082239B00C958201C0DF0BC
S214005AC021FA99490CF01AFFEE235A469B00D05053
S214005AD0DC235B00D358391C181C98460CF00EFFCC
S214005AE0311C0DF00FFAA0235A465B00011CD0585B
S214005AF00CF004FFBC239B005946C8504046894919
S214005B000CF0FCFEDA235A469B00D050291C0DF000
S214005B10F9F9D72359469B00C850BF239B00C850AD
S214005B208C239B00C958201C0DF0ECF97E490CF024
S214005B30E5FEF8235A469B00D050F0235B00D3586E
S214005B40391C181C98460CF0D9FE311C0DF0DAF9F9
S214005B50B4235A465B00011CD0580CF0CFFEC62377
S214005B609B005946C8506F4940460CF0C7FEE423D8
S214005B705A469B00D050291C0DF0C4F9E123594623
S214005B809B00C850C9239B00C85096239B00C95849
S214005B90201C0DF0B7F964490CF0B0FE8123DB0041
S214005BA05A46D05035B03CBC90469946A246AB46C5
S214005BB0F0BD5946CC58FC23CC50D823C858FC21FD
S214005BC089050DF09FF984235A465B00D050079B49
S214005BD0D9680CF093FE211C0DF082FA5C46F02387
S214005BE0E050A823E45880235B005846C450FC21AC
S214005BF0DC23C05889050DF085F9079A86235B00DB
S214005C005946C85011690CF079FE211C0DF068FA4F
