S01200004653464B5F4B4C34365A2E737265632E
S214000000006000207104000099230100992301007C
S21400001099230100992301009923010099230100E7
S21400002099230100992301009923010099230100D7
S21400003099230100992301009923010063580100C8
S21400004063580100635801006358010063580100BB
S21400005063580100635801006358010063580100AB
S214000060635801006358010063580100635801009B
S214000070635801006358010063580100635801008B
S214000080635801006358010063580100635801007B
S214000090635801006358010063580100635801006B
S2140000A0635801006358010063580100635801005B
S2140000B0635801006358010063580100635801004B
S214000400FFFFFFFFFFFFFFFFFFFFFFFF7EFBFFFF7C
S21400041010B5064C2378002B07D1054B002B02D0D5
S214000420044800E000BF0123237010BD80E0FF1FDA
S214000430000000001457010008B5084B002B03D03D
S2140004400748084900E000BF07480368002B03D0B0
S214000450064B002B00D0984708BDC04600000000A1
S2140004601457010084E0FF1F80E0FF1F000000001B
S21400047009480A4908600A490860EFF3088080F3D3
S2140004800988EFF314800221084380F31488BFF331
S2140004906F8F10F0EDFCC046FFFFFFFF80E100E02D
S2140004A080E200E0002934D00123002210B4884204
S2140004B02CD301242407A14204D2814202D209018E
S2140004C01B01F8E7E400A14204D2814202D24900AF
S2140004D05B00F8E7884201D3401A1A434C08A04252
S2140004E002D3001B5C0822438C08A04202D3001BE8
S2140004F09C082243CC08A04202D3001BDC082243FF
S214000500002803D01B0901D00909E3E7101C10BC22
S2140005107047002801D00020C04307B4024802A15B
S2140005204018029003BDC046D90000000029F0D054
S21400053003B5FFF7B9FF0EBC4243891A1847C046F9
S214000540002941D010B4041C4C40A44601230022CC
S214000550002900D54942002800D5404288422CD3C5
S21400056001242407A14204D2814202D209011B01C0
S214000570F8E7E400A14204D2814202D249005B00BF
S214000580F8E7884201D3401A1A434C08A04202D327
S214000590001B5C0822438C08A04202D3001B9C0868
S2140005A02243CC08A04202D3001BDC0822430028CA
S2140005B003D01B0901D00909E3E7101C6446002C90
S2140005C000D5404210BC7047002806D003DB002050
S2140005D0C043400801E08020000607B4024802A19C
S2140005E04018029003BDC046190000000029EBD059
S2140005F003B5FFF7A7FF0EBC4243891A1847C0464B
S2140006007047C0468446101C62468C46191C6346DA
S21400061000E0C0461FB501F0E7FD002801D4002128
S214000620C8421FBD10B501F017FD4042013010BD95
S21400063010B501F0D9FD002801DB002010BD012017
S21400064010BDC04610B501F0CFFD002801DD00202A
S21400065010BD012010BDC04610B501F047FD0028B2
S21400066001DC002010BD012010BDC04610B501F011
S2140006703DFD002801DA002010BD012010BDC04657
S2140006808446081C6146FFE71FB500F037FB0028CC
S21400069001D40021C8421FBD10B500F0BDFA40428B
S2140006A0013010BD10B500F029FB002801DB00204A
S2140006B010BD012010BDC04610B500F01FFB00287D
S2140006C001DD002010BD012010BDC04610B500F0B1
S2140006D0CDFA002801DC002010BD012010BDC04668
S2140006E010B500F0C3FA002801DA002010BD012082
S2140006F010BDC046F8B543024400C50F4E02480080
S214000700240E2A1C9B09000EC90FB6098D425BD029
S214000710221A002A00DC89E000281DD1002E00D015
S21400072075E0580704D00F221A40042A00D004337C
S2140007308021C90419402A1C00293AD00134FF2C14
S21400074000D17FE09B015B0A5B02E4B2E405580A35
S214000750D20720431043F8BDFF2CE2D08021C90405
S2140007600E431B2A00DD2DE1311C2020D140821AC9
S2140007709640721E96410E439B1B5801D1D59B0195
S2140007809F09381C02F0C0F9421F974094425BDC78
S214000790141B1F231B1B3A1C9F40611C3B1CCA409A
S2140007A05F1EBB4113430024BBE7131EB9D10023D1
S2140007B00022DB08FF2C04D1002B43D08020C0038E
S2140007C003435B025B0ABFE7211A002940DD0028CD
S2140007D023D0FF2CA5D08020C00406431B2900DDB3
S2140007E0EEE0301C2027C840791A8E40711E8E41DC
S2140007F006439B19590100D493E70134FF2C55D0CA
S214000800714901221A400B405B08134389E7013AFD
S214000810002AB1D0FF2CA4D183E7002E00D180E7B8
S21400082001390029E5D0FF2CD8D17AE7002A1BD160
S214000830621CD2B2012A4BDD9F1B7A0123D5F71A20
S2140008400D1C9EE700237FE75F4BA41A3B4068E73A
S214000850002946D1611CC8B2012829DDFF2924D011
S214000860F3185B080C1C5CE7002C13D0FF2818D08C
S2140008708024E404524223431B2A4DDD0123F31A4D
S214000880041C0D1C79E7002F00D07AE70023002215
S21400089000248EE7002B3BD0D243002AEFD0FF285F
S2140008A0EAD1331CFF240D1C3BE7FF24002380E71E
S2140008B0002C5CD1002B00D180E0002E00D130E768
S2140008C09B19580100D42CE73F4A0124134028E71F
S2140008D0002C15D1002B40D1002E63D0331C0D1CEC
S2140008E01FE7002C21D1002B54D0C943002904D087
S2140008F0FF284CD01B2958DD01239B19041C79E7DF
S214000900002B19D1002E48D0331C0D1CFF2408E7FD
S214000910331C041C0D1C04E71C1C2025D440AA1AFA
S21400092093405A1E93412343A9E7FF282FD08024E3
S214000930E40449422343DDE7FF24002E00D1F0E61D
S2140009408022DB08D203134204D0F608164201D1F7
S214000950331C0D1CDB00FF24E3E6002E00D1E0E68E
S2140009609A1B500100D420E7F31A0D1CD9E6002B81
S2140009700DD0FF24002E00D1D3E68022DB08D20360
S2140009801342E7D0F6081642E4D1331CE2E7331CE4
S214000990FF24C6E6331C041CC3E6802300229B0407
S2140009A0FF2406E7231C002203E71C1C2027CC405C
S2140009B0791A8B40591E8B4123439EE7331CB0E6C1
S2140009C0012616E70126D7E6FFFFFFFBF0B55F46D8
S2140009D056464D464446F0B446024500C00F85B024
S2140009E00F1C760A2D0E804641D0FF2D26D080247F
S2140009F0240400212643F6007F3D89468B46F90FE6
S214000A007C027800640A000E00918A463CD0FF28DB
S214000A1034D080231B041C430023E4007F3801935A
S214000A20009F4346019A7B4049469C4611430F2946
S214000A3000D971E0764F89007F58BF46002E3ED120
S214000A400822022391469B46D9E75A46341CC246E2
S214000A5001920199022937D0032900D1CFE001295C
S214000A6000D0ABE053460B400022002632E0002EBA
S214000A7019D10421012289469346C0E7221C531E41
S214000A809A4102320192CBE701270197002CC7D08A
S214000A90201C02F039F8431F9C4076235B4200215D
S214000AA0181A0191BCE7301C02F02EF87625431F79
S214000AB09E406D4200232D1A99469B469FE70C23C5
S214000AC0032199468B469AE7D446012367463B4066
S214000AD0FF2200267602D205700ADB071043184371
S214000AE005B03CBC90469946A246AB46F0BD802673
S214000AF00023F603FF22EDE700220026EAE7802027
S214000B00C00306423BD0044239D1061C2643760277
S214000B10760A009BFF22DDE7281A0390760164011F
S214000B20A64239D3361B1A2201230120311C5B0052
S214000B307600002901DBB44201D8361B0343013A94
S214000B40002AF3DC741EA641341C1C43039A7F3231
S214000B50002A27DD630704D00F232340042B00D090
S214000B600434270103D52B4B039A1C408032FE2AFF
S214000B700BDD012361460B40FF220026AAE7064351
S214000B807602760A4346FF22A4E7A40101236746BD
S214000B90660AD2B23B409DE7039F1B22013F0397A4
S214000BA00023C2E77E23039F5B42DB1B1B2B07DD74
S214000BB0012361460B40002200268BE7D446C5E79A
S214000BC0221CDA40039B9E339C40231C5C1EA341E0
S214000BD013435A0704D00F221A40042A00D00433C5
S214000BE05F0105D5012361460B400122002671E70F
S214000BF09E01624601231340760A00226AE7802699
S214000C00F60326437602760A5346FF2262E7C0467C
S214000C10804F0100FFFFFFF74A02430270B55C0AEF
S214000C20550A43004A001B0EC60F120EC90FFF2BB3
S214000C3005D0FF2A08D0012093420BD070BD0120BA
S214000C40002CFBD1FF2AF6D10120002DF6D1012081
S214000C509342F3D1AC42F1D18E4205D0002BEDD1B8
S214000C60201C441EA041E9E70020E7E74A024302B1
S214000C70F0B55C0A550A43004A001B0EC60F120E5A
S214000C80C90FFF2B31D0FF2A34D0002B16D160427B
S214000C9060418446002A14D0002820D18E4217D105
S214000CA0934215DC04DBAC4212D80020AC4212D2D0
S214000CB0704270414042012318430CE0002AEDD1F7
S214000CC094466F426F416046002805D1002FE5D05C
S214000CD0704201231843F0BD0020002FFBD148428C
S214000CE04841404201231843F5E7002CCBD00220B0
S214000CF04042F0E7002DC8D0F9E7C0464A0243025A
S214000D00F0B55C0A550A43004A001B0EC60F120EC9
S214000D10C90FFF2B27D0FF2A29D0002B10D0002A7E
S214000D2015D194466F426F416046002815D00020CA
S214000D30002F04D148424841404201231843F0BDE9
S214000D40604260418446002AECD00028F2D18E42F0
S214000D5011D0704201231843F1E7002FF7D07042FC
S214000D6001231843EBE70220002CE8D1D3E702204A
S214000D70002DE4D1D1E79342EBDC04DBAC42E8D8AB
S214000D800020AC42DBD2704270414042012318433F
S214000D90D5E7C046F0B55F4656464D464446F0B4E5
S214000DA04402460083B00F1C640A360EC50F002EA0
S214000DB041D0FF2E22D080231B0400201C43E400D9
S214000DC07F3E82468046391C4B007F02C90F7F0A51
S214000DD01B0E8B463BD0FF2B34D0802212041743C9
S214000DE0FF007F3B00215A466A40019252460A4362
S214000DF00F2A63D87A48920082589746002C3FD133
S214000E000822022392469846DDE7019540460228CE
S214000E102AD1019A01251540FF2300246402DB0530
S214000E20600AED071843284303B03CBC9046994639
S214000E30A246AB46F0BD002C27D1042001228246F4
S214000E409046C0E7391C4A1E91410231CBE701218A
S214000E50002FC8D0381C01F057FE431F9F40762352
S214000E605B421B1A0021BEE7032800D1AEE0012832
S214000E704FD1019842461040C5B200230024CDE76A
S214000E800C2303209A4680469DE7201C01F03CFE7A
S214000E907626431F9C4076420023361A9A4698468A
S214000EA091E780240025E403FF23B7E75B463C1C5C
S214000EB001938846AAE73C1C8846A7E7250C24042D
S214000EC03A0C240C3F04F6183F0C211C231C7943D3
S214000ED053436F435543FB180A0C9B18B1469F4279
S214000EE002D980225202AD1809041A04090C5218BD
S214000EF094011B0C611E8C41920EED181443AD013B
S214000F002C43230105D501226308012014408144A7
S214000F101C434B467F33002B2DDD600704D00F2289
S214000F202240042A00D00434220103D52D4B1C4055
S214000F304B468033FE2B17DD019B01251D40002408
S214000F40FF236BE78020C003044208D0074206D187
S214000F50041C3C436402640A5D46FF235EE70443C8
S214000F606402640AFF2359E70198A4010125640A74
S214000F70DBB2054052E77E235B424A469B1A1B2B98
S214000F8005DD019B01251D400024002346E7221CA9
S214000F90DA404B469E339C40231C5C1EA341134301
S214000FA0580704D00F221A40042A00D004335A01EE
S214000FB005D5019B01251D40002401232EE701983D
S214000FC09C010125640A0540002327E78027FF03CC
S214000FD0019B3C43640201251D40640AFF231DE774
S214000FE0C04F0100FFFFFFF7F8B5C20F43024400F1
S214000FF04D024800240E161C9B09000EC90FAD09B1
S214001000FF2800D183E0012779408A425CD0221A6B
S214001010002A00DC8EE000281ED1002D00D07AE0E9
S214001020580704D00F221A40042A00D00433802127
S214001030C90401221940324000293AD00134FF2C5D
S21400104000D183E09B015B0A5B02E4B2E405580A28
S214001050D20720431043F8BDFF2CE1D08021C904FD
S2140010600D431B2A00DD31E1291C2020D140821AC5
S21400107095406A1E95410D435B1B5801D0D59B01D8
S2140010809F09381C01F040FD421F974094425FDCE8
S214001090141B1F231B1B3A1C9F40611C3B1CCA4091
S2140010A05F1EBB4113430024BAE7131EB8D10023CA
S2140010B00022DB08FF2C04D1002B47D08020C00381
S2140010C003435B025B0ABFE7211A002944DD0028C0
S2140010D027D0FF2CA4D08020C00405431B2900DDA8
S2140010E0F2E0281C2027C840791A8D40691E8D41E1
S2140010F005435B19590100D492E70134FF2C59D0FF
S214001100734901221A400B405B08134388E7002D01
S21400111000D07AE777E7013A002AADD0FF2CA0D1BD
S2140011207EE7002D00D17BE701390029E1D0FF2CB6
S214001130D4D175E7002A1BD1621CD2B2012A4BDD3E
S2140011405F1B7A0123D5EF1A0E1C9AE700237BE774
S2140011505F4BA41A3B4063E7002946D1611CC8B226
S214001160012829DDFF2924D0EB185B080C1C57E763
S214001170002C13D0FF2818D08024E40452422343C6
S2140011801B2A4DDD0123EB1A041C0E1C75E7002FED
S21400119000D076E70023002200248AE7002B3BD00D
S2140011A0D243002AEFD0FF28EAD12B1CFF240E1CC6
S2140011B036E7FF2400237CE7002C5CD1002B00D10F
S2140011C080E0002D00D12BE75B19580100D427E7FB
S2140011D03F4A0124134023E7002C15D1002B40D1B1
S2140011E0002D63D02B1C0E1C1AE7002C21D1002BDF
S2140011F054D0C943002904D0FF284CD01B2958DD01
S21400120001235B19041C75E7002B19D1002D48D06B
S2140012102B1C0E1CFF2403E72B1C041C0E1CFFE6D5
S2140012201C1C2026D440B21A93405A1E93412343D6
S214001230A9E7FF282FD08024E40449422343DDE7B2
S214001240FF24002D00D1EBE68022DB08D2031342F8
S21400125004D0ED08154201D12B1C0E1CDB00FF2428
S214001260DEE6002D00D1DBE65A1B500100D41CE759
S214001270EB1A0E1CD4E6002B0DD0FF24002D00D157
S214001280CEE68022DB08D2031342E7D0ED081542F3
S214001290E4D12B1CE2E72B1CFF24C1E62B1C041C0C
S2140012A0BEE6802300229B04FF2402E7231C0022C4
S2140012B0FFE61C1C2027CC40791A8B40591E8B4118
S2140012C023439EE72B1CABE6012512E70125D3E658
S2140012D0FFFFFFFB4302590A4300C20F1B0E00200C
S2140012E07E2B0DDD9D2B0CDC802000040143952B0E
S2140012F00ADC9620C31AD9404842002A00D1081CAE
S2140013007047034BD018FBE7963B9940F4E7C0467E
S214001310FFFFFF7F70B5041E3CD0C60F00D04442CE
S214001320201C01F0F1FB9E23251C1B1A962B0CDCBF
S214001330083884406402640ADBB2321C6402DB05AF
S214001340600AD2071843104370BD992B0ADD0522A8
S214001350121A211CD1400A1C011C1B318D40691E2B
S2140013608D411543052801DD421F9540164C2C4043
S2140013706A0704D00F221540042D00D00434610102
S2140013800CD59F23181AFF281AD0A401640AC3B2EA
S214001390321CD3E7002200230024CFE7E408FF2B0B
S2140013A004D06402640ADBB2321CC7E7002C04D007
S2140013B08020C00304436402640A321CFF23BDE796
S2140013C0321CFF230024B9E7FFFFFFFBF8B55F469A
S2140013D0564644464D46F0B40C034D00CE0F610A07
S2140013E0440F2143C400180380465800400D82462F
S2140013F0D80F84464046400A530F0343D0006D0D75
S214001400371C83465246664500D1A4E0AF1A002F2B
S21400141000DC09E1002A3BD1184300D0EAE063076C
S21400142000D187E00F232340042B00D182E0221D49
S214001430A242A4416442802309191B040B40371CB6
S214001440141C002B00D17CE0CE4B01359D4200D110
S21400145005E1CD4BE40819404807490204430B0B4D
S214001460002000211B031A0B0B0D6D051B051343F3
S2140014706A08C64DFF071D4015436D006D08291C00
S2140014803943201C3CBC90469946A246AB46F8BD64
S214001490BC488542C3D0802000040343382F00DDBB
S2140014A0F0E01F2F00DD24E12020C01B1A1C81461F
S2140014B082405846F8400243944658464A46904072
S2140014C0421E9041FB40624602431F1CA21A9442F1
S2140014D0A4416442C91B091B141C0B029FD5490278
S2140014E04F0A002F00D1C8E0381C01F00DFB021C8B
S2140014F0083A1F2A00DDB5E02821091A201C97406B
S214001500C84007439440954200DDB2E0551B691C75
S2140015101F2900DDDCE01F22551B3B1C221CAB40B4
S214001520CA40AC40651EAC411343CF401C43391C37
S214001530002574E780231B040B40371C002B00D0CB
S21400154082E7904B4807E4080443C9089D4248D008
S21400155009030B0B84E7AA1A9446002A00DC98E0DD
S2140015605046002852D08748854200D157E7802051
S214001570000403436246382A00DDFCE01F2A00DD33
S2140015804AE120226046101A1A1C82408246914682
S21400159058466246D0404A4602439046584652460F
S2140015A09040421E9041424602436046C340121994
S2140015B0A242A441644259180919141C080200D416
S2140015C02DE7704B01359D4200D122E16E4B60083D
S2140015D01940012323401C1C0443CB071C43490825
S2140015E01DE7231C0B433AD080231B030B431B032E
S2140015F01B0B35E7013F002F65D15846221A94424F
S214001600A4416442C91A091B141C66E758461843CD
S21400161000D104E70122524294446046002800D0DC
S214001620C5E058460219C3E7002F73D1681C400571
S214001630400D012800DCDEE05A46A21A9442BF4163
S214001640C81A7F42C71B380200D489E05A46141BCA
S214001650A3459241591A52428F1A664641E7002323
S2140016600024FDE6271C283887400024954200DC2D
S2140016704CE74549AD1A3940D1E6201C01F044FA42
S214001680203034E75A461A43531E9A41D2B20027F6
S2140016901CE7002A00D0DCE0681C4205520D012A37
S2140016A000DC8DE0374DA84200D1F3E05D462A19F4
S2140016B0A242A441644259180919CC07520814439F
S2140016C04908051CABE62F48854200D0E6E6A6E6AC
S2140016D02B1C1F3B3A1CDA40131C20296CD03F22DF
S2140016E0551BAF403C43601E84411C43002100252F
S2140016F095E6381C20381A1CC240101C202F5DD0DE
S2140017004022D71BBB405A461A43531E9A410243F7
S2140017100027DBE6002D3BD01A4DAA4500D193E00A
S21400172080252D047F422943382F00DDACE01F2F93
S21400173000DD29E12025ED1B081C261CA840FE40E4
S214001740AC400643651EAC413443F9405D462C1B55
S214001750A34592415B1A5242991A55466646BCE624
S214001760131C3B43141C002B00D0BAE600270021B4
S21400177000250024E5E65A461A43531E9A41D2B283
S214001780002314E7FF070000FFFF7FFFFFFF0F8027
S2140017900D1C254358D0FF43002F51D1041BA345F1
S2140017A09241591A5242891A5546664695E6964817
S2140017B0854200D0DEE632E6002793E70023A2E764
S2140017C0081C2043002D00D0C4E0002800D1F7E01C
S2140017D05846184300D122E658460219A242A441B0
S2140017E0644259180919141C0A0200D417E6874BDC
S2140017F00125194013E6081C2043002D39D1002886
S21400180071D15946194303D0191C5C46664606E654
S21400181000270021002494E6604620381A1CC240A7
S21400182060469146202800D1ACE04022121A934030
S2140018305A461A43531E9A414B461A430023B6E6AD
S214001840714DAA4500D06FE7191C5C4655466646A2
S214001850E5E5002D22D10D1C254377D0D543002D7C
S21400186071D15C445C4592415918524289185546DC
S214001870A4E600284DD15946194300D194E0191C1E
S2140018805C466646604DCAE50C43611E8C41E4B278
S21400189000215BE7051C0021002452E65A4DAA45AC
S2140018A054D05542802210040143382D00DD81E0DB
S2140018B01F2D00DD92E02022501B0A1C8446824029
S2140018C0201CE8400243904662469440601E8441D5
S2140018D042461443E9405C445C459241CB18524270
S2140018E0991855466AE65846184300D197E5584673
S2140018F0271ABC429241C81A5242801A020266D582
S2140019005846041BA3459241591A5242891A664604
S21400191085E55846184333D04807E408044380203A
S214001920C9080003014208D0DD08054205D1594622
S214001930CA085C071443291C6646630FC90019438E
S214001940E400314D6BE5304A9245AED1191C5C4639
S214001950554664E5002836D05846184310D08025F2
S2140019604807E408C9082D0304432942E5D0D808EF
S2140019702842E2D15D46EA085C071443011CDCE716
S214001980214D4CE5002353E73D1C203D0A1CEA4050
S214001990151C202F34D04026F71BB9400C43611E7F
S2140019A08C412C430021D1E680210027C903164D27
S2140019B00024C6E50C43611E8C41E4B200218AE790
S2140019C0191C5C462BE5191C5C460F4D27E5031CCD
S2140019D03B4300D11CE7011C3C1C20E52020404274
S2140019E040190A1CC2409046202D0BD04020451BB3
S2140019F0A9400C43611E8C4145462C4300216AE7F2
S214001A000021CBE70021F4E7FF070000FFFF7FFF80
S214001A10F0B5564644465F464D46F0B41F1C0B03D1
S214001A201B0B98464B0087B0041C81465B0DC80F05
S214001A30161C9A460090002B51D06A4B9A4531D01E
S214001A408022414652030A43630FD2001A43664B74
S214001A5090460025E20091469A44002402953B03F6
S214001A601B0B9B46FD0F7B00311C5B0D019560D068
S214001A705C4A934254D08021584649030143720F72
S214001A80C9001143584A8B469B18F1000020009A63
S214001A9004436A4003920F2C00D9ADE0534EA400D5
S214001AA03459A746404604436ED100210225082437
S214001AB0884689460295D2E7009C0298C346494666
S214001AC00194022864D0032800D1ABE2012800D09C
S214001AD038E2019A002402400025A14660E0434611
S214001AE023434AD04046002800D1C0E101F00CF85C
S214001AF0031E272B00DDB3E128210D1A211C083B0D
S214001B004246E9409A400D1C1543221C9A40A846BE
S214001B109146374B00251B1A9A46002402959EE7ED
S214001B205A4616430320002EB1D1B34600210220A8
S214001B30ADE75A4632431BD05B46002B00D18AE104
S214001B40584600F0E1FF272800DD7DE12822171A1D
S214001B50011C321C08395B46FA408B40171C1F4399
S214001B60331C8B40BB46191C214B1B1A00208EE7EA
S214001B700027BB460021012089E700200125042418
S214001B808046814602956AE703250C24029566E79F
S214001B90019C0394039D01222A400024114DA14676
S214001BA0002000212403260B0C0D2405114B344382
S214001BB02D0523402B435B005B08D207191C4846C3
S214001BC0114307B03CBC90469946A246AB46F0BDD2
S214001BD00022802424039146024DE1E700240025DC
S214001BE0A146DDE7FF07000001FCFFFF00500100F3
S214001BF00DFCFFFFFFFF0F805546ED1A0495D845F4
S214001C0000D953E100D14EE1049C0025013C4E462C
S214001C1004944746A946584603020C0E1C43090284
S214001C20250C23041B0C0091381C291C0193FEF77D
S214001C3039FC019983464143381C8A46291CFEF725
S214001C4075FC330C090419438A450CD95B460919FF
S214001C50013B8C4200D947E18A4500D844E1022284
S214001C605242934409195346CB1A181C291C98460D
S214001C70FEF718FC071C0198291C7843824640464C
S214001C80FEF754FC36040B04360C33439A4509D948
S214001C901B197A1E9C4200D924E19A4500D821E1FE
S214001CA0023F1B195E4632041743380CBB46009EA3
S214001CB0009F51463F0C32045B1A5946BA46120C36
S214001CC00F043F0C904651467A434F4341464143EA
S214001CD056467043CF19160CBE19B14202D980275A
S214001CE07F02C019310C12043604120C4018B618C4
S214001CF0834200D2C4E000D1BEE0191A4846861BD3
S214001D00B145BF417F42CF1BA74200D113E1291C3A
S214001D10381CFEF7C7FB019902904143381C8946E0
S214001D20291CFEF703FC330C0904194389450CD91A
S214001D30029B0919013B8C4200D9FFE0894500D877
S214001D40FCE0029F0919023F02974F46CF1B381C42
S214001D50291C0597FEF7A6FB071C0198291C78434B
S214001D6081460598FEF7E2FB36040904360C0E435E
S214001D70B14509D936197B1EB44200D9E0E0B14519
S214001D8000D8DDE0023F3619029D4946761A29043E
S214001D9039430B0457460A0C1B0C4046454658432D
S214001DA055437B437A43EB18070CDB199D4202D957
S214001DB080256D0252191D0C00041B04000C5219DC
S214001DC01B18964235D300D1FCE001231943049E2C
S214001DD0994FF519002D00DCA1E0480709D00F2324
S214001DE00B40042B05D00B1D8B42894149428B4486
S214001DF0191C5A46D20107D5904B5C46049E802794
S214001E001C40FF00A346F5198D4B9D427ADD039CCE
S214001E100122224000248B4DA146C1E680242403E3
S214001E20474627424CD13C432403240B009A854D59
S214001E30B6E63619481EB4425ED9011C9642C4D195
S214001E40009E9E42C1D1C2E7031C283B311C99402C
S214001E508B46002188E6301C00F056FE203072E6E5
S214001E60283B211C994000228846914651E6201CBA
S214001E7000F04AFE20303BE60021B14500D33DE7A6
S214001E80009F5A46B944B945BF417F423F19FB18E7
S214001E90013A9C421ED2984200D97EE000D1B5E0BD
S214001EA0191A93462AE7894500D8ADE648464646BD
S214001EB042467708D3074608C0071E438146AAE66F
S214001EC05846204212D1044324032A1C240B894678
S214001ED05C4D65E6A342E3D1009F4F45DBD9211A4E
S214001EE093460BE7171CDDE69B46BCE63C43240303
S214001EF0240B009A534D53E6B24259D800D18AE0DB
S214001F00011C62E75F46C9087B07039E0B437C0201
S214001F106D0501229946240B6D0D324040E64A4B72
S214001F20049FDB1B382B10DD039C0122224000247B
S214001F300025A14634E60121494248E7029304E71A
S214001F401F1C21E7019C039441E71F2B40DC3F4800
S214001F50049F0C1C3A1858469140DC4090402043A1
S214001F600A1C511E8A41011C11435A46DA40131CB2
S214001F70480709D00F220A40042A05D00A1D8A42C3
S214001F80894149425B18111C1A0234D5039C012270
S214001F90224000240125A14602E6009F0221494274
S214001FA0B9448B44B945894149420919CB18A4E67E
S214001FB0009D881E6900A942AD416D422C19361954
S214001FC000913AE7002B00D033E70024009437E76F
S214001FD01F4A049C5D46121BD5402A1C202B1FD08E
S214001FE01C4E5F46A3199F403B1C19434B1E99414C
S214001FF011430023BCE75A07C9080A43039F9146CA
S2140020005B0201221C0B3A400025C9E54E45C4D8A8
S2140020109346002172E6009F9F42C9D3011C0FE73A
S2140020200023E2E7802424035F463C432403240B7A
S214002030019A8946034DB3E5FF030000FFFFFFFE4C
S214002040FE070000FF07000002FCFFFF1E04000062
S214002050E2FBFFFF3E040000F0B55F4656464D46E5
S2140020604446F0B40D1C041C8046E80F8146180355
S2140020700F03000B3F0B83B084461B4800974900B4
S2140020805E00DF0F490D9246760DBB4681420CD0AE
S2140020901548864210D00120B14215D003B03CBC92
S2140020A090469946A246AB46F0BD009F01202743C6
S2140020B0F4D10D488642EED1604602430120002A44
S2140020C0ECD10120B142E9D1009B6345E6D1D04571
S2140020D0E4D1D94506D00029E0D11C43201C441E7B
S2140020E0A041DBE70020D9E7FF070000F0B55F4618
S2140020F056464D464446F0B4CD0FDE0FAC461D03A3
S2140021002D0BB146374E0F034C00AB465D008046A4
S2140021103F0B640D92466D0DB44232D0314EB5423F
S21400212035D0002C0ED1384341424141081C002DC9
S2140021300BD0002919D1CC452DD065466842012325
S214002140184318E0002DF6D1281C59460A4353427E
S2140021505341002806D1002BEDD063465842012398
S214002160184308E00020002B05D14A465042504153
S2140021704042012318433CBC90469946A246AB46D3
S214002180F0BD3E1C0643C9D002204042F3E75E463F
S2140021901643C6D0F8E7AC4207DC0BDA6146484285
S2140021A04841404201231843E5E766467042012352
S2140021B01843E0E75F450AD80ED000205F45DAD224
S2140021C0654668426841404201231843D3E76246A9
S2140021D0504201231843CEE7D045F8D80020D0451A
S2140021E0EED3C8E7FF070000F0B556464D46444616
S2140021F05F46F0B40D1C83B0041C0190E80F8146C6
S21400220018030F03000B3F0B844635480097490020
S2140022105E00DF0F490D9246760DB846814234D0F7
S2140022202F48864236D0002918D0002E1FD1341CE5
S21400223067463A4353425341002C1FD00020002BE0
S21400224005D142465042504140420123184303B054
S2140022503CBC90469946A246AB46F0BD0098044367
S21400226060426041041C002EE2D00028E9D1C1453E
S21400227015D04F46784201231843E8E7002BF6D0E6
S2140022804B46584201231843E1E7009F02202743AC
S214002290DDD1C5E7674602201743D8D1C3E7B14270
S2140022A004DD4A46504201231843D0E7B14207DB1B
S2140022B000986045E4D80AD0009F00206745C6D243
S2140022C04F4678427841404201231843BFE7019ABF
S2140022D05245D5D8019A00205245F1D3B7E7C046FB
S2140022E0FF070000F8B55F46564644464D46F0B434
S2140022F00C034D00CF0F610A440F2143C40018039E
S214002300DE0F8046B44646465800760A530F3343DF
S214002310D600D14A6D0DBA46400DB346904200D164
S214002320F5E06246012672409446674500D1ABE070
S2140023302F1A002F00DC11E100283ED15846184322
S21400234000D0F1E0600700D197E00F232340042B74
S21400235000D122E1221DA242A44164428023091931
S2140023601B04012750460B400740141C002B00D1CD
S21400237079E0B94B01359D4200D10BE1B74BE4083B
S21400238019404807490204430B0B002000211B0399
S2140023901A0B0B0D6D051B0513436A08B04DFF079E
S2140023A01D4015436D006D08291C3943201C3CBC9C
S2140023B090469946A246AB46F8BDA7488542C1D08E
S2140023C0802000040343382F00DDFDE01F2F00DDD2
S2140023D031E12020C01B1A1C5E468240FE4032437C
S2140023E094465A468240101C421E9041FB4062466C
S2140023F002431F1CA21A9442A4416442C91B091B33
S214002400141C0A029ED549024F0A002F00D1D6E0BE
S214002410381C00F079FB021C083A1F2A00DDC3E0D6
S2140024202821231C091A9740CB401F43944095420D
S21400243000DDC0E0551B691C1F2900DDEAE01F22F5
S214002440551B3B1C221CAB40CA40AC40651EAC4131
S2140024501343CF401C43391C002573E780217E4D73
S2140024600027C90300247C4B4807E4080443C90836
S2140024709D4250D009030B0B87E780231B040127DE
S21400248052460B40174071E72A1A9446002A00DC91
S214002490A1E0002854D07048854200D152E7802041
S2140024A0000403436046382800DD0EE11F2800DDE7
S2140024B057E162462020801A1E1C8640B1465E46C2
S2140024C0D6404A4632435E4686409046301C421E00
S2140024D09041424602436046C3401219A242A441BC
S2140024E0644259180919141C080200D42AE75A4BEA
S2140024F001359D4200D131E1584B60081940012357
S21400250023401C1C0443CB071C4349081AE71E4300
S21400251000D00AE705E7231C0B433BD080231B03B0
S2140025200B431B031B0B30E7013F002F6DD15E46AC
S214002530A21B9442A4416442C91A091B141C60E7FA
S2140025405846184300D1FDE601267642B44460465C
S214002550002800D0D0E05E463219BFE7002F00D03A
S21400256080E0681C4005400D012800DCE8E05A4683
S214002570A21A9442BF41C81A7F42C71B3E0200D42B
S21400258098E05846041BA3459241591A52428F1AA6
S214002590E2463AE700230024F7E680231B040127DF
S2140025A056460B403740E1E6271C28388740002473
S2140025B0954200DC3EE72949AD1A3940C2E6201CA8
S2140025C000F0A2FA203026E75A461A43531E9A41D4
S2140025D0D2B200270EE7002A00D0DEE0681C4605CF
S2140025E0760D012E00DC90E01B4DA84200D1F5E0F0
S2140025F05E463219A242A441644259180919CC0712
S214002600520814434908051C9CE61348854200D02E
S214002610D9E697E62B1C1F3B3E1CDE40331C2029C8
S2140026206FD03F22551BAF403C43601E84411C4385
S2140026300021002586E6381C20381E1CC640301CAB
S214002640202F60D04022D71BBB405A461A43531E49
S2140026509A4102430027CDE6FF070000FFFF7FFFF9
S214002660FFFF0F80002D37D0B64DA84200D18FE077
S21400267080252D047F422943382F00DDA8E01F2F38
S21400268000DD24E12025ED1B0E1CAE40B046261CC6
S214002690FE404246AC401643651EAC413443F9400A
S2140026A05A46141BA34592415B1A5242991A051CBE
S2140026B0E246A6E6131C3B43141C002B00D0A4E6FF
S2140026C00027002100250024CDE65A461A43531E53
S2140026D09A41D2B2002300E70D1C254358D0FF4391
S2140026E0002F51D15A46141BA3459241591A524203
S2140026F0891A051CE24684E69248854200D0D1E657
S21400270020E6002790E700239FE7081C2043002DC3
S21400271000D0C2E0002800D1EFE05846184300D1B0
S21400272010E658460219A242A441644259180919F3
S214002730141C0A0200D405E6834B0125194001E665
S214002740081C2043002D38D100286FD15946194364
S21400275003D0191C5C46E246F4E50027002100245D
S21400276081E6604620381A1CC2406646101C202EA1
S21400277000D1AAE04022921B93405A461A43531EA9
S2140027809A4102430023A8E66E4DA84200D073E7A4
S214002790191C5C46051CE246D4E5002D22D10D1C12
S2140027A0254376D0D543002D70D15C445C459241DC
S2140027B0591852428918051C96E600284CD15946ED
S2140027C0194300D14AE6191C5C46E2465D4DB9E560
S2140027D00C43611E8C41E4B2002161E7051C002118
S2140027E0002440E6574DA84253D055428022160496
S2140027F03143382D7BDC1F2D00DD8CE02022561B5C
S2140028000A1CB446B240261CEE403243904662464E
S2140028109440661EB44142461443E9405C445C451D
S2140028209241CB1852429918051C5DE6584618434B
S21400283000D187E55E46A71BBC429241C81A5242A9
S214002840801A060260D55846041BA3459241591AC1
S2140028505242891AE24675E55846184333D048076F
S214002860E40804438020C9080003014208D0DD08BC
S214002870054205D15946CA085C071443291CE2469E
S214002880630FC9001943E4002E4D5BE52D4A9042C4
S214002890AFD1191C5C46051C54E5002830D05846BC
S2140028A0184310D080254807E408C9082D030443C0
S2140028B02942E5D0D8082842E2D15D46EA085C07FE
S2140028C01443011CDCE71F4D3CE5002355E73D1C87
S2140028D0203D0E1CEE40351C202F2ED04026F71B28
S2140028E0B9400C43611E8C412C430021D8E60C43B2
S2140028F0611E8C41E4B2002190E7191C5C4621E57C
S214002900191C5C460F4D1DE5031C3B4300D124E714
S214002910011C3C1C16E52026764276190A1CF2405D
S2140029209046202D0BD04026751BA9400C43611EF7
S2140029308C4145462C43002170E70021D1E7002159
S214002940F4E7C046FF070000FFFF7FFF43001B0EB3
S2140029505A1C4102D2B270B54C0AC50F012A17DDC7
S214002960E02292006407090B9818002200231E0D2F
S214002970221C34050C431B494005400821400143F6
S21400298049004908ED070B1C2B43101C191C70BD91
S214002990002B15D1002C1CD0201C00F0B5F80A28FE
S2140029A01ADC0B21091A231CCB40191C031C1533F7
S2140029B09C400D4B0903181A4005090B400DD4E73F
S2140029C0002C03D06407090B0848CEE7074800210F
S2140029D0CBE700200021C8E7011C0B398C40211CE6
S2140029E00024E6E7FFFF0F8089030000FF070000D2
S2140029F0F0B54B000D03420F5B0D6D0A15435A1CD4
S214002A005205CC0FC600520D012A27DD394FDA19C0
S214002A10FE2A1ADC002A35DD8001ED00431E9841AF
S214002A202843760F3043430704D00F230340042B7C
S214002A3000D004308021C904014027D00132FF2A8B
S214002A401DD083015B0AD1B201E0FF2100235802AA
S214002A50C905400AE40708432043F0BD002B06D111
S214002A60354311D10021002043025B0AEFE72E43D5
S214002A70EBD08020ED0080042843FF22D3E7FF211F
S214002A800023E4E717320DDA05200022C008D1B291
S214002A90FF2AE9D10028D9D08023DB0303435B0259
S214002AA05B0AD4E78022144912041543C91A1F2969
S214002AB00DDC124A371C9B18281C9F4098403B1C74
S214002AC05A1E93411843CE4030430022ABE70C4FCA
S214002AD02A1CFF1AFA40171C202909D0094A981800
S214002AE08540281C3043461EB041384300229AE7F2
S214002AF00020F7E780FCFFFF9E03000082FCFFFF3C
S214002B007E030000A2FCFFFF1C2101231B04984249
S214002B1001D3000C10391B0A984201D3000A083969
S214002B201B09984201D30009043902A2105C401820
S214002B307047C046040302020101010100000000C4
S214002B400000000008B505486C23C35A026F012137
S214002B509B1803670EF040FC08BDC04694E2FF1FBA
S214002B607047C046034A7423D05C01210143D15408
S214002B707047C04694E2FF1F034A7423D05C0221CC
S214002B800143D1547047C04694E2FF1F7047C046C9
S214002B90F8B5594A44465F4656464D46F0B4506925
S214002BA0904610F013FA03B2002B00DCA2E0534B61
S214002BB0534F544C461E9B46534B7D1CB6B2E17891
S214002BC03A1CAE1999469A466078A378207000029F
S214002BD06370C3181B0212785B18A1701B024B4966
S214002BE09B18E2708B425BD029DC49498B4260D04F
S214002BF04BDC48498B4200D17AE047498B4200D1F2
S214002C0074E046498B4205D0111C2A1EB2420AD0F7
S214002C100135D9E701223C4B7E21DA707E23E37032
S214002C202A1EB242F4D14346391C5869012210F0DC
S214002C3093F93CBC90469946A246AB46F8BD384947
S214002C408B4248D00FDC37498B424DD036498B42F9
S214002C5048D036498B42D7D103222B4B7E211A719E
S214002C607E23E370D1E732498B422DD031498B4227
S214002C7018D031498B42C7D10DF0D8FC00235A46F4
S214002C8013677E23E3707E21BFE72C498B4219D061
S214002C902B498B4214D02B498B42B5D10022DCE75E
S214002CA00422DAE700234A4613707E23E3707E216F
S214002CB0ABE70022144B7E215A707E23E370A4E714
S214002CC00122CAE70222C8E70123524613707E2378
S214002CD0E3707E2199E700220B4B7E219A707E23BB
S214002CE0E37092E70122F7E70522B6E70122E1E763
S214002CF0002290E7024F96E708E1FF1F94E2FF1FCD
S214002D0074E2FF1F70E1FF1F10E3FF1F47413651BB
S214002D10202D42442D544C41202B42442B544C41F0
S214002D202D435052202039512B435052414D36519D
S214002D30202B4756202D47562054535220473351B8
S214002D40204D335120203351FE21F8B58905041C4F
S214002D50FDF7C6FC002801D04748F8BD201C4749AF
S214002D60FDF7AAFC00286AD1211C201CFEF712F8E9
S214002D70011CFE208005FEF737F910F089FB011CC8
S214002D80201CFDF723FE0021041CFDF78BFC00260B
S214002D9000284DD1FE21201C8905FDF797FC002850
S214002DA04BD0FE20211C8005FDF710FE0125041CDB
S214002DB0201C3349FDF78AFC002842D0201C3149EC
S214002DC0FEF712F92F49071C201CFDF7E3FFFE2132
S214002DD08905FDF78FFC011C381CFDF7F7FD041C68
S214002DE0211CFDF7D7FF2849071CFDF7D3FF27490D
S214002DF0FDF780FC011C201CFDF7CCFF2449041CB9
S214002E00381CFDF777FC011C201CFDF7DFFD21496F
S214002E10FDF770FC011C002D03D01748FEF7E4F800
S214002E20011C002E02D080231B06C918081C94E73C
S214002E3080231B06E4180126ACE70025B8E71648F1
S214002E408BE7211C201CFDF7A5FF0F49071CFDF78B
S214002E50A1FF0E49FDF74EFC011C201CFDF79AFF52
S214002E600B49041C381CFDF745FC011C201CFDF713
S214002E70ADFD011CCFE7C0460000B442000080BF95
S214002E80A330893E3ACD133F0EB2C841EE49C14247
S214002E90DCE7D73F0000F0410000B4C2FE21F8B5E1
S214002EA08905041CFDF71CFC002801D00020F8BD95
S214002EB0201C9149FDF700FC002873D1201C00213E
S214002EC0FDF7EAFB00286BD1201C0021FDF7FEFB76
S214002ED0002869D0211C201CFDF75CFF011CFE2089
S214002EE08005FEF781F810F0D3FA211CFDF76EFD81
S214002EF00021041CFDF7D6FB0026002800D0F4E0D5
S214002F00FE21201C8905FDF7E1FB002800D1F1E039
S214002F10FE20211C8005FDF759FD0125041C201C00
S214002F207649FDF7D3FB002800D1A3E0201C7449A6
S214002F30FEF75AF87249071C201CFDF72BFFFE21EE
S214002F408905FDF7D7FB011C381CFDF73FFD041C67
S214002F50211CFDF71FFF6B49071CFDF71BFF6A4985
S214002F60FDF7C8FB011C201CFDF714FF6749041C75
S214002F70381CFDF7BFFB011C201CFDF727FD64492C
S214002F80FDF7B8FB011C002D03D06248FEF72CF8B5
S214002F90011C002E02D080231B06C918081C86E7D9
S214002FA05C4884E75C4882E7211C201CFDF7F2FEA3
S214002FB0011CFE208005FEF717F810F069FA211CA8
S214002FC0FDF704FD0021041CFDF76CFB002600281D
S214002FD06AD1FE21201C8905FDF778FB002868D001
S214002FE0FE20211C8005FDF7F1FC0125041C201C99
S214002FF04249FDF76BFB00285DD0201C4049FDF7D9
S214003000F3FF3F49071C201CFDF7C4FEFE2189057F
S214003010FDF770FB011C381CFDF7D8FC041C211CB6
S214003020FDF7B8FE3749071CFDF7B4FE3649FDF735
S21400303061FB011C201CFDF7ADFE3449041C381C46
S214003040FDF758FB011C201CFDF7C0FC3049FDF7BE
S21400305051FB011C002D03D02E48FDF7C5FF011CB7
S214003060002E02D080231B06C918081C2A49FDF72B
S21400307041FB1CE7211C201CFDF78CFE2149071C88
S214003080FDF788FE2049FDF735FB011C201CFDF7E7
S21400309081FE1E49041C381CFDF72CFB011C201C5D
S2140030A0FDF794FC011C6EE780231B06E41801263E
S2140030B08FE700259BE7211C201CFDF76BFE1149BE
S2140030C0071CFDF767FE1049FDF714FB011C201CCA
S2140030D0FDF760FE0D49041C381CFDF70BFB011CB8
S2140030E0201CFDF773FC011CB4E780231B06E418C4
S2140030F0012605E7002512E7000080BFA330893EC1
S2140031003ACD133F0EB2C841EE49C142DCE7D73F85
S2140031100000F0410000B44200003443F8B500213E
S214003120041CFDF7BFFA0025002868D1FE21201CEC
S2140031308905FDF7CBFA002800D16CE0FE20211CA3
S2140031408005FDF743FC0126041C201C3349FDF7CF
S214003150BDFA002839D0201C3149FDF745FF30491B
S214003160071C201CFDF716FEFE218905FDF7C2FA96
S214003170011C381CFDF72AFC041C211CFDF70AFE66
S2140031802849071CFDF706FE2749FDF7B3FA011C80
S214003190201CFDF7FFFD2549041C381CFDF7AAFA84
S2140031A0011C201CFDF712FC2149FDF7A3FA011CA7
S2140031B0002E03D01F48FDF717FF011C002D02D07C
S2140031C080231B06C918081CF8BD211C201CFDF70F
S2140031D0E1FD1449071CFDF7DDFD1349FDF78AFAEA
S2140031E0011C201CFDF7D6FD1049041C381CFDF7F9
S2140031F081FA011C201CFDF7E9FB011CD8E780239F
S2140032001B06E418FE21201C89050125FDF75EFA41
S214003210002800D092E7002697E7C046A330893EF4
S2140032203ACD133F0EB2C841EE49C142DCE7D73F64
S2140032300000F0410000B442F8B5051C0C1C081C48
S2140032400021FDF729FA002808D0281C0021FDF7E8
S2140032503DFA002800D1B4E0CC48F8BD201C00217F
S214003260FDF734FA002847D0211C281CFDF7AEFBDA
S2140032700021041CFDF716FA0026002800D0D9E02D
S214003280FE21201C8905FDF721FA002800D1CFE099
S214003290FE20211C8005FDF799FB0125041C201C3F
S2140032A0BB49FDF713FA002800D093E0211C201C30
S2140032B0FDF770FDB749071CFDF76CFDB649FDF735
S2140032C019FA011C201CFDF765FDB449041C381CC6
S2140032D0FDF710FA011C201CFDF778FB011C002DE1
S2140032E003D0AA48FDF780FE011C002E02D08023E2
S2140032F01B06C918081CB0E7201C0021FDF7D2F9F0
S214003300002800D0B5E0211C281CFDF75FFB00213B
S214003310041CFDF7C7F90026002800D010E1FE21A6
S214003320201C8905FDF7D2F9002800D106E1FE2011
S214003330211C8005FDF74AFB0125041C201C94492E
S214003340FDF7C4F900287AD0201C9549FDF74CFEFD
S2140033509349071C201CFDF71DFDFE218905FDF77E
S214003360C9F9011C381CFDF731FB041C211CFDF7B4
S21400337011FD8849071CFDF70DFD8749FDF7BAF9D1
S214003380011C201CFDF706FD8449041C381CFDF7B3
S214003390B1F9011C201CFDF719FB8249FDF7AAF9BB
S2140033A0011C002D03D07948FDF71EFE011C002EDF
S2140033B002D080231B06C918081C7B49FDF714FEA3
S2140033C04BE7281C0021FDF76DF9002800D0B3E07C
S2140033D0002042E7201C7249FDF706FE7049071CD4
S2140033E0201CFDF7D7FCFE218905FDF783F9011C9B
S2140033F0381CFDF7EBFA041C211CFDF7CBFC6549D5
S214003400071CFDF7C7FC6449FDF774F9011C201C76
S214003410FDF7C0FC6149041C381CFDF76BF9011C64
S214003420201CFDF7D3FA5F49FDF764F9011C56E747
S214003430002534E780231B06E418012620E7211C1C
S214003440201CFDF7A7FC5349071CFDF7A3FC5249B7
S214003450FDF750F9011C201CFDF79CFC4F49041C8D
S214003460381CFDF747F9011C201CFDF7AFFA011CBC
S21400347097E7281C0021FDF729F9002800D142E72C
S214003480211C281CFDF7A2FA0021041CFDF70AF9EE
S2140034900026002873D1FE21201C8905FDF716F9A9
S2140034A0002871D0FE20211C8005FDF78FFA01252B
S2140034B0041C201C3649FDF709F9002845D0201CBD
S2140034C03749FDF791FD3649071C201CFDF762FCC5
S2140034D0FE218905FDF70EF9011C381CFDF776FA6A
S2140034E0041C211CFDF756FC2A49071CFDF752FC5C
S2140034F02949FDF7FFF8011C201CFDF74BFC274966
S214003500041C381CFDF7F6F8011C201CFDF75EFABB
S2140035102449FDF7EFF8011C002D03D01B48FDF7EA
S21400352063FD011C002E02D080231B06C918081C50
S2140035301D49FDF7DFF890E61C488EE60025FDE6FF
S21400354080231B06E4180126E9E6211C201CFDF753
S21400355021FC1049071CFDF71DFC0F49FDF7CAF8B2
S214003560011C201CFDF716FC0C49041C381CFDF73A
S214003570C1F8011C201CFDF729FA011CCCE78023AA
S2140035801B06E418012686E7002592E70000B442F1
S214003590A330893E0EB2C841EE49C142DCE7D73FB0
S2140035A03ACD133F0000F041000034430000B4C29F
S2140035B0F0B557464E464546E0B4602284B08A468B
S2140035C00021041C0FF002FA2B4926230B702B4E09
S2140035D000234B707423F25C894601218A43F2541F
S2140035E0201C0123494602220FF036F9742302AD4F
S2140035F09846012703E04146735C1F4208D1201C11
S214003600291C0FF01BFA2B88002BF4D000202BE08F
S214003610201C69460FF020FA6A461378012BF7D172
S214003620494626220A70B9224A707422B15C201CD0
S2140036309943B1540123494602220FF00DF9742133
S2140036400122735C1A42FCD0201C69460FF004FA73
S2140036506A461378012BF7D1DE239B0551460B6192
S214003660EE239B054B61012040B204B01CBC904683
S2140036709946A246F0BDC04660E1FF1F94E2FF1FD8
S214003680F0B54F464646C0B4894683B00021904602
S2140036901E22061C0FF09AF9564F2A233B70564DF1
S2140036A000237B707423EA5C01218A43EA54391CA8
S2140036B00222301C01230FF0CFF8742101226B5C2C
S2140036C01A42FCD06C460734301C211C0FF0C4F99B
S2140036D02378012BF8D15B223A701F227A7074226D
S2140036E0A95C301C9943A9540123391C02220FF00F
S2140036F0B3F8742101226B5C1A42FCD0301C211CEA
S2140037000FF0AAF92378012BF8D15C223A70202218
S2140037107A707422A95C301C9943A9540123391C81
S21400372002220FF099F8742101226B5C1A42FCD039
S214003730301C211C0FF090F92378012BF8D10E22B3
S2140037403A707B707422A95C301C9943A9540123FB
S214003750391C02220FF080F8742101226B5C1A4299
S214003760FCD0301C211C0FF077F92378012BF8D100
S2140037702B223A7002227A707422A95C301C99437C
S214003780A9540123391C02220FF066F87421012285
S2140037906B5C1A42FCD0301C211C0FF05DF92378BC
S2140037A0012BF8D12A223A700D227A707422A95C75
S2140037B0301C9943A9540123391C02220FF04CF8FF
S2140037C0742101226B5C1A42FCD0301C211C0FF0C5
S2140037D043F92378012BF8D1E4234A469B0553622C
S2140037E0064B4246D363064B136403B00CBC9046AC
S2140037F09946F0BD60E1FF1F94E2FF1FCDCCCC3DA3
S21400380000002041F0B5474680B4202282B08846AA
S2140038100021061C0FF0DAF82C4F13233B702C4DBA
S21400382000237B707423EA5C01218A43EA54391C26
S2140038300222301C01230FF00FF8742101226B5C6A
S2140038401A42FCD06C460734301C211C0FF004F9D9
S2140038502378012BF8D10D223A7000227A70742258
S214003860A95C301C9943A9540123391C02220EF08E
S214003870F3FF742101226B5C1A42FCD0301C211C21
S2140038800FF0EAF82378012BF8D113223A700222BF
S2140038907A707422A95C301C9943A9540123391C00
S2140038A002220EF0D9FF742101226B5C1A42FCD072
S2140038B0301C211C0FF0D0F82378012BF8D1054BD3
S2140038C04246936102B004BC9046F0BD60E1FF1F23
S2140038D094E2FF1FCDCC4C3DF0B5602283B00F1CA8
S2140038E00021051C0FF072F81D4E01221D4C32708F
S2140038F07423E15C281C9143E1540122311C00230F
S2140039000EF0AAFF74200121235C74221942FBD01A
S214003910A35C02218B43A354311C0522281C0123DF
S2140039200EF0F8FF74210222635C1A42FCD0281CB9
S21400393069460FF091F86A461378012BF7D1727832
S214003940337812041B061343B278120213433B600B
S214003950F37832791B0213437B8303B0F0BDC04675
S21400396060E1FF1F94E2FF1FF0B5474680B488462B
S21400397082B00021171C1E22061C0FF027F8404DAF
S2140039800122404C2A707423E15C301C9143E154C0
S2140039900122291C00230EF05FFF74200121235C06
S2140039A074221942FBD0A35C02218B43A354291C2A
S2140039B00C22301C01230EF0ADFF74210222635C42
S2140039C01A42FCD0301C69460FF046F86A46137857
S2140039D0012BF7D12E786B7836021E4343461E85A0
S2140039E0AC78EB78240242461C43548528796B79E0
S2140039F0000218439085A979EB79090219434423FC
S214003A00F9522A7A6B7A12021A434623FA52AB7A92
S214003A10ED7A1B022B4348257B531B4D36B2AE4234
S214003A202AD0194D24B2AC4222D0174C00B2A04284
S214003A301AD0154809B2814212D0134912B28A42EE
S214003A400AD0114A1BB2934202D1104A4823FA52B6
S214003A5002B004BC9046F0BD0C494622B952F0E7CD
S214003A600A4844217852E8E708484646B085E0E729
S214003A70064C45466C85D8E7044D46463585D0E766
S214003A8060E1FF1F94E2FF1F0080FFFF0180FFFF41
S214003A90F0B5474680B4884682B00021171C202225
S214003AA0051C0EF093FF314E0122314C3270742308
S214003AB0E15C281C9143E1540122311C00230EF0E6
S214003AC0CBFE74200121235C74221942FBD0A35C38
S214003AD002218B43A354311C0622281C01230EF01E
S214003AE019FF74210222635C1A42FCD06946281C26
S214003AF00EF0B2FF69460B78012BF7D130787B00C9
S214003B007478DA1952000002424420439083B07859
S214003B10F47800022043D083307974790002204381
S214003B20111C10841C22885E124A183190421AD04A
S214003B30DA19520042441E21505E0E491A3288425B
S214003B400ED0DB195B0043442022995E094A1C33E1
S214003B50914201D1084A9A8002B004BC9046F0BD5A
S214003B6005499180EDE7044A8A80E1E760E1FF1F9E
S214003B7094E2FF1F0080FFFF0180FFFF38B50A496F
S214003B800A4B0A1C041C21CB21C2188810809B7883
S214003B90201C93700A220FF0F5F9201C0FF018FA7B
S214003BA00A28FAD138BDC04674E1FF1F80500100D4
S214003BB0F0B55F4656464D464446F0B4884AD12393
S214003BC01B01D15893B0039004208143854FD150F8
S214003BD085487E233B7001237B70037A82467E2BCA
S214003BE000D10DE1BB7003227D2B00D108E201332A
S214003BF054467E4D23727023E95C7E2900D10DE188
S214003C007D2900D112E2531CB9547122A95C7E2989
S214003C1000D10EE17D2900D102E25A1CF95472232C
S214003C20E95C7E2900D10FE17D2900D1F2E1531C29
S214003C30B9547322AA5C7E2A00D110E17D2A00D1F5
S214003C40E2E1591CFA546A4B2E229A5C7E2A00D175
S214003C5011E17D2A00D1EFE1481C7A542F229A5CAC
S214003C607E2A00D112E17D2A00D1F1E1411C3A54AE
S214003C703022985C7E2800D113E17D2800D1E1E156
S214003C804A1C78543121585C7E2800D114E17D28E6
S214003C9000D10DE2511CB8543222985C7E2800D127
S214003CA015E17D2800D1FDE14A1C785433215B5C88
S214003CB07E2B00D116E17D2B00D1EDE1511CBB54CB
S214003CC04C4B5022985C7E2800D117E17D2800D10D
S214003CD0DCE14A1C78545121585C7E2800D118E15A
S214003CE07D2800D1CCE1511CB8545222985C7E2825
S214003CF000D119E17D2800D1BCE14A1C785453213B
S214003D00585C7E2800D11AE17D2800D1ACE1511C18
S214003D10B8545422985C7E2800D11BE17D2800D13F
S214003D209CE14A1C785455215B5C7E2B00D11CE13B
S214003D307D2B00D1E7E1511CBB542F4B4C22985CE5
S214003D407E2800D11DE17D2800D1D6E14A1C78549A
S214003D504D21585C7E2800D11EE17D2800D1C6E1A9
S214003D60511CB8544E22985C7E2800D11FE17D2855
S214003D7000D1B6E14A1C78544F21585C7E2800D109
S214003D8020E17D2800D1A6E1511CB8545022985C51
S214003D907E2800D121E17D2800D196E14A1C785486
S214003DA051215B5C7E2B00D122E17D2B00D185E189
S214003DB0511C8946BB5400236A4610AC13861385F3
S214003DC013841387A3806380238052461379052BC0
S214003DD001D902F03BF8094A9B00D3589F46C046DB
S214003DE000E000E074E1FF1F10E3FF1F94E2FF1FF6
S214003DF038E3FF1F08020020ECF4FF1F40500100CC
S214003E0001335446C34D237270237D22E95CBA7099
S214003E105E22FA7004227E2900D0F1E67D23791C0A
S214003E205E20BB548854931C7122A95C7E2900D066
S214003E30F0E67D22791C5E20FA54C8549A1C722340
S214003E40E95C7E2900D0EFE67D23791C5E20BB541A
S214003E508854931C7322AA5C7E2A00D0EEE67D224C
S214003E60FA545E207A1CD054991CAB4B2E229A5CD6
S214003E707E2A00D0EDE67D227A545E247A1C5454C5
S214003E802F229A5C881C7E2A00D0ECE67D223A54CB
S214003E905E247A1C14543022811C985C7E2800D044
S214003EA0EBE67D22781C5E247A5444548A1C312129
S214003EB0585C7E2800D0EAE67D21781C5E24B95442
S214003EC08454911C3222985C7E2800D0E9E67D223C
S214003ED0781C5E247A5444548A1C33215B5C7E2B07
S214003EE000D0E8E67D23BB545E207B1C98548B4BA9
S214003EF0911C5022985C7E2800D0E7E67D22781C34
S214003F005E247A5444548A1C5121585C7E2800D082
S214003F10E6E67D21781C5E24B9548454911C522216
S214003F20985C7E2800D0E5E67D22781C5E247A54D4
S214003F3044548A1C5321585C7E2800D0E4E67D2138
S214003F40781C5E24B9548454911C5422985C7E28B4
S214003F5000D0E3E67D22781C5E247A5444548A1C02
S214003F6055215B5C7E2B00D0E2E67D23BB545E20B1
S214003F707B1C98546A4B911C4C22985C7E2800D07F
S214003F80E1E67D22781C5E247A5444548A1C4D2136
S214003F90585C7E2800D0E0E67D21781C5E24B9546B
S214003FA08454911C4E22985C7E2800D0DFE67D2249
S214003FB0781C5E247A5444548A1C4F21585C7E2810
S214003FC000D0DEE67D21781C5E24B9548454911C12
S214003FD05022985C7E2800D0DDE67D22781C5E2488
S214003FE07A5444548A1C51215B5C7E2B00D0DCE65C
S214003FF07D23BB54961C7B1C5E21B1469954DAE6A1
S2140040005D22FA700422F2E5FA545D207A1C991CAF
S214004010D05418E6B9545D20791C931C885408E6E1
S214004020F9545D20791C9A1CC854F8E5B9545D20F3
S214004030791C931C8854E8E57A545D247A1C881C05
S21400404054540BE678545D24781C8A1C445419E6B4
S2140040503A545D247A1C811C145409E678545D2475
S214004060781C8A1C44545EE6B8545D24781C911C67
S21400407084544EE678545D24781C8A1C44543EE6EC
S214004080B8545D24781C911C84542EE678545D2424
S214004090781C8A1C44541EE6BB545D207B1C911C75
S2140040A098540DE678545D24781C8A1C4454FDE52B
S2140040B0B8545D24781C911C8454EDE5BB54901CC8
S2140040C07B1C5D218146995475E678545D24781CE6
S2140040D08A1C445464E6B8545D24781C911C8454AD
S2140040E054E678545D24781C8A1C445444E6B8543C
S2140040F05D24781C911C845434E678545D24781C26
S2140041008A1C445424E6BB545D207B1C911C9854A6
S21400411013E6C04694E2FF1F38E3FF1F08020020A4
S214004120ECF4FF1FC74E306C716CF36BB26B0290F1
S2140041300491706DC4499B469046FCF72BFEFDF734
S214004140C9F8C1492080B06DFCF724FEFDF7C2F81F
S214004150BD496080F06DFCF71DFEFDF7BBF8BB495E
S214004160A0803068FCF716FEFDF7B4F86A461084A7
S214004170B6497068FCF70EFEFDF7ACF86B4618857E
S214004180B249F068FCF706FEFDF7A4F86946088613
S214004190306E1421FCF7D4F96A461087AC494046C5
S2140041A0FCF7F8FDFDF796F880B2A9498046584618
S2140041B0FCF7F0FDFDF78EF880B2A549834602981D
S2140041C0FCF7E8FDFDF786F880B20190A049049858
S2140041D0FCF7E0FDFDF77EF800261423049380B27A
S2140041E0029642466946D3B20A837E2B00D15EE32E
S2140041F04A467D2B01D101F015F9494601327B5420
S2140042006B465B7E9C467E2B00D15FE37D2B01D107
S21400421001F037F96646531CBE545A466946D6B274
S2140042200A837E2E00D15EE37D2E01D101F022F9B5
S2140042305A1CFE546B465B7E9C467E2B00D15EE38A
S2140042407D2B01D101F00FF96646531CBE54019E2A
S21400425069460E83F6B27E2E00D15DE37D2E01D137
S21400426001F0FAF85A1CFE546B465E7E7E2E00D194
S2140042705DE37D2E01D101F019F9531CBE546A4648
S2140042801083C0B27E2800D15DE37D2801D101F005
S21400429006F95A1CF8546E46737E7E2B00D15DE3F9
S2140042A07D2B01D101F0F4F8501CBB5404993A1848
S2140042B011707B1C072119547E2191705646727826
S2140042C0C31C002A01D000F0C6FF56463278002AEA
S2140042D001D000F0EBFE51468A78002A01D000F0AB
S2140042E007FE5146CA78002A05D009228A56002AB7
S2140042F001D001F081F97E22FA5406217A1CD154AD
S2140043005246117A981C7E2901D100F0F7FC7D29CF
S21400431001D100F002FDDA1C39544E4C4E4B0131EF
S21400432050460172E15C7E2901D100F0DFFC7D2958
S21400433001D100F0EBFC531CB954484AA25C7E2A1B
S21400434001D100F0CAFC7D2A01D100F0EDFC5D1C15
S214004350A846FA54424D4349AE6B301CFCF7B6F9FA
S214004360002801D000F09AFC301C3849FCF712FDFA
S214004370FCF7B0FF6E4680B23083C0B27E2801D113
S21400438000F094FC7D2801D101F054F843464146E4
S2140043900133785469464A7E7E2A01D100F094FCA7
S2140043A07D2A01D101F050F8581C8346FA54514634
S2140043B0CE880C21B2B2131C0A3B9BB218B29846A8
S2140043C09146FCF7BDF80C2180B249424143414476
S2140043D089B233B20591092B0EDD0BB25A00944612
S2140043E0634401B2DB005B18B133FF339B00E35834
S2140043F0013301D101F01AFA69460E83F6B27E2E19
S21400440001D100F094FF5B467D2E01D101F06FF8DC
S2140044105A460133BE546E46727E7E2A01D100F0A3
S21400442097FF7D2A01D101F06CF85E1CFA545146C4
S214004430CB88092B01D900F097FF0B4A9B00D35875
S2140044409F46C04678FDFF1F0000A04100002041A7
S2140044500060EA4610E4FF1F560B0000570B0000F2
S214004460D4F0FF1F33CB4C4558500100D74928697C
S214004470FCF790FCFCF72EFF6946C3B208837E2B40
S21400448001D101F0BCFA7D2B01D101F01CFC721C9D
S214004490BB556C46637E7E2B01D101F08EFB7D2BD7
S2140044A001D101F009FC541CBB54C8496869FCF7EB
S2140044B071FCFCF70FFF6E46C3B230837E2B01D132
S2140044C001F073FB7D2B01D101F0EFFB621C3B5525
S2140044D06846437E7E2B01D101F05FFB7D2B01D128
S2140044E001F0DCFB541CBB54286AB849FCF752FCAC
S2140044F0FCF7F0FE6946C3B208837E2B01D101F0BB
S214004500B0F97D2B01D101F015FA611C3B556B46C5
S2140045105A7E7E2A00D17DE07D2A00D111E14B1C17
S2140045207A545046C2882A21013292B210B2FF3124
S214004530884201DD00F000FC51467E20CA80F85417
S214004540554629795A1C0C1F012C01D800F001FC95
S21400455092B20398391C0EF015FD13B03CBC904681
S2140045609946A246AB46F0BD9849E868FCF712FCAF
S214004570FCF7B0FE6C46C3B220837E2B01D101F05F
S21400458004FB7D2B01D101F082FB721CBB556E46ED
S214004590737E7E2B01D101F0F0FA7D2B01D101F064
S2140045A053FB541CBB548949E869FCF7F3FBFCF742
S2140045B091FE6946C3B208837E2B01D101F0D5FA7D
S2140045C07D2B01D101F039FB621C3B556C46637EA6
S2140045D07E2B01D101F0C1FA7D2B01D101F026FB23
S2140045E0541CBB54E86A7949FCF7D4FBFCF772FE0E
S2140045F06D46C3B228837E2B01D101F0A6FA7D2B2F
S21400460001D101F00CFB611C3B556E46727E7E2A82
S21400461000D081E77D237A1C5E207B548B1C50548F
S2140046207FE76B492868FCF7B5FBFCF753FE694645
S214004630C3B208837E2B01D101F07FFA7D2B01D116
S21400464001F01EFB721CBB556C46637E7E2B01D1AF
S21400465001F06BFA7D2B01D101F00BFB541CBB540F
S2140046605B496868FCF796FBFCF734FE6E46C3B2FF
S21400467030837E2B01D101F050FA7D2B01D101F061
S214004680F1FA621C3B556846437E7E2B01D101F051
S2140046903CFA7D2B01D101F0DEFA541CBB54A8680D
S2140046A04B4923E700236A4613837E2B01D101F092
S2140046B024FA7D2B01D101F05CFB721CBE1933700D
S2140046C06C46637E7E2B01D101F00FFA7D2B01D163
S2140046D001F048FB541CBB54286B3D49FCF75AFBC1
S2140046E0FCF7F8FD6D46C3B228837E2B01D101F09E
S2140046F0F4F97D2B01D101F02EFB611C3B556E4673
S214004700737E7E2B01D101F0E0F97D2B01D101F003
S2140047101BFB4A1C7B54029C6846E3B204837E2B38
S21400472001D101F0CAF97D2B01D101F040FB511CEB
S214004730BB546D466A7E7E2A00D16BE77D2A00D088
S214004740EDE67A545D207A1C8B1C5054E9E6002373
S2140047506C4623837E2B01D101F0A7F97D2B01D176
S21400476001F01DFB711CBE1933706D466B7E7E2BEF
S21400477001D101F092F97D2B01D101F009FB4A1C11
S2140047807B546E46337E7E2B01D101F07EF97D2B65
S21400479001D101F0F6FA511CBB546846437E7E2BCD
S2140047A001D101F06AF97D2B01D101F0AEFA4A1C65
S2140047B07B5469460B7E7E2B01D101F056F97D2B8A
S2140047C001D101F09BFA511CBB54A0E600007A44CC
S2140047D000002041F64EB06BF16B736C326C804675
S2140047E08B46706DF34905930492FCF7D3FAFCF7F9
S2140047F071FDF0492080B06DFCF7CCFAFCF76AFD3D
S214004800EC496080F06DFCF7C5FAFCF763FDEA49F9
S214004810A0803068FCF7BEFAFCF75CFD69460884A9
S2140048207068E549FCF7B6FAFCF754FD6A46108551
S214004830E149F068FCF7AEFAFCF74CFD6B461886CB
S214004840B823F058DC49FCF7A5FAFCF743FD80B224
S21400485002901421306EFBF773FE6E46D749308700
S2140048604046FCF797FAFCF735FD80B2D349804600
S2140048705846FCF78FFAFCF72DFD80B2CF498346E9
S2140048800498FCF787FAFCF725FD80B2CB49019027
S2140048900598FCF77FFAFCF71DFD182142460491A7
S2140048A0D3B2694680B20A837E2B00D0A0E47D2373
S2140048B04E46BB555E214B467E1CF1546B465B7ED6
S2140048C04A4602329C467E2B00D09FE47D237E1C07
S2140048D05E21BB54B154931C5A466946D6B20A832D
S2140048E07E2E00D0A0E47D227E1C5E21FA54F15478
S2140048F09A1C6B465B7E9C467E2B00D0A0E47D23F4
S2140049007E1C5E21BB54B154019E69460E83F6B2EE
S214004910931C7E2E00D0A1E47D227E1C5E21FA54DC
S214004920F1549A1C6B465E7E7E2E00D0A1E47D2359
S2140049307E1C5E21BB54B154931C6A461083C0B2E1
S2140049407E2800D0A1E47D225E26781CFA54C65448
S2140049506E469A1C737E7E2B00D0A1E47D23BB544A
S2140049605E267B1C901C9E54A0E4954EF06B316C2A
S214004970726CB36B83460291706D8E4904929846B2
S214004980FCF708FAFCF7A6FC8A492080B06DFCF715
S21400499001FAFCF79FFC87496080F06DFCF7FAF996
S2140049A0FCF798FC8449A0803068FCF7F3F9FCF724
S2140049B091FC6B46188480497068FCF7EBF9FCF7AD
S2140049C089FC69460885F0687B49FCF7E3F9FCF743
S2140049D081FC6A4610861421306EFBF7B1FD6B46EB
S2140049E0188776494046FCF7D5F9FCF773FC80B289
S2140049F0724980465846FCF7CDF9FCF76BFC80B24E
S214004A006E4983460298FCF7C5F9FCF763FC80B252
S214004A1001906A490498FCF7BDF9FCF75BFC112687
S214004A200496002680B20296FFF7DBFB654EB06B5D
S214004A30F16B736C326C80468B46706D5D490493E7
S214004A400292FCF7A7F9FCF745FC5A492080B06DA6
S214004A50FCF7A0F9FCF73EFC56496080F06DFCF7C9
S214004A6099F9FCF737FC5449A0803068FCF792F9B6
S214004A70FCF730FC6946088470684F49FCF78AF9F1
S214004A80FCF728FC6A4610854B49F068FCF782F96B
S214004A90FCF720FC6B4618861421306EFBF750FDA1
S214004AA06E46308745494046FCF774F9FCF712FC21
S214004AB080B2424980465846FCF76CF9FCF70AFC7F
S214004AC080B23E4983460298FCF764F9FCF702FC84
S214004AD080B23A4901900498FCF75CF9FCF7FAFBBF
S214004AE000261621049180B20296FFF77AFB364E16
S214004AF0B06BF16B736C326C80468B46706D2D49D3
S214004B0004930292FCF746F9FCF7E4FB294920805F
S214004B10B06DFCF73FF9FCF7DDFB26496080F06DD1
S214004B20FCF738F9FCF7D6FB2349A0803068FCF781
S214004B3031F9FCF7CFFB6946088470681E49FCF71C
S214004B4029F9FCF7C7FB6A4610851B49F068FCF795
S214004B5021F9FCF7BFFB6B4618861421306EFBF775
S214004B60EFFC6E46308715494046FCF713F9FCF714
S214004B70B1FB80B2114980465846FCF70BF9FCF7AA
S214004B80A9FB80B20D4983460298FCF703F9FCF7AF
S214004B90A1FB80B2094901900498FCF7FBF8FCF7EA
S214004BA099FB00261321049180B20296FFF719FBA9
S214004BB040F5FF1F0000A041000020410060EA46CB
S214004BC068EFFF1F6CE3FF1F60020020BF4EB06B54
S214004BD0F16B736C326C80468B46706DBC490593E6
S214004BE00492FCF7D7F8FCF775FBB9492080B06D46
S214004BF0FCF7D0F8FCF76EFBB5496080F06DFCF76B
S214004C00C9F8FCF767FBB349A0803068FCF7C2F828
S214004C10FCF760FB694608847068AE49FCF7BAF892
S214004C20FCF758FB6A461085AA49F068FCF7B2F80C
S214004C30FCF750FB6B4618869C23F058A549FCF7FA
S214004C40A9F8FCF747FB80B202901421306EFBF700
S214004C5077FC6E46A04930874046FCF79BF8FCF789
S214004C6039FB80B29C4980465846FCF793F8FCF71F
S214004C7031FB80B2984983460498FCF78BF8FCF722
S214004C8029FB80B2944901900598FCF783F8FCF75D
S214004C9021FB122180B20491FFF7A3FA8F486E46DB
S214004CA03083C0B27E2801D0FFF76CFB7D234046E0
S214004CB07A1C5E213B54115469464A7E43460233B1
S214004CC07E2A01D0FFF76CFB7D22FA549A1C93468D
S214004CD05E217A1CD154FFF76AFB7D22991CFA5498
S214004CE088467A1C5E21D154FFF734FB7D23791C5D
S214004CF05E20BB54931C8854FFF71FFB7D223A545A
S214004D005E24F81C1A1DC454FFF707FBB9545D2037
S214004D10791C931C8854FFF710FB39545D24F81C4B
S214004D201A1DC454FFF7F9FAFA549A1C90465D21EE
S214004D307A1CD154FFF70EFB002254467E20E280F8
S214004D40F854554629795A1C0C1F012C01D9FFF737
S214004D50FFFBB8540724BA1CD4542A7AD81C7E2ADF
S214004D6000D1AAE37D2A00D1AEE31C1D3A540132DD
S214004D705646327259485A4A5A4B36790025834667
S214004D809146984604291FD00020052900D1F3E358
S214004D906A4610836846037E7E2B29D07D2B01D180
S214004DA000F02FFD621C3B5569464B7E7E2B29D0BA
S214004DB07D2B01D100F017FD541CBB5404350C2D7F
S214004DC029D0311C0429DFD140462B18186F4649DC
S214004DD0FBF7E0FF02904549FBF778FC002800D17E
S214004DE078E35B466A4613836846037E7E2BD5D1FE
S214004DF07D233B555E217B1C195569464B7EA21CC4
S214004E007E2BD5D17D23BB545E217B1C0435941CA0
S214004E1099540C2DD5D15246324E12792F4BB346AB
S214004E2000259846161C042E00D19DE30020052E72
S214004E3000D17BE36A4610836846037E7E2B00D152
S214004E406DE37D2B01D100F0D5FC621C3B55694615
S214004E504B7E7E2B00D15BE37D2B01D100F0DFFC87
S214004E60541CBB5404350C2DDDD152461C4E127911
S214004E701A4B1C48B246002598468146161C042E3E
S214004E8000D1B1E30020052E00D18FE36B461883D6
S214004E906846037E7E2B00D176E37D2B01D100F0A1
S214004EA0B7FC621C3B5569464B7E7E2B00D176E3F1
S214004EB07D2B01D100F090FC541CBB5404350C2D06
S214004EC0DDD17E23621C3B55FFF742FB28F0FF1F17
S214004ED00000A041000020410060EA46FF7F00007D
S214004EE040F5FF1F78FDFF1F00007A4400FEFF46D6
S214004EF07E22FA5404217A1CD1545246117A981C08
S214004F007E2979D07D2900D1B2E0DA1C39540131EE
S214004F10534619727023E95C7E297AD07D2900D128
S214004F20B2E0531CB9547122A95C7E297BD07D293E
S214004F3000D1A3E05A1CF9547223E95C7E297CD088
S214004F407D2900D1A6E0531CB9547322AA5C7E2AA0
S214004F507DD07D2A00D1A3E0591CFA5408AC2378F2
S214004F607E2B7ED07D2B01D100F03BFD4A1C7B546E
S214004F706B4621331B787E2B01D100F0A5FC7D2BE0
S214004F8001D100F004FD511CBB540AAE33787E2BD1
S214004F9001D100F0A9FC7D2B01D100F029FD4A1CAF
S214004FA07B546B4629331B787E2B01D100F094FC92
S214004FB07D2B01D100F0F9FC511CBB540CA80378E2
S214004FC07E2B01D100F0A0FC7D2B01D100F0E6FC89
S214004FD04A1C7B546B4631331B787E2B01D100F084
S214004FE08BFC7D2B01D100F0F5FC511CBB547E22BE
S214004FF04B1C7A54FFF775F97D223A545E24F81C50
S214005000C45401311A1D534619727023E95C7E2977
S21400501084D17D23791C5E20BB548854931C712256
S214005020A95C7E2983D17D22791C5E20FA54C8545F
S2140050309A1C7223E95C7E2982D17D23791C5E202E
S214005040BB548854931C7322AA5C7E2A81D17D228D
S214005050FA545E207A1CD05408AC991C23787E2B18
S21400506080D17D237B545E207B1C8A1C58547FE7AE
S21400507039545D24F81C1A1DC45448E7F9545D20C1
S214005080791C9A1CC85457E7B9545D20791C931CA8
S214005090885448E7B9545D20791C931C885454E71B
S2140050A0FA545D207A1C991CD05457E77E22FA5495
S2140050B003217A1CD154317A981C7E2972D07D291E
S2140050C000D1B0E0DA1C3954013150467023017229
S2140050D0E95C7E2973D07D2900D19EE0531CB9542B
S2140050E07122A95C7E2974D07D2900D1A7E05A1CC4
S2140050F0F9547223E95C7E2975D07D2900D198E0A9
S214005100531CB9547322AA5C7E2A76D07D2A00D11D
S2140051109BE0591CFA5423787E2B77D07D2B01D147
S21400512000F027FC4A1C7B546B4641331B787E2BD1
S21400513000D1A5E37D2B01D100F045FC511CBB54EA
S2140051406B4642331B787E2B00D1A7E37D2B01D123
S21400515000F016FC4A1C7B546B4643331B787E2BB0
S21400516000D194E37D2B00D1EBE3511CBB5411AB73
S2140051701B787E2B00D1D6E37D2B01D100F01CFCE2
S2140051804A1C7B546B4645331B787E2B00D1C3E309
S2140051907D2B00D1E7E3511CBB547E224B1C7A5476
S2140051A0FFF799F87D223A545E26F81CC654013162
S2140051B01A1D504670230172E95C7E298BD17D232F
S2140051C0791C5E20BB548854931C7122A95C7E29EE
S2140051D08AD17D22791C5E20FA54C8549A1C722308
S2140051E0E95C7E2989D17D23791C5E20BB548854D6
S2140051F0931C7322AA5C7E2A88D17D22FA545E20F4
S2140052007A1CD054991C23787E2B87D17D237B541F
S2140052105E207B1C8A1C585486E7B9545D20791C96
S214005220931C88545CE739545D26F81C1A1DC65436
S2140052304AE7B9545D20791C931C885462E7F954F8
S2140052405D20791C9A1CC85453E7FA545D207A1CDA
S214005250991CD0545FE7F95402223B1D1A54337A46
S214005260411D7E2B32D07D2B4FD0821D7B540133C7
S21400527050460372D3235B006E46D9B233837E2931
S2140052803CD07D2947D0531CB9546846427E7E2ABE
S21400529023D07D2A45D0591CFA540EAA13787E2BAB
S2140052A025D07D2B00D158E34A1C7B546B463933FE
S2140052B01B787E2B00D1DCE27D2B00D147E3511C0E
S2140052C0BB547E224B1C7A54FEF7FFFF7D227A5495
S2140052D05E26B91DC21D0E54C9E77D22FA545E2013
S2140052E07A1CD0540EAA991C13787E2BD9D17D2314
S2140052F07B545E207B1C8A1C5854D7E77D23791C80
S2140053005E20BB54931C8854BFE77B545D26B91DB2
S214005310C21D0E54ABE7B9545D20791C931C88540B
S214005320B3E7FA545D207A1C991CD054B5E77E1C6E
S214005330B44661467D235A465E265944BB540E70D9
S2140053406E46727E5B4602337E2A01D0FFF769F80E
S2140053507D22FA54791C5E22CA5451469E1CCB8884
S214005360092B01D8FFF769F8059D00B229B24B005A
S2140053705D18ED002D186D002D192A78A9467E2A95
S21400538000D16AE37D2A01D100F0B0FC751CA84666
S214005390BA554E4672787E2A00D152E37D2A01D154
S2140053A000F098FC0125AB464646C344BA555A1849
S2140053B0D20012182132FF3252001219904612788B
S2140053C07E2A00D134E35E467D2A01D100F0B4FC8B
S2140053D05D4601367A5545466A787E2A00D11FE337
S2140053E07D2A01D100F0A0FC751CA946BA555B18B1
S2140053F0DB0090261B18B6009B195B00E418237888
S2140054007E2B00D103E349467D2B01D100F084FCBE
S214005410484601313B5462787E2A01D0FFF77CF87B
S214005420FFF7F8F8BB547E1C5D23494602327354DE
S214005430FEF7E6FE4246B85443467A1C5D214646D1
S21400544002339155FEF7A6FFFA549E1C7A1C5D2186
S214005450B346D154FEF7ABFFFE545D217E1C9A1C6A
S214005460F154FEF701FF7E1C5D21BB54931CB15422
S214005470FEF7EDFEFE545D217E1C9A1CF154FEF7ED
S214005480D9FE7E1C5D21BB54931CB154FEF7C5FEAD
S214005490BB545D267B1C901C9E54FEF707FFF854F9
S2140054A05D26781C9A1CC654FEF7F5FEBE545D2198
S2140054B07E1C931CB154FEF7E2FE7D243C545E2510
S2140054C0381D5C1DC55452E43A545D25381D5C1DDC
S2140054D0C5544CE4C72102980906FBF7E3F80028F8
S2140054E000D06AE10298FBF7F5FE80B250E4FE5465
S2140054F07E1CB44661465D26594402330E70FEF7A4
S2140055008AFFFA54791C5D229E1CCA54FEF78FFF50
S2140055107D23BB545E217B1C941C9954A2E47D23FE
S2140055203B555E217B1CA21C195590E4DF496B1885
S214005530586EDF49FBF72EFC81464846DD49FBF7EF
S214005540C5F8002803D043466A46138374E4C7218F
S21400555048460906FBF7A6F8002800D032E1484680
S214005560FBF7B8FE80B265E458462B18586ED04953
S214005570FBF710FC8146E0E749466B18186FCC49EC
S214005580FBF708FC029026E47D233B555E217B1C3E
S214005590195569464B7EA21C7E2B00D088E47D23DD
S2140055A0BB545E217B1C941C995487E45246AB186E
S2140055B0D86FC149FBF7EEFB83465846BD49FBF75B
S2140055C085F8002803D040466B46188360E4C72160
S2140055D058460906FBF766F8002800D0F7E058465C
S2140055E0FBF778FE80B251E449466B18D86FB24993
S2140055F0FBF7D0FB8346E0E77E22FA5405217A1CAF
S214005600D1545246117A981C7E2900D181E07D291A
S21400561000D1B4E0DA1C39540131534619727023B4
S214005620E95C7E2900D182E07D2900D1B3E0531CDD
S214005630B9547122A95C7E2900D183E07D2900D16E
S214005640A3E05A1CF9547223E95C7E2900D184E059
S2140056507D2900D1ABE0531CB9547322AA5C7E2A84
S21400566000D185E07D2A00D19BE05C1CFA54934D66
S2140056708F492868FBF78EFBFBF72CFE0F90C0B215
S2140056807E2800D1A1E27D2800D197E3621C385520
S2140056906B463D331B787E2B00D1B9E27D2B00D1C3
S2140056A09EE3511CBB546B463E331B787E2B00D1C9
S2140056B0A7E27D2B00D18DE34A1C7B546B463F331B
S2140056C01B787E2B00D195E27D2B00D17CE3541C09
S2140056D0BB5468687A49FBF75DFBFBF7FBFD6D463C
S2140056E0C3B228837E2B00D17DE27D2B00D183E3DD
S2140056F0621C3B556E46737E7E2B00D16CE27D2B82
S21400570000D173E3511CBB547E224B1C7A54FEF727
S214005710F2FD7D223A545E24F81CC45401311A1D51
S214005720534619727023E95C7E2900D07CE77D23FE
S214005730791C5E20BB548854931C7122A95C7E2978
S21400574000D07BE77D22791C5E20FA54C8549A1C50
S2140057507223E95C7E2900D07AE77D23791C5E20DF
S214005760BB548854931C7322AA5C7E2A00D079E727
S2140057707D22FA545E217A1C9C1CD15477E739545A
S2140057805D24F81C1A1DC45446E7F9545D20791CA4
S2140057909A1CC85457E7B9545D20791C931C88544A
S2140057A047E7FA545D217A1C9C1CD1545FE7B95434
S2140057B05D20791C931C88544FE742496846018354
S2140057C0FFF7E8FA3F4968460183FFF735FB3D4A95
S2140057D069460A83FFF75CFBBB545D217B1C941C67
S2140057E09954FFF76BFBBB545D217B1C941C9954AA
S2140057F0FFF7E4FA3B555D217B1CA21C1955FFF709
S21400580026FB3B555D217B1CA21C1955FFF7CCFAE5
S2140058103B555D217B1CA21C1955FFF744FBBB546E
S2140058205D217B1C941C9954FFF71CFB4E4673426B
S21400583069460B83DBB27E2B00D1EBE27D2B00D1D9
S214005840F3E259465A460131BB546E46737E7E2BB0
S21400585000D1D7E27D2B00D1F1E24E1C7B54FEF73F
S214005860E6FD7D233B555E227B1CA11C1A55FEF7E8
S2140058704EFE7D23BB545E207B1C911C985420E575
S2140058807D23BB545E207B1C911C985458E47D23DA
S214005890BB545E207B1C911C985468E47D237B548B
S2140058A05E207B1C8A1C585456E4C04640F5FF1FF9
S2140058B000007A4400FEFF4600401C4620E3FF1F1F
S2140058C00000C8420080FFFF7D23BB545E207B1C87
S2140058D0911C9854FFF759FB7D23BB545E207B1C1C
S2140058E0911C9854FFF76AFB7D237B545E207B1C3B
S2140058F08A1C5854FFF755FB7D23BB545E207B1C47
S214005900911C9854FFF773FB7D237B545E207B1C11
S2140059108A1C5854FFF75EFB7D23BB545E207B1C1D
S214005920911C985439E47D237B545E207B1C8A1C92
S214005930585427E43B555D227B1CA11C1A55FEF7E4
S214005940E6FDBB545D207B1C911C98540FE4BB54B1
S2140059505D207B1C911C9854B3E47B545D207B1C1B
S2140059608A1C5854A2E4BB545D207B1C911C98549E
S21400597013E47B545D207B1C8A1C5854FFF7D4FB31
S2140059807B545D207B1C8A1C5854FFF7E5FBBB54F8
S2140059905D207B1C911C9854FFF7F7FA7B545D2022
S2140059A07B1C8A1C5854FFF715FBBB545D207B1CE0
S2140059B0911C9854FFF702FB7B545D207B1C8A1CCD
S2140059C05854FFF7DFFBBB545D207B1C911C98549A
S2140059D0FFF7B6FBBB545D207B1C911C9854FFF769
S2140059E006FB7B545D207B1C8A1C5854FFF7C0FACC
S2140059F07B545D207B1C8A1C5854FFF7D2FA7D230B
S214005A00BB555E217B1CB21C9955FEF742FD7D23DB
S214005A104E46BB5549467B1C5E2202319A55FAE437
S214005A207D22BA55B21C91467D1C5E22AA55DEE444
S214005A307D225E46BA557A1C5E255A44023615709B
S214005A40C9E47D2245467A557A1C0226151CB346C3
S214005A5045445E26C3442E70A9E47D22BA55B21C86
S214005A6090465E257A1C955593E47D23BB545E20B4
S214005A707B1C911C9854FEF74AFD7D237B545E20C8
S214005A807B1C8A1C5854FEF794FE7D23BB545E2074
S214005A907B1C911C9854FEF780FE7D237B545E2071
S214005AA07B1C8A1C5854FEF76CFE7D23BB555E2279
S214005AB07B1CB11C9A55FEF758FE7D23BB545E2016
S214005AC07B1C911C9854FEF734FE7D237B545E208D
S214005AD07B1C8A1C5854FEF71EFE7D233B555E2217
S214005AE07B1CA11C1A55FEF70AFE7D23BB545E21C3
S214005AF07B1C941C9954FEF7EFFD7D23BB555E215D
S214005B007B1CB21C9955FEF7DBFD7D23BB545E2142
S214005B107B1C941C9954FEF7C2FD7D233B555E21E9
S214005B207B1CA21C1955FEF7AEFD7D23BB545E21DF
S214005B307B1C941C9954FEF793FD7D23BB555E2178
S214005B407B1CB21C9955FEF77FFD7D233B555E22DC
S214005B507B1CA11C1A55FEF758FD7D23BB545E2105
S214005B607B1C941C9954FEF73DFD7D233B555E211E
S214005B707B1CA21C1955FEF729FD7D23BB545E2114
S214005B807B1C941C9954FEF70EFD7D23BB555E21AD
S214005B907B1CB21C9955FEF7FAFC7D23BB545E2194
S214005BA07B1C941C9954FEF79FFC7D233B555E217D
S214005BB07B1CA21C1955FEF78BFC7D23BB545E2173
S214005BC07B1C941C9954FEF770FC7D233B555E218C
S214005BD07B1CA21C19555BE57D23BB545E207B1CF9
S214005BE0911C985490E57D233B555E217B1CA21C9E
S214005BF019557FE57D23BB545E217B1C941C99546C
S214005C0067E57D237B545E207B1C8A1C585455E533
