S01200004653464B5F4B4C34365A2E737265632E
S21400000000600020710400007D0001007D000100FA
S2140000107D0001007D0001007D0001007D000100E3
S2140000207D0001007D0001007D0001007D000100D3
S2140000307D0001007D0001007D000100833A010083
S214000040833A0100833A0100833A0100833A0100B3
S214000050833A0100833A0100833A0100833A0100A3
S214000060833A0100833A0100833A0100833A010093
S214000070833A0100833A0100833A0100833A010083
S214000080833A0100833A0100833A0100833A010073
S214000090833A0100833A0100833A0100833A010063
S2140000A0833A0100833A0100833A0100833A010053
S2140000B0833A0100833A0100833A0100833A010043
S214000400FFFFFFFFFFFFFFFFFFFFFFFF7EFBFFFF7C
S21400041010B5064C2378002B07D1054B002B02D0D5
S214000420044800E000BF0123237010BD80E0FF1FDA
S214000430000000003439010008B5084B002B03D03B
S2140004400748084900E000BF07480368002B03D0B0
S214000450064B002B00D0984708BDC04600000000A1
S2140004603439010084E0FF1F80E0FF1F0000000019
S21400047009480A4908600A490860EFF3088080F3D3
S2140004800988EFF314800221084380F31488BFF331
S2140004906F8F0EF05FFBC046FFFFFFFF80E100E0BE
S2140004A080E200E0002934D00123002210B4884204
S2140004B02CD301242407A14204D2814202D209018E
S2140004C01B01F8E7E400A14204D2814202D24900AF
S2140004D05B00F8E7884201D3401A1A434C08A04252
S2140004E002D3001B5C0822438C08A04202D3001BE8
S2140004F09C082243CC08A04202D3001BDC082243FF
S214000500002803D01B0901D00909E3E7101C10BC22
S2140005107047002801D00020C04307B4024802A15B
S2140005204018029003BDC046D90000000029F0D054
S21400053003B5FFF7B9FF0EBC4243891A1847C046F9
S214000540002941D010B4041C4C40A44601230022CC
S214000550002900D54942002800D5404288422CD3C5
S21400056001242407A14204D2814202D209011B01C0
S214000570F8E7E400A14204D2814202D249005B00BF
S214000580F8E7884201D3401A1A434C08A04202D327
S214000590001B5C0822438C08A04202D3001B9C0868
S2140005A02243CC08A04202D3001BDC0822430028CA
S2140005B003D01B0901D00909E3E7101C6446002C90
S2140005C000D5404210BC7047002806D003DB002050
S2140005D0C043400801E08020000607B4024802A19C
S2140005E04018029003BDC046190000000029EBD059
S2140005F003B5FFF7A7FF0EBC4243891A1847C0464B
S2140006007047C0468446101C62468C46191C6346DA
S21400061000E0C0461FB501F0E7FD002801D4002128
S214000620C8421FBD10B501F017FD4042013010BD95
S21400063010B501F0D9FD002801DB002010BD012017
S21400064010BDC04610B501F0CFFD002801DD00202A
S21400065010BD012010BDC04610B501F047FD0028B2
S21400066001DC002010BD012010BDC04610B501F011
S2140006703DFD002801DA002010BD012010BDC04657
S2140006808446081C6146FFE71FB500F037FB0028CC
S21400069001D40021C8421FBD10B500F0BDFA40428B
S2140006A0013010BD10B500F029FB002801DB00204A
S2140006B010BD012010BDC04610B500F01FFB00287D
S2140006C001DD002010BD012010BDC04610B500F0B1
S2140006D0CDFA002801DC002010BD012010BDC04668
S2140006E010B500F0C3FA002801DA002010BD012082
S2140006F010BDC046F8B543024400C50F4E02480080
S214000700240E2A1C9B09000EC90FB6098D425BD029
S214000710221A002A00DC89E000281DD1002E00D015
S21400072075E0580704D00F221A40042A00D004337C
S2140007308021C90419402A1C00293AD00134FF2C14
S21400074000D17FE09B015B0A5B02E4B2E405580A35
S214000750D20720431043F8BDFF2CE2D08021C90405
S2140007600E431B2A00DD2DE1311C2020D140821AC9
S2140007709640721E96410E439B1B5801D1D59B0195
S2140007809F09381C02F0C0F9421F974094425BDC78
S214000790141B1F231B1B3A1C9F40611C3B1CCA409A
S2140007A05F1EBB4113430024BBE7131EB9D10023D1
S2140007B00022DB08FF2C04D1002B43D08020C0038E
S2140007C003435B025B0ABFE7211A002940DD0028CD
S2140007D023D0FF2CA5D08020C00406431B2900DDB3
S2140007E0EEE0301C2027C840791A8E40711E8E41DC
S2140007F006439B19590100D493E70134FF2C55D0CA
S214000800714901221A400B405B08134389E7013AFD
S214000810002AB1D0FF2CA4D183E7002E00D180E7B8
S21400082001390029E5D0FF2CD8D17AE7002A1BD160
S214000830621CD2B2012A4BDD9F1B7A0123D5F71A20
S2140008400D1C9EE700237FE75F4BA41A3B4068E73A
S214000850002946D1611CC8B2012829DDFF2924D011
S214000860F3185B080C1C5CE7002C13D0FF2818D08C
S2140008708024E404524223431B2A4DDD0123F31A4D
S214000880041C0D1C79E7002F00D07AE70023002215
S21400089000248EE7002B3BD0D243002AEFD0FF285F
S2140008A0EAD1331CFF240D1C3BE7FF24002380E71E
S2140008B0002C5CD1002B00D180E0002E00D130E768
S2140008C09B19580100D42CE73F4A0124134028E71F
S2140008D0002C15D1002B40D1002E63D0331C0D1CEC
S2140008E01FE7002C21D1002B54D0C943002904D087
S2140008F0FF284CD01B2958DD01239B19041C79E7DF
S214000900002B19D1002E48D0331C0D1CFF2408E7FD
S214000910331C041C0D1C04E71C1C2025D440AA1AFA
S21400092093405A1E93412343A9E7FF282FD08024E3
S214000930E40449422343DDE7FF24002E00D1F0E61D
S2140009408022DB08D203134204D0F608164201D1F7
S214000950331C0D1CDB00FF24E3E6002E00D1E0E68E
S2140009609A1B500100D420E7F31A0D1CD9E6002B81
S2140009700DD0FF24002E00D1D3E68022DB08D20360
S2140009801342E7D0F6081642E4D1331CE2E7331CE4
S214000990FF24C6E6331C041CC3E6802300229B0407
S2140009A0FF2406E7231C002203E71C1C2027CC405C
S2140009B0791A8B40591E8B4123439EE7331CB0E6C1
S2140009C0012616E70126D7E6FFFFFFFBF0B55F46D8
S2140009D056464D464446F0B446024500C00F85B024
S2140009E00F1C760A2D0E804641D0FF2D26D080247F
S2140009F0240400212643F6007F3D89468B46F90FE6
S214000A007C027800640A000E00918A463CD0FF28DB
S214000A1034D080231B041C430023E4007F3801935A
S214000A20009F4346019A7B4049469C4611430F2946
S214000A3000D971E0764F89007F58BF46002E3ED120
S214000A400822022391469B46D9E75A46341CC246E2
S214000A5001920199022937D0032900D1CFE001295C
S214000A6000D0ABE053460B400022002632E0002EBA
S214000A7019D10421012289469346C0E7221C531E41
S214000A809A4102320192CBE701270197002CC7D08A
S214000A90201C02F039F8431F9C4076235B4200215D
S214000AA0181A0191BCE7301C02F02EF87625431F79
S214000AB09E406D4200232D1A99469B469FE70C23C5
S214000AC0032199468B469AE7D446012367463B4066
S214000AD0FF2200267602D205700ADB071043184371
S214000AE005B03CBC90469946A246AB46F0BD802673
S214000AF00023F603FF22EDE700220026EAE7802027
S214000B00C00306423BD0044239D1061C2643760277
S214000B10760A009BFF22DDE7281A0390760164011F
S214000B20A64239D3361B1A2201230120311C5B0052
S214000B307600002901DBB44201D8361B0343013A94
S214000B40002AF3DC741EA641341C1C43039A7F3231
S214000B50002A27DD630704D00F232340042B00D090
S214000B600434270103D52B4B039A1C408032FE2AFF
S214000B700BDD012361460B40FF220026AAE7064351
S214000B807602760A4346FF22A4E7A40101236746BD
S214000B90660AD2B23B409DE7039F1B22013F0397A4
S214000BA00023C2E77E23039F5B42DB1B1B2B07DD74
S214000BB0012361460B40002200268BE7D446C5E79A
S214000BC0221CDA40039B9E339C40231C5C1EA341E0
S214000BD013435A0704D00F221A40042A00D00433C5
S214000BE05F0105D5012361460B400122002671E70F
S214000BF09E01624601231340760A00226AE7802699
S214000C00F60326437602760A5346FF2262E7C0467C
S214000C10D0310100FFFFFFF74A02430270B55C0ABD
S214000C20550A43004A001B0EC60F120EC90FFF2BB3
S214000C3005D0FF2A08D0012093420BD070BD0120BA
S214000C40002CFBD1FF2AF6D10120002DF6D1012081
S214000C509342F3D1AC42F1D18E4205D0002BEDD1B8
S214000C60201C441EA041E9E70020E7E74A024302B1
S214000C70F0B55C0A550A43004A001B0EC60F120E5A
S214000C80C90FFF2B31D0FF2A34D0002B16D160427B
S214000C9060418446002A14D0002820D18E4217D105
S214000CA0934215DC04DBAC4212D80020AC4212D2D0
S214000CB0704270414042012318430CE0002AEDD1F7
S214000CC094466F426F416046002805D1002FE5D05C
S214000CD0704201231843F0BD0020002FFBD148428C
S214000CE04841404201231843F5E7002CCBD00220B0
S214000CF04042F0E7002DC8D0F9E7C0464A0243025A
S214000D00F0B55C0A550A43004A001B0EC60F120EC9
S214000D10C90FFF2B27D0FF2A29D0002B10D0002A7E
S214000D2015D194466F426F416046002815D00020CA
S214000D30002F04D148424841404201231843F0BDE9
S214000D40604260418446002AECD00028F2D18E42F0
S214000D5011D0704201231843F1E7002FF7D07042FC
S214000D6001231843EBE70220002CE8D1D3E702204A
S214000D70002DE4D1D1E79342EBDC04DBAC42E8D8AB
S214000D800020AC42DBD2704270414042012318433F
S214000D90D5E7C046F0B55F4656464D464446F0B4E5
S214000DA04402460083B00F1C640A360EC50F002EA0
S214000DB041D0FF2E22D080231B0400201C43E400D9
S214000DC07F3E82468046391C4B007F02C90F7F0A51
S214000DD01B0E8B463BD0FF2B34D0802212041743C9
S214000DE0FF007F3B00215A466A40019252460A4362
S214000DF00F2A63D87A48920082589746002C3FD133
S214000E000822022392469846DDE7019540460228CE
S214000E102AD1019A01251540FF2300246402DB0530
S214000E20600AED071843284303B03CBC9046994639
S214000E30A246AB46F0BD002C27D1042001228246F4
S214000E409046C0E7391C4A1E91410231CBE701218A
S214000E50002FC8D0381C01F057FE431F9F40762352
S214000E605B421B1A0021BEE7032800D1AEE0012832
S214000E704FD1019842461040C5B200230024CDE76A
S214000E800C2303209A4680469DE7201C01F03CFE7A
S214000E907626431F9C4076420023361A9A4698468A
S214000EA091E780240025E403FF23B7E75B463C1C5C
S214000EB001938846AAE73C1C8846A7E7250C24042D
S214000EC03A0C240C3F04F6183F0C211C231C7943D3
S214000ED053436F435543FB180A0C9B18B1469F4279
S214000EE002D980225202AD1809041A04090C5218BD
S214000EF094011B0C611E8C41920EED181443AD013B
S214000F002C43230105D501226308012014408144A7
S214000F101C434B467F33002B2DDD600704D00F2289
S214000F202240042A00D00434220103D52D4B1C4055
S214000F304B468033FE2B17DD019B01251D40002408
S214000F40FF236BE78020C003044208D0074206D187
S214000F50041C3C436402640A5D46FF235EE70443C8
S214000F606402640AFF2359E70198A4010125640A74
S214000F70DBB2054052E77E235B424A469B1A1B2B98
S214000F8005DD019B01251D400024002346E7221CA9
S214000F90DA404B469E339C40231C5C1EA341134301
S214000FA0580704D00F221A40042A00D004335A01EE
S214000FB005D5019B01251D40002401232EE701983D
S214000FC09C010125640A0540002327E78027FF03CC
S214000FD0019B3C43640201251D40640AFF231DE774
S214000FE010320100FFFFFFF7F8B5C20F43024400BE
S214000FF04D024800240E161C9B09000EC90FAD09B1
S214001000FF2800D183E0012779408A425CD0221A6B
S214001010002A00DC8EE000281ED1002D00D07AE0E9
S214001020580704D00F221A40042A00D00433802127
S214001030C90401221940324000293AD00134FF2C5D
S21400104000D183E09B015B0A5B02E4B2E405580A28
S214001050D20720431043F8BDFF2CE1D08021C904FD
S2140010600D431B2A00DD31E1291C2020D140821AC5
S21400107095406A1E95410D435B1B5801D0D59B01D8
S2140010809F09381C01F040FD421F974094425FDCE8
S214001090141B1F231B1B3A1C9F40611C3B1CCA4091
S2140010A05F1EBB4113430024BAE7131EB8D10023CA
S2140010B00022DB08FF2C04D1002B47D08020C00381
S2140010C003435B025B0ABFE7211A002944DD0028C0
S2140010D027D0FF2CA4D08020C00405431B2900DDA8
S2140010E0F2E0281C2027C840791A8D40691E8D41E1
S2140010F005435B19590100D492E70134FF2C59D0FF
S214001100734901221A400B405B08134388E7002D01
S21400111000D07AE777E7013A002AADD0FF2CA0D1BD
S2140011207EE7002D00D17BE701390029E1D0FF2CB6
S214001130D4D175E7002A1BD1621CD2B2012A4BDD3E
S2140011405F1B7A0123D5EF1A0E1C9AE700237BE774
S2140011505F4BA41A3B4063E7002946D1611CC8B226
S214001160012829DDFF2924D0EB185B080C1C57E763
S214001170002C13D0FF2818D08024E40452422343C6
S2140011801B2A4DDD0123EB1A041C0E1C75E7002FED
S21400119000D076E70023002200248AE7002B3BD00D
S2140011A0D243002AEFD0FF28EAD12B1CFF240E1CC6
S2140011B036E7FF2400237CE7002C5CD1002B00D10F
S2140011C080E0002D00D12BE75B19580100D427E7FB
S2140011D03F4A0124134023E7002C15D1002B40D1B1
S2140011E0002D63D02B1C0E1C1AE7002C21D1002BDF
S2140011F054D0C943002904D0FF284CD01B2958DD01
S21400120001235B19041C75E7002B19D1002D48D06B
S2140012102B1C0E1CFF2403E72B1C041C0E1CFFE6D5
S2140012201C1C2026D440B21A93405A1E93412343D6
S214001230A9E7FF282FD08024E40449422343DDE7B2
S214001240FF24002D00D1EBE68022DB08D2031342F8
S21400125004D0ED08154201D12B1C0E1CDB00FF2428
S214001260DEE6002D00D1DBE65A1B500100D41CE759
S214001270EB1A0E1CD4E6002B0DD0FF24002D00D157
S214001280CEE68022DB08D2031342E7D0ED081542F3
S214001290E4D12B1CE2E72B1CFF24C1E62B1C041C0C
S2140012A0BEE6802300229B04FF2402E7231C0022C4
S2140012B0FFE61C1C2027CC40791A8B40591E8B4118
S2140012C023439EE72B1CABE6012512E70125D3E658
S2140012D0FFFFFFFB4302590A4300C20F1B0E00200C
S2140012E07E2B0DDD9D2B0CDC802000040143952B0E
S2140012F00ADC9620C31AD9404842002A00D1081CAE
S2140013007047034BD018FBE7963B9940F4E7C0467E
S214001310FFFFFF7F70B5041E3CD0C60F00D04442CE
S214001320201C01F0F1FB9E23251C1B1A962B0CDCBF
S214001330083884406402640ADBB2321C6402DB05AF
S214001340600AD2071843104370BD992B0ADD0522A8
S214001350121A211CD1400A1C011C1B318D40691E2B
S2140013608D411543052801DD421F9540164C2C4043
S2140013706A0704D00F221540042D00D00434610102
S2140013800CD59F23181AFF281AD0A401640AC3B2EA
S214001390321CD3E7002200230024CFE7E408FF2B0B
S2140013A004D06402640ADBB2321CC7E7002C04D007
S2140013B08020C00304436402640A321CFF23BDE796
S2140013C0321CFF230024B9E7FFFFFFFBF8B55F469A
S2140013D0564644464D46F0B40C034D00CE0F610A07
S2140013E0440F2143C400180380465800400D82462F
S2140013F0D80F84464046400A530F0343D0006D0D75
S214001400371C83465246664500D1A4E0AF1A002F2B
S21400141000DC09E1002A3BD1184300D0EAE063076C
S21400142000D187E00F232340042B00D182E0221D49
S214001430A242A4416442802309191B040B40371CB6
S214001440141C002B00D17CE0CE4B01359D4200D110
S21400145005E1CD4BE40819404807490204430B0B4D
S214001460002000211B031A0B0B0D6D051B051343F3
S2140014706A08C64DFF071D4015436D006D08291C00
S2140014803943201C3CBC90469946A246AB46F8BD64
S214001490BC488542C3D0802000040343382F00DDBB
S2140014A0F0E01F2F00DD24E12020C01B1A1C81461F
S2140014B082405846F8400243944658464A46904072
S2140014C0421E9041FB40624602431F1CA21A9442F1
S2140014D0A4416442C91B091B141C0B029FD5490278
S2140014E04F0A002F00D1C8E0381C01F00DFB021C8B
S2140014F0083A1F2A00DDB5E02821091A201C97406B
S214001500C84007439440954200DDB2E0551B691C75
S2140015101F2900DDDCE01F22551B3B1C221CAB40B4
S214001520CA40AC40651EAC411343CF401C43391C37
S214001530002574E780231B040B40371C002B00D0CB
S21400154082E7904B4807E4080443C9089D4248D008
S21400155009030B0B84E7AA1A9446002A00DC98E0DD
S2140015605046002852D08748854200D157E7802051
S214001570000403436246382A00DDFCE01F2A00DD33
S2140015804AE120226046101A1A1C82408246914682
S21400159058466246D0404A4602439046584652460F
S2140015A09040421E9041424602436046C340121994
S2140015B0A242A441644259180919141C080200D416
S2140015C02DE7704B01359D4200D122E16E4B60083D
S2140015D01940012323401C1C0443CB071C43490825
S2140015E01DE7231C0B433AD080231B030B431B032E
S2140015F01B0B35E7013F002F65D15846221A94424F
S214001600A4416442C91A091B141C66E758461843CD
S21400161000D104E70122524294446046002800D0DC
S214001620C5E058460219C3E7002F73D1681C400571
S214001630400D012800DCDEE05A46A21A9442BF4163
S214001640C81A7F42C71B380200D489E05A46141BCA
S214001650A3459241591A52428F1A664641E7002323
S2140016600024FDE6271C283887400024954200DC2D
S2140016704CE74549AD1A3940D1E6201C01F044FA42
S214001680203034E75A461A43531E9A41D2B20027F6
S2140016901CE7002A00D0DCE0681C4205520D012A37
S2140016A000DC8DE0374DA84200D1F3E05D462A19F4
S2140016B0A242A441644259180919CC07520814439F
S2140016C04908051CABE62F48854200D0E6E6A6E6AC
S2140016D02B1C1F3B3A1CDA40131C20296CD03F22DF
S2140016E0551BAF403C43601E84411C43002100252F
S2140016F095E6381C20381A1CC240101C202F5DD0DE
S2140017004022D71BBB405A461A43531E9A410243F7
S2140017100027DBE6002D3BD01A4DAA4500D193E00A
S21400172080252D047F422943382F00DDACE01F2F93
S21400173000DD29E12025ED1B081C261CA840FE40E4
S214001740AC400643651EAC413443F9405D462C1B55
S214001750A34592415B1A5242991A55466646BCE624
S214001760131C3B43141C002B00D0BAE600270021B4
S21400177000250024E5E65A461A43531E9A41D2B283
S214001780002314E7FF070000FFFF7FFFFFFF0F8027
S2140017900D1C254358D0FF43002F51D1041BA345F1
S2140017A09241591A5242891A5546664695E6964817
S2140017B0854200D0DEE632E6002793E70023A2E764
S2140017C0081C2043002D00D0C4E0002800D1F7E01C
S2140017D05846184300D122E658460219A242A441B0
S2140017E0644259180919141C0A0200D417E6874BDC
S2140017F00125194013E6081C2043002D39D1002886
S21400180071D15946194303D0191C5C46664606E654
S21400181000270021002494E6604620381A1CC240A7
S21400182060469146202800D1ACE04022121A934030
S2140018305A461A43531E9A414B461A430023B6E6AD
S214001840714DAA4500D06FE7191C5C4655466646A2
S214001850E5E5002D22D10D1C254377D0D543002D7C
S21400186071D15C445C4592415918524289185546DC
S214001870A4E600284DD15946194300D194E0191C1E
S2140018805C466646604DCAE50C43611E8C41E4B278
S21400189000215BE7051C0021002452E65A4DAA45AC
S2140018A054D05542802210040143382D00DD81E0DB
S2140018B01F2D00DD92E02022501B0A1C8446824029
S2140018C0201CE8400243904662469440601E8441D5
S2140018D042461443E9405C445C459241CB18524270
S2140018E0991855466AE65846184300D197E5584673
S2140018F0271ABC429241C81A5242801A020266D582
S2140019005846041BA3459241591A5242891A664604
S21400191085E55846184333D04807E408044380203A
S214001920C9080003014208D0DD08054205D1594622
S214001930CA085C071443291C6646630FC90019438E
S214001940E400314D6BE5304A9245AED1191C5C4639
S214001950554664E5002836D05846184310D08025F2
S2140019604807E408C9082D0304432942E5D0D808EF
S2140019702842E2D15D46EA085C071443011CDCE716
S214001980214D4CE5002353E73D1C203D0A1CEA4050
S214001990151C202F34D04026F71BB9400C43611E7F
S2140019A08C412C430021D1E680210027C903164D27
S2140019B00024C6E50C43611E8C41E4B200218AE790
S2140019C0191C5C462BE5191C5C460F4D27E5031CCD
S2140019D03B4300D11CE7011C3C1C20E52020404274
S2140019E040190A1CC2409046202D0BD04020451BB3
S2140019F0A9400C43611E8C4145462C4300216AE7F2
S214001A000021CBE70021F4E7FF070000FFFF7FFF80
S214001A10F0B5564644465F464D46F0B41F1C0B03D1
S214001A201B0B98464B0087B0041C81465B0DC80F05
S214001A30161C9A460090002B51D06A4B9A4531D01E
S214001A408022414652030A43630FD2001A43664B74
S214001A5090460025E20091469A44002402953B03F6
S214001A601B0B9B46FD0F7B00311C5B0D019560D068
S214001A705C4A934254D08021584649030143720F72
S214001A80C9001143584A8B469B18F1000020009A63
S214001A9004436A4003920F2C00D9ADE0534EA400D5
S214001AA03459A746404604436ED100210225082437
S214001AB0884689460295D2E7009C0298C346494666
S214001AC00194022864D0032800D1ABE2012800D09C
S214001AD038E2019A002402400025A14660E0434611
S214001AE023434AD04046002800D1C0E101F00CF85C
S214001AF0031E272B00DDB3E128210D1A211C083B0D
S214001B004246E9409A400D1C1543221C9A40A846BE
S214001B109146374B00251B1A9A46002402959EE7ED
S214001B205A4616430320002EB1D1B34600210220A8
S214001B30ADE75A4632431BD05B46002B00D18AE104
S214001B40584600F0E1FF272800DD7DE12822171A1D
S214001B50011C321C08395B46FA408B40171C1F4399
S214001B60331C8B40BB46191C214B1B1A00208EE7EA
S214001B700027BB460021012089E700200125042418
S214001B808046814602956AE703250C24029566E79F
S214001B90019C0394039D01222A400024114DA14676
S214001BA0002000212403260B0C0D2405114B344382
S214001BB02D0523402B435B005B08D207191C4846C3
S214001BC0114307B03CBC90469946A246AB46F0BDD2
S214001BD00022802424039146024DE1E700240025DC
S214001BE0A146DDE7FF07000001FCFFFF50320100C1
S214001BF00DFCFFFFFFFF0F805546ED1A0495D845F4
S214001C0000D953E100D14EE1049C0025013C4E462C
S214001C1004944746A946584603020C0E1C43090284
S214001C20250C23041B0C0091381C291C0193FEF77D
S214001C3039FC019983464143381C8A46291CFEF725
S214001C4075FC330C090419438A450CD95B460919FF
S214001C50013B8C4200D947E18A4500D844E1022284
S214001C605242934409195346CB1A181C291C98460D
S214001C70FEF718FC071C0198291C7843824640464C
S214001C80FEF754FC36040B04360C33439A4509D948
S214001C901B197A1E9C4200D924E19A4500D821E1FE
S214001CA0023F1B195E4632041743380CBB46009EA3
S214001CB0009F51463F0C32045B1A5946BA46120C36
S214001CC00F043F0C904651467A434F4341464143EA
S214001CD056467043CF19160CBE19B14202D980275A
S214001CE07F02C019310C12043604120C4018B618C4
S214001CF0834200D2C4E000D1BEE0191A4846861BD3
S214001D00B145BF417F42CF1BA74200D113E1291C3A
S214001D10381CFEF7C7FB019902904143381C8946E0
S214001D20291CFEF703FC330C0904194389450CD91A
S214001D30029B0919013B8C4200D9FFE0894500D877
S214001D40FCE0029F0919023F02974F46CF1B381C42
S214001D50291C0597FEF7A6FB071C0198291C78434B
S214001D6081460598FEF7E2FB36040904360C0E435E
S214001D70B14509D936197B1EB44200D9E0E0B14519
S214001D8000D8DDE0023F3619029D4946761A29043E
S214001D9039430B0457460A0C1B0C4046454658432D
S214001DA055437B437A43EB18070CDB199D4202D957
S214001DB080256D0252191D0C00041B04000C5219DC
S214001DC01B18964235D300D1FCE001231943049E2C
S214001DD0994FF519002D00DCA1E0480709D00F2324
S214001DE00B40042B05D00B1D8B42894149428B4486
S214001DF0191C5A46D20107D5904B5C46049E802794
S214001E001C40FF00A346F5198D4B9D427ADD039CCE
S214001E100122224000248B4DA146C1E680242403E3
S214001E20474627424CD13C432403240B009A854D59
S214001E30B6E63619481EB4425ED9011C9642C4D195
S214001E40009E9E42C1D1C2E7031C283B311C99402C
S214001E508B46002188E6301C00F056FE203072E6E5
S214001E60283B211C994000228846914651E6201CBA
S214001E7000F04AFE20303BE60021B14500D33DE7A6
S214001E80009F5A46B944B945BF417F423F19FB18E7
S214001E90013A9C421ED2984200D97EE000D1B5E0BD
S214001EA0191A93462AE7894500D8ADE648464646BD
S214001EB042467708D3074608C0071E438146AAE66F
S214001EC05846204212D1044324032A1C240B894678
S214001ED05C4D65E6A342E3D1009F4F45DBD9211A4E
S214001EE093460BE7171CDDE69B46BCE63C43240303
S214001EF0240B009A534D53E6B24259D800D18AE0DB
S214001F00011C62E75F46C9087B07039E0B437C0201
S214001F106D0501229946240B6D0D324040E64A4B72
S214001F20049FDB1B382B10DD039C0122224000247B
S214001F300025A14634E60121494248E7029304E71A
S214001F401F1C21E7019C039441E71F2B40DC3F4800
S214001F50049F0C1C3A1858469140DC4090402043A1
S214001F600A1C511E8A41011C11435A46DA40131CB2
S214001F70480709D00F220A40042A05D00A1D8A42C3
S214001F80894149425B18111C1A0234D5039C012270
S214001F90224000240125A14602E6009F0221494274
S214001FA0B9448B44B945894149420919CB18A4E67E
S214001FB0009D881E6900A942AD416D422C19361954
S214001FC000913AE7002B00D033E70024009437E76F
S214001FD01F4A049C5D46121BD5402A1C202B1FD08E
S214001FE01C4E5F46A3199F403B1C19434B1E99414C
S214001FF011430023BCE75A07C9080A43039F9146CA
S2140020005B0201221C0B3A400025C9E54E45C4D8A8
S2140020109346002172E6009F9F42C9D3011C0FE73A
S2140020200023E2E7802424035F463C432403240B7A
S214002030019A8946034DB3E5FF030000FFFFFFFE4C
S214002040FE070000FF07000002FCFFFF1E04000062
S214002050E2FBFFFF3E040000F0B55F4656464D46E5
S2140020604446F0B40D1C041C8046E80F8146180355
S2140020700F03000B3F0B83B084461B4800974900B4
S2140020805E00DF0F490D9246760DBB4681420CD0AE
S2140020901548864210D00120B14215D003B03CBC92
S2140020A090469946A246AB46F0BD009F01202743C6
S2140020B0F4D10D488642EED1604602430120002A44
S2140020C0ECD10120B142E9D1009B6345E6D1D04571
S2140020D0E4D1D94506D00029E0D11C43201C441E7B
S2140020E0A041DBE70020D9E7FF070000F0B55F4618
S2140020F056464D464446F0B4CD0FDE0FAC461D03A3
S2140021002D0BB146374E0F034C00AB465D008046A4
S2140021103F0B640D92466D0DB44232D0314EB5423F
S21400212035D0002C0ED1384341424141081C002DC9
S2140021300BD0002919D1CC452DD065466842012325
S214002140184318E0002DF6D1281C59460A4353427E
S2140021505341002806D1002BEDD063465842012398
S214002160184308E00020002B05D14A465042504153
S2140021704042012318433CBC90469946A246AB46D3
S214002180F0BD3E1C0643C9D002204042F3E75E463F
S2140021901643C6D0F8E7AC4207DC0BDA6146484285
S2140021A04841404201231843E5E766467042012352
S2140021B01843E0E75F450AD80ED000205F45DAD224
S2140021C0654668426841404201231843D3E76246A9
S2140021D0504201231843CEE7D045F8D80020D0451A
S2140021E0EED3C8E7FF070000F0B556464D46444616
S2140021F05F46F0B40D1C83B0041C0190E80F8146C6
S21400220018030F03000B3F0B844635480097490020
S2140022105E00DF0F490D9246760DB846814234D0F7
S2140022202F48864236D0002918D0002E1FD1341CE5
S21400223067463A4353425341002C1FD00020002BE0
S21400224005D142465042504140420123184303B054
S2140022503CBC90469946A246AB46F0BD0098044367
S21400226060426041041C002EE2D00028E9D1C1453E
S21400227015D04F46784201231843E8E7002BF6D0E6
S2140022804B46584201231843E1E7009F02202743AC
S214002290DDD1C5E7674602201743D8D1C3E7B14270
S2140022A004DD4A46504201231843D0E7B14207DB1B
S2140022B000986045E4D80AD0009F00206745C6D243
S2140022C04F4678427841404201231843BFE7019ABF
S2140022D05245D5D8019A00205245F1D3B7E7C046FB
S2140022E0FF070000F8B55F46564644464D46F0B434
S2140022F00C034D00CF0F610A440F2143C40018039E
S214002300DE0F8046B44646465800760A530F3343DF
S214002310D600D14A6D0DBA46400DB346904200D164
S214002320F5E06246012672409446674500D1ABE070
S2140023302F1A002F00DC11E100283ED15846184322
S21400234000D0F1E0600700D197E00F232340042B74
S21400235000D122E1221DA242A44164428023091931
S2140023601B04012750460B400740141C002B00D1CD
S21400237079E0B94B01359D4200D10BE1B74BE4083B
S21400238019404807490204430B0B002000211B0399
S2140023901A0B0B0D6D051B0513436A08B04DFF079E
S2140023A01D4015436D006D08291C3943201C3CBC9C
S2140023B090469946A246AB46F8BDA7488542C1D08E
S2140023C0802000040343382F00DDFDE01F2F00DDD2
S2140023D031E12020C01B1A1C5E468240FE4032437C
S2140023E094465A468240101C421E9041FB4062466C
S2140023F002431F1CA21A9442A4416442C91B091B33
S214002400141C0A029ED549024F0A002F00D1D6E0BE
S214002410381C00F079FB021C083A1F2A00DDC3E0D6
S2140024202821231C091A9740CB401F43944095420D
S21400243000DDC0E0551B691C1F2900DDEAE01F22F5
S214002440551B3B1C221CAB40CA40AC40651EAC4131
S2140024501343CF401C43391C002573E780217E4D73
S2140024600027C90300247C4B4807E4080443C90836
S2140024709D4250D009030B0B87E780231B040127DE
S21400248052460B40174071E72A1A9446002A00DC91
S214002490A1E0002854D07048854200D152E7802041
S2140024A0000403436046382800DD0EE11F2800DDE7
S2140024B057E162462020801A1E1C8640B1465E46C2
S2140024C0D6404A4632435E4686409046301C421E00
S2140024D09041424602436046C3401219A242A441BC
S2140024E0644259180919141C080200D42AE75A4BEA
S2140024F001359D4200D131E1584B60081940012357
S21400250023401C1C0443CB071C4349081AE71E4300
S21400251000D00AE705E7231C0B433BD080231B03B0
S2140025200B431B031B0B30E7013F002F6DD15E46AC
S214002530A21B9442A4416442C91A091B141C60E7FA
S2140025405846184300D1FDE601267642B44460465C
S214002550002800D0D0E05E463219BFE7002F00D03A
S21400256080E0681C4005400D012800DCE8E05A4683
S214002570A21A9442BF41C81A7F42C71B3E0200D42B
S21400258098E05846041BA3459241591A52428F1AA6
S214002590E2463AE700230024F7E680231B040127DF
S2140025A056460B403740E1E6271C28388740002473
S2140025B0954200DC3EE72949AD1A3940C2E6201CA8
S2140025C000F0A2FA203026E75A461A43531E9A41D4
S2140025D0D2B200270EE7002A00D0DEE0681C4605CF
S2140025E0760D012E00DC90E01B4DA84200D1F5E0F0
S2140025F05E463219A242A441644259180919CC0712
S214002600520814434908051C9CE61348854200D02E
S214002610D9E697E62B1C1F3B3E1CDE40331C2029C8
S2140026206FD03F22551BAF403C43601E84411C4385
S2140026300021002586E6381C20381E1CC640301CAB
S214002640202F60D04022D71BBB405A461A43531E49
S2140026509A4102430027CDE6FF070000FFFF7FFFF9
S214002660FFFF0F80002D37D0B64DA84200D18FE077
S21400267080252D047F422943382F00DDA8E01F2F38
S21400268000DD24E12025ED1B0E1CAE40B046261CC6
S214002690FE404246AC401643651EAC413443F9400A
S2140026A05A46141BA34592415B1A5242991A051CBE
S2140026B0E246A6E6131C3B43141C002B00D0A4E6FF
S2140026C00027002100250024CDE65A461A43531E53
S2140026D09A41D2B2002300E70D1C254358D0FF4391
S2140026E0002F51D15A46141BA3459241591A524203
S2140026F0891A051CE24684E69248854200D0D1E657
S21400270020E6002790E700239FE7081C2043002DC3
S21400271000D0C2E0002800D1EFE05846184300D1B0
S21400272010E658460219A242A441644259180919F3
S214002730141C0A0200D405E6834B0125194001E665
S214002740081C2043002D38D100286FD15946194364
S21400275003D0191C5C46E246F4E50027002100245D
S21400276081E6604620381A1CC2406646101C202EA1
S21400277000D1AAE04022921B93405A461A43531EA9
S2140027809A4102430023A8E66E4DA84200D073E7A4
S214002790191C5C46051CE246D4E5002D22D10D1C12
S2140027A0254376D0D543002D70D15C445C459241DC
S2140027B0591852428918051C96E600284CD15946ED
S2140027C0194300D14AE6191C5C46E2465D4DB9E560
S2140027D00C43611E8C41E4B2002161E7051C002118
S2140027E0002440E6574DA84253D055428022160496
S2140027F03143382D7BDC1F2D00DD8CE02022561B5C
S2140028000A1CB446B240261CEE403243904662464E
S2140028109440661EB44142461443E9405C445C451D
S2140028209241CB1852429918051C5DE6584618434B
S21400283000D187E55E46A71BBC429241C81A5242A9
S214002840801A060260D55846041BA3459241591AC1
S2140028505242891AE24675E55846184333D048076F
S214002860E40804438020C9080003014208D0DD08BC
S214002870054205D15946CA085C071443291CE2469E
S214002880630FC9001943E4002E4D5BE52D4A9042C4
S214002890AFD1191C5C46051C54E5002830D05846BC
S2140028A0184310D080254807E408C9082D030443C0
S2140028B02942E5D0D8082842E2D15D46EA085C07FE
S2140028C01443011CDCE71F4D3CE5002355E73D1C87
S2140028D0203D0E1CEE40351C202F2ED04026F71B28
S2140028E0B9400C43611E8C412C430021D8E60C43B2
S2140028F0611E8C41E4B2002190E7191C5C4621E57C
S214002900191C5C460F4D1DE5031C3B4300D124E714
S214002910011C3C1C16E52026764276190A1CF2405D
S2140029209046202D0BD04026751BA9400C43611EF7
S2140029308C4145462C43002170E70021D1E7002159
S214002940F4E7C046FF070000FFFF7FFF43001B0EB3
S2140029505A1C4102D2B270B54C0AC50F012A17DDC7
S214002960E02292006407090B9818002200231E0D2F
S214002970221C34050C431B494005400821400143F6
S21400298049004908ED070B1C2B43101C191C70BD91
S214002990002B15D1002C1CD0201C00F0B5F80A28FE
S2140029A01ADC0B21091A231CCB40191C031C1533F7
S2140029B09C400D4B0903181A4005090B400DD4E73F
S2140029C0002C03D06407090B0848CEE7074800210F
S2140029D0CBE700200021C8E7011C0B398C40211CE6
S2140029E00024E6E7FFFF0F8089030000FF070000D2
S2140029F0F0B54B000D03420F5B0D6D0A15435A1CD4
S214002A005205CC0FC600520D012A27DD394FDA19C0
S214002A10FE2A1ADC002A35DD8001ED00431E9841AF
S214002A202843760F3043430704D00F230340042B7C
S214002A3000D004308021C904014027D00132FF2A8B
S214002A401DD083015B0AD1B201E0FF2100235802AA
S214002A50C905400AE40708432043F0BD002B06D111
S214002A60354311D10021002043025B0AEFE72E43D5
S214002A70EBD08020ED0080042843FF22D3E7FF211F
S214002A800023E4E717320DDA05200022C008D1B291
S214002A90FF2AE9D10028D9D08023DB0303435B0259
S214002AA05B0AD4E78022144912041543C91A1F2969
S214002AB00DDC124A371C9B18281C9F4098403B1C74
S214002AC05A1E93411843CE4030430022ABE70C4FCA
S214002AD02A1CFF1AFA40171C202909D0094A981800
S214002AE08540281C3043461EB041384300229AE7F2
S214002AF00020F7E780FCFFFF9E03000082FCFFFF3C
S214002B007E030000A2FCFFFF1C2101231B04984249
S214002B1001D3000C10391B0A984201D3000A083969
S214002B201B09984201D30009043902A2105C401820
S214002B307047C046040302020101010100000000C4
S214002B400000000008B505486C23C35A026F012137
S214002B509B1803670CF0B2FA08BDC046FCE3FF1FE3
S214002B607047C046034A7423D05C01210143D15408
S214002B707047C046FCE3FF1F034A7423D05C022163
S214002B800143D1547047C046FCE3FF1F7047C04660
S214002B9010B5041C00790DF09FFE211C01C901220E
S214002BA00EF0F0F810BDC046FE21F8B58905041CED
S214002BB0FDF796FD002801D04748F8BD201C474980
S214002BC0FDF77AFD00286AD1211C201CFEF7E2F8EA
S214002BD0011CFE208005FEF707FA0EF071FD011CB1
S214002BE0201CFDF7F3FE0021041CFDF75BFD00260C
S214002BF000284DD1FE21201C8905FDF767FD002821
S214002C004BD0FE20211C8005FDF7E0FE0125041CAC
S214002C10201C3349FDF75AFD002842D0201C3149BC
S214002C20FEF7E2F92F49071C201CFEF7B3F8FE2139
S214002C308905FDF75FFD011C381CFDF7C7FE041C67
S214002C40211CFEF7A7F82849071CFEF7A3F827491A
S214002C50FDF750FD011C201CFEF79CF82449041CBF
S214002C60381CFDF747FD011C201CFDF7AFFE21496F
S214002C70FDF740FD011C002D03D01748FEF7B4F900
S214002C80011C002E02D080231B06C918081C94E7DE
S214002C9080231B06E4180126ACE70025B8E7164893
S214002CA08BE7211C201CFEF775F80F49071CFEF762
S214002CB071F80E49FDF71EFD011C201CFEF76AF890
S214002CC00B49041C381CFDF715FD011C201CFDF7E4
S214002CD07DFE011CCFE7C0460000B442000080BF66
S214002CE0A330893E3ACD133F0EB2C841EE49C142E9
S214002CF0DCE7D73F0000F0410000B4C2FE21F8B583
S214002D008905041CFDF7ECFC002801D00020F8BD66
S214002D10201C9149FDF7D0FC002873D1201C00210F
S214002D20FDF7BAFC00286BD1201C0021FDF7CEFC75
S214002D30002869D0211C201CFEF72CF8011CFE2060
S214002D408005FEF751F90EF0BBFC211CFDF73EFE98
S214002D500021041CFDF7A6FC0026002800D0F4E0A5
S214002D60FE21201C8905FDF7B1FC002800D1F1E00A
S214002D70FE20211C8005FDF729FE0125041C201CD1
S214002D807649FDF7A3FC002800D1A3E0201C744977
S214002D90FEF72AF97249071C201CFDF7FBFFFE21EF
S214002DA08905FDF7A7FC011C381CFDF70FFE041C67
S214002DB0211CFDF7EFFF6B49071CFDF7EBFF6A4987
S214002DC0FDF798FC011C201CFDF7E4FF6749041C76
S214002DD0381CFDF78FFC011C201CFDF7F7FD64492D
S214002DE0FDF788FC011C002D03D06248FEF7FCF8B6
S214002DF0011C002E02D080231B06C918081C86E77B
S214002E005C4884E75C4882E7211C201CFDF7C2FF73
S214002E10011CFE208005FEF7E7F80EF051FC211C91
S214002E20FDF7D4FD0021041CFDF73CFC002600281D
S214002E306AD1FE21201C8905FDF748FC002868D0D1
S214002E40FE20211C8005FDF7C1FD0125041C201C69
S214002E504249FDF73BFC00285DD0201C4049FEF7A8
S214002E60C3F83F49071C201CFDF794FFFE21890587
S214002E70FDF740FC011C381CFDF7A8FD041C211CB6
S214002E80FDF788FF3749071CFDF784FF3649FDF735
S214002E9031FC011C201CFDF77DFF3449041C381C46
S214002EA0FDF728FC011C201CFDF790FD3049FDF7BE
S214002EB021FC011C002D03D02E48FEF795F8011CBE
S214002EC0002E02D080231B06C918081C2A49FDF7CD
S214002ED011FC1CE7211C201CFDF75CFF2149071C88
S214002EE0FDF758FF2049FDF705FC011C201CFDF7E7
S214002EF051FF1E49041C381CFDF7FCFB011C201C5E
S214002F00FDF764FD011C6EE780231B06E41801260E
S214002F108FE700259BE7211C201CFDF73BFF11498E
S214002F20071CFDF737FF1049FDF7E4FB011C201CCA
S214002F30FDF730FF0D49041C381CFDF7DBFB011CB8
S214002F40201CFDF743FD011CB4E780231B06E41894
S214002F50012605E7002512E7000080BFA330893E62
S214002F603ACD133F0EB2C841EE49C142DCE7D73F27
S214002F700000F0410000B44200003443F8B50021E0
S214002F80041CFDF78FFB0025002868D1FE21201CBD
S214002F908905FDF79BFB002800D16CE0FE20211C74
S214002FA08005FDF713FD0126041C201C3349FDF7A0
S214002FB08DFB002839D0201C3149FEF715F8304922
S214002FC0071C201CFDF7E6FEFE218905FDF792FB97
S214002FD0011C381CFDF7FAFC041C211CFDF7DAFE68
S214002FE02849071CFDF7D6FE2749FDF783FB011C81
S214002FF0201CFDF7CFFE2549041C381CFDF77AFB84
S214003000011C201CFDF7E2FC2149FDF773FB011CA7
S214003010002E03D01F48FDF7E7FF011C002D02D04D
S21400302080231B06C918081CF8BD211C201CFDF7B0
S214003030B1FE1449071CFDF7ADFE1349FDF75AFB18
S214003040011C201CFDF7A6FE1049041C381CFDF7C9
S21400305051FB011C201CFDF7B9FC011CD8E780239E
S2140030601B06E418FE21201C89050125FDF72EFB12
S214003070002800D092E7002697E7C046A330893E96
S2140030803ACD133F0EB2C841EE49C142DCE7D73F06
S2140030900000F0410000B442F8B5051C0C1C081CEA
S2140030A00021FDF7F9FA002808D0281C0021FDF7BA
S2140030B00DFB002800D1B4E0CC48F8BD201C002150
S2140030C0FDF704FB002847D0211C281CFDF77EFCDA
S2140030D00021041CFDF7E6FA0026002800D0D9E0FF
S2140030E0FE21201C8905FDF7F1FA002800D1CFE06B
S2140030F0FE20211C8005FDF769FC0125041C201C10
S214003100BB49FDF7E3FA002800D093E0211C201C01
S214003110FDF740FEB749071CFDF73CFEB649FDF734
S214003120E9FA011C201CFDF735FEB449041C381CC6
S214003130FDF7E0FA011C201CFDF748FC011C002DE1
S21400314003D0AA48FDF750FF011C002E02D08023B2
S2140031501B06C918081CB0E7201C0021FDF7A2FAC0
S214003160002800D0B5E0211C281CFDF72FFC00210C
S214003170041CFDF797FA0026002800D010E1FE2177
S214003180201C8905FDF7A2FA002800D106E1FE20E2
S214003190211C8005FDF71AFC0125041C201C9449FF
S2140031A0FDF794FA00287AD0201C9549FDF71CFFFD
S2140031B09349071C201CFDF7EDFDFE218905FDF750
S2140031C099FA011C381CFDF701FC041C211CFDF7B4
S2140031D0E1FD8849071CFDF7DDFD8749FDF78AFA02
S2140031E0011C201CFDF7D6FD8449041C381CFDF785
S2140031F081FA011C201CFDF7E9FB8249FDF77AFAEB
S214003200011C002D03D07948FDF7EEFE011C002EB0
S21400321002D080231B06C918081C7B49FDF7E4FE74
S2140032204BE7281C0021FDF73DFA002800D0B3E04C
S214003230002042E7201C7249FDF7D6FE7049071CA5
S214003240201CFDF7A7FDFE218905FDF753FA011C9A
S214003250381CFDF7BBFB041C211CFDF79BFD6549D4
S214003260071CFDF797FD6449FDF744FA011C201C76
S214003270FDF790FD6149041C381CFDF73BFA011C64
S214003280201CFDF7A3FB5F49FDF734FA011C56E747
S214003290002534E780231B06E418012620E7211CBE
S2140032A0201CFDF777FD5349071CFDF773FD5249B7
S2140032B0FDF720FA011C201CFDF76CFD4F49041C8D
S2140032C0381CFDF717FA011C201CFDF77FFB011CBC
S2140032D097E7281C0021FDF7F9F9002800D142E7FE
S2140032E0211C281CFDF772FB0021041CFDF7DAF9EF
S2140032F00026002873D1FE21201C8905FDF7E6F97B
S214003300002871D0FE20211C8005FDF75FFB0125FB
S214003310041C201C3649FDF7D9F9002845D0201C8E
S2140033203749FDF761FE3649071C201CFDF732FDC4
S214003330FE218905FDF7DEF9011C381CFDF746FB6A
S214003340041C211CFDF726FD2A49071CFDF722FD5B
S2140033502949FDF7CFF9011C201CFDF71BFD274965
S214003360041C381CFDF7C6F9011C201CFDF72EFBBB
S2140033702449FDF7BFF9011C002D03D01B48FDF7BB
S21400338033FE011C002E02D080231B06C918081C21
S2140033901D49FDF7AFF990E61C488EE60025FDE6D0
S2140033A080231B06E4180126E9E6211C201CFDF7F5
S2140033B0F1FC1049071CFDF7EDFC0F49FDF79AF9E3
S2140033C0011C201CFDF7E6FC0C49041C381CFDF70C
S2140033D091F9011C201CFDF7F9FA011CCCE78023AB
S2140033E01B06E418012686E7002592E70000B44293
S2140033F0A330893E0EB2C841EE49C142DCE7D73F52
S2140034003ACD133F0000F041000034430000B4C240
S214003410F0B557464E464546E0B4602284B08A462C
S2140034200021041C0DF046F92B4926230B702B4E69
S21400343000234B707423F25C894601218A43F254C0
S214003440201C0123494602220DF07AF8742302ADAF
S2140034509846012703E04146735C1F4208D1201CB2
S214003460291C0DF05FF92B88002BF4D000202BE0F0
S214003470201C69460DF064F96A461378012BF7D1D3
S214003480494626220A70B9224A707422B15C201C72
S2140034909943B1540123494602220DF051F8742194
S2140034A00122735C1A42FCD0201C69460DF048F9D4
S2140034B06A461378012BF7D1DE239B0551460B6134
S2140034C0EE239B054B61012040B204B01CBC904625
S2140034D09946A246F0BDC046C8E2FF1FFCE3FF1FA8
S2140034E0F0B54F464646C0B4894683B000219046A4
S2140034F01E22061C0DF0DEF8564F2A233B70564D52
S21400350000237B707423EA5C01218A43EA54391C49
S2140035100222301C01230DF013F8742101226B5C8B
S2140035201A42FCD06C460734301C211C0DF008F9FA
S2140035302378012BF8D15B223A701F227A7074220E
S214003540A95C301C9943A9540123391C02220CF0B3
S214003550F7FF742101226B5C1A42FCD0301C211C40
S2140035600DF0EEF82378012BF8D15C223A70202279
S2140035707A707422A95C301C9943A9540123391C23
S21400358002220CF0DDFF742101226B5C1A42FCD093
S214003590301C211C0DF0D4F82378012BF8D10E2214
S2140035A03A707B707422A95C301C9943A95401239D
S2140035B0391C02220CF0C4FF742101226B5C1A42F3
S2140035C0FCD0301C211C0DF0BBF82378012BF8D161
S2140035D02B223A7002227A707422A95C301C99431E
S2140035E0A9540123391C02220CF0AAFF74210122DF
S2140035F06B5C1A42FCD0301C211C0DF0A1F823781D
S214003600012BF8D12A223A700D227A707422A95C16
S214003610301C9943A9540123391C02220CF090FF58
S214003620742101226B5C1A42FCD0301C211C0DF068
S21400363087F82378012BF8D1E4234A469B0553628A
S214003640064B4246D363064B136403B00CBC90464D
S2140036509946F0BDC8E2FF1FFCE3FF1FCDCCCC3D72
S21400366000002041F0B5474680B4202282B088464C
S2140036700021061C0DF01EF82C4F13233B702C4D1A
S21400368000237B707423EA5C01218A43EA54391CC8
S2140036900222301C01230CF053FF742101226B5CC4
S2140036A01A42FCD06C460734301C211C0DF048F83A
S2140036B02378012BF8D10D223A7000227A707422FA
S2140036C0A95C301C9943A9540123391C02220CF032
S2140036D037FF742101226B5C1A42FCD0301C211C7F
S2140036E00DF02EF82378012BF8D113223A7002221F
S2140036F07A707422A95C301C9943A9540123391CA2
S21400370002220CF01DFF742101226B5C1A42FCD0D1
S214003710301C211C0DF014F82378012BF8D1054B32
S2140037204246936102B004BC9046F0BDC8E2FF1F5B
S214003730FCE3FF1FCDCC4C3DF0B5602283B00F1CE0
S2140037400021051C0CF0B6FF1D4E01221D4C3270E8
S2140037507423E15C281C9143E1540122311C0023B0
S2140037600CF0EEFE74200121235C74221942FBD07B
S214003770A35C02218B43A354311C0522281C012381
S2140037800CF03CFF74210222635C1A42FCD0281C19
S21400379069460CF0D5FF6A461378012BF7D172788C
S2140037A0337812041B061343B278120213433B60AD
S2140037B0F37832791B0213437B8303B0F0BDC04617
S2140037C0C8E2FF1FFCE3FF1FF0B5474680B48846FB
S2140037D082B00021171C1E22061C0CF06BFF404D09
S2140037E00122404C2A707423E15C301C9143E15462
S2140037F00122291C00230CF0A3FE74200121235C67
S21400380074221942FBD0A35C02218B43A354291CCB
S2140038100C22301C01230CF0F1FE74210222635CA2
S2140038201A42FCD0301C69460CF08AFF6A461378B0
S214003830012BF7D12E786B7836021E4343461E8541
S214003840AC78EB78240242461C43548528796B7981
S214003850000218439085A979EB790902194344239D
S214003860F9522A7A6B7A12021A434623FA52AB7A34
S214003870ED7A1B022B4348257B531B4D36B2AE42D6
S2140038802AD0194D24B2AC4222D0174C00B2A04226
S2140038901AD0154809B2814212D0134912B28A4290
S2140038A00AD0114A1BB2934202D1104A4823FA5258
S2140038B002B004BC9046F0BD0C494622B952F0E76F
S2140038C00A4844217852E8E708484646B085E0E7CB
S2140038D0064C45466C85D8E7044D46463585D0E708
S2140038E0C8E2FF1FFCE3FF1F0080FFFF0180FFFF11
S2140038F0F0B5474680B4884682B00021171C2022C7
S214003900051C0CF0D7FE314E0122314C3270742368
S214003910E15C281C9143E1540122311C00230CF089
S2140039200FFE74200121235C74221942FBD0A35C95
S21400393002218B43A354311C0622281C01230CF0C1
S2140039405DFE74210222635C1A42FCD06946281C84
S2140039500CF0F6FE69460B78012BF7D130787B0029
S2140039607478DA1952000002424420439083B078FB
S214003970F47800022043D083307974790002204323
S214003980111C10841C22885E124A183190421AD0EC
S214003990DA19520042441E21505E0E491A328842FD
S2140039A00ED0DB195B0043442022995E094A1C3383
S2140039B0914201D1084A9A8002B004BC9046F0BDFC
S2140039C005499180EDE7044A8A80E1E7C8E2FF1FD7
S2140039D0FCE3FF1F0080FFFF0180FFFFF8B5E14B0F
S2140039E04F464646C0B4171C0022041CC252081C90
S2140039F0FDF790FC011CFE208005FCF7E7FFDA4B84
S214003A00051CE050381CFDF785FC011C281CFDF742
S214003A10C1F99023DB00D54A011CE0509146FDF722
S214003A20B9F94B46E050FA278F23BF05DB00E75075
S214003A30CF4A9123DB00E250CE4B0025E55082238F
S214003A40DB00E550CC4B9046E5508323DB00E55089
S214003A50CA4BCB4AE5508423DB00E5508523DB00C8
S214003A60E550C84B201CE5508623DB00E550C64BCE
S214003A701430E5508723DB00E550C44B0026E550A4
S214003A808823DB00E550C24BE5508923DB00E55078
S214003A908A23DB00E550BF4BE5508B23DB00E55067
S214003AA0BD4BE5508C23DB00E550BC4BE5508D2329
S214003AB0DB00E550BA4BE5508E23DB00E550FE23D5
S214003AC09B05A350B74AA350B74AA35007F00CFE75
S214003AD0201C38300AF032FB231C64331E705E70E4
S214003AE09E70DE701E715E719E71DE711E725E7259
S214003AF09E72DE7280331E705E709E70DE701E7167
S214003B005E719E71DE711E725E729E72DE72683B20
S214003B101E705E709E70DE701E715E719E71DE712C
S214003B201E725E729E72DE720C3B1E705E709E701F
S214003B30DE701E715E719E71DE711E725E729E7206
S214003B40DE724B46E0589949FDF724F94146FDF7E9
S214003B5021F99749FCF7CEFD8A235B00E050B3239A
S214003B609B00E550B4239B00E550B6239B00E55030
S214003B70B7239B00E550B8239B00E550B9239B0074
S214003B80E550BA239B00E550BB239B00E550BD23C0
S214003B909B00E550BE239B00E550C0239B00E550EC
S214003BA0C1239B00E550C2239B00E550C3239B0026
S214003BB0E550C4239B00E550C5239B00E550C72372
S214003BC09B00E550C8239B00E550CA239B00E550A8
S214003BD0CB239B00E550CC239B00E550CE239B00D7
S214003BE0E550CF239B00E550D1239B00E550D22320
S214003BF09B00E550D3239B00E550D4239B00E55063
S214003C00D5239B00E550D6239B00E550D8239B0088
S214003C10E550D9239B00E550DB239B00E550DC23D1
S214003C209B00E550DD239B00E550DE239B00E5501E
S214003C30DF239B00E550E0239B00E550E2239B003A
S214003C40E550E3239B00E550E5239B00E550E62383
S214003C509B00E550E7239B00E550E8239B00E550DA
S214003C60E9239B00E550EA239B00E550EB239B00ED
S214003C70E550EC239B00E550ED239B00E550EF2339
S214003C809B00E550F0239B00E550F1239B00E55098
S214003C90F2239B00E550F3239B00E550F4239B00A2
S214003CA0E550F5239B00E550F6239B00E550F723EF
S214003CB09B00E550F9239B00E550FA239B00E55056
S214003CC0FB239B00E550FC239B00E550FD239B0057
S214003CD0E550FE239B00E550FF239B00E550802324
S214003CE0DB00E550334B344AE550B2239B00E250EC
S214003CF0D0239B00E750CD239B00E550B5239B00C7
S214003D00E550EE212D4B89006350BC21890062509E
S214003D10DA2189006750D72189006550BF218900C4
S214003D206550F82189006350C62189006250E4225C
S214003D309200A750E1229200A550C9229200A550F9
S214003D408122D200A3501E4B5A79032A02D804229D
S214003D505A711A711B4B0022E2540CBC90469946CD
S214003D60F8BDC0468C0400007C04000084040000FB
S214003D709A99993E0C040000140400001C040000EC
S214003D80740400002C040000340400003C0400000E
S214003D9044040000540400005C04000064040000B6
S214003DA06C0400004C040000240400000FB59F398A
S214003DB0D5E8D538040400000AD7A33C17B7D13895
S214003DC078E4FF1F8E040000F0B547469846FD4B8A
S214003DD080B40F1C0021041CC152101CFDF79AFA77
S214003DE0011CFE208005FCF7F1FDF74B051CE0509A
S214003DF04046FDF78FFA011C281CFCF7CBFFF34B5F
S214003E00011CE050FCF7C6FFF14BF24AE050FA23E3
S214003E109B05A35082221201A350EF4A83231B0165
S214003E20E250D7230025DB00E550EC4BE722E550B7
S214003E30D823DB00E550EA4BD200E550D923DB005F
S214003E40E550E84B201CE550E74B1430E550DB23EB
S214003E50DB00E550E54B0026E550DC23DB00E550B3
S214003E60E34BE550DD23DB00E550E24BE550DE2377
S214003E70DB00E550E04BE550DF23DB00E550DF4B91
S214003E80E550E023DB00E550E123DB00E550DC4BAA
S214003E90E550E223DB00E550DA4BE550E323DB0098
S214003EA0E550D94BE550E423DB00E550D74BE55011
S214003EB0E523DB00E550D64BE550E623DB00E55076
S214003EC0D44BE550D44BE550E823DB00E550D34B0C
S214003ED0E550E923DB00E550D14BE550EA23DB0053
S214003EE0E550D04BE550EB23DB00E550CE4BE550DC
S214003EF0EC23DB00E550CD4BE550ED23DB00E55031
S214003F00EE23DB00E550CA4BE550EF23DB00E5501F
S214003F10C84BE550F023DB00E550C74BE550F123D6
S214003F20DB00E550C54BE550F223DB00E550C44B03
S214003F30E550F323DB00E550C24BE550C24BE5509D
S214003F40F523DB00E550C14BE550F623DB00E550DA
S214003F50BF4BE550F723DB00E550BE4BE550F8239A
S214003F60DB00E550BC4BE550F923DB00E550BB4BCE
S214003F70E550FA23DB00E550FE239B05A350B84A24
S214003F80A350DA22D200A350B64BB74AA350F4226D
S214003F90D200A350B54AA35007F0A6FB201C383029
S214003FA00AF0CCF8231C64331E705E709E70DE70C0
S214003FB01E715E719E71DE711E725E729E72DE7280
S214003FC030331E705E709E70DE701E715E719E7164
S214003FD0DE711E725E729E72DE721E735E739E735A
S214003FE0DE731E745E749E74DE741E755E759E753A
S214003FF0DE75183B1E705E709E70DE701E715E7100
S2140040009E71DE711E725E729E72DE720C3B1E70B8
S2140040105E709E70DE701E715E719E71DE711E7225
S2140040205E729E72DE72B823E550002F00D045E225
S2140040308F4A82235B00E25084235B00E550862390
S2140040405B00E550624B8B49E058FCF7A3FE6249E3
S214004050051CFCF79FFE8849FCF74CFB88235B0099
S214004060E0508349281CFCF795FE8149FCF792FE38
S2140040705949FCF78FFE8149FCF73CFB8A235B001D
S2140040807F4AE0500023A3509022D200A3509122F2
S214004090D200A3507B4A7C4DA3509222D200A3505C
S2140040A07A4AFA20A3509322D200A350784A800579
S2140040B0A3509422D200A350764A7749A350952263
S2140040C0D200A3509622D200A350744A744EA35036
S2140040D0744AA3509822D200A350734AA350992240
S2140040E0D200A350714AA3509A22D200A350704A1D
S2140040F0A3509B22D200A3506E4AA3506E4AA350F0
S2140041009D22D200A3509E22D200A3506B4AA350F9
S2140041109F22D200A3506A4AA350A022D200A350E6
S214004120684AA350684AA350A222D200A350A322F2
S214004130D200A350654AA350A422D200A350644ADA
S214004140A350A522D200A350624AA350A622D200B2
S214004150A350614AA350A722D200A350A822D2009F
S214004160A3505E4AA3505E4AA350AA22D200A35090
S2140041705C4AA350AB22D200A3505B4AA350AC22A9
S214004180D200A350594AA350AD22D200A350584A99
S214004190A350584AA350AF22D200A350B022D20058
S2140041A0A350554AA350B122D200A350534AA3505D
S2140041B0B222D200A350524AA350B322D200A35038
S2140041C0A0E0C046340800002408000028080000CC
S2140041D02C0800001C0800009A99993EBC060000B6
S2140041E0C4060000CC060000D4060000DC06000072
S2140041F0E4060000EC060000F4060000FC060000E2
S2140042000C070000140700001C070000240700002D
S2140042102C070000340700003C070000440700009D
S2140042204C070000540700005C070000640700000D
S214004230740700007C070000840700008C0700005D
S214004240940700009C070000A4070000AC070000CD
S214004250B4070000BC070000C4070000CC0700003D
S21400426004070000000080BFD40700006C070000B1
S214004270000048420FB59F39D5E8D5389A99193FBE
S2140042807C0400008C0400000AD7A33C94040000C1
S2140042909C040000A404000017B7D138B404000042
S2140042A04C060000BC040000C4040000CC0400005F
S2140042B0D4040000DC040000E4040000F404000061
S2140042C0FC040000040500000C0500001C050000AE
S2140042D0240500002C0500003405000044050000FD
S2140042E04C050000540500005C0500006405000055
S2140042F06C05000074050000840500008C050000B5
S21400430094050000734AA350B422D200A350724A08
S214004310A350B522D200A350704AA350704AA350AF
S214004320B722D200A3506F4AA350B822D200A3509F
S2140043306D4AA350B922D200A3506C4AA350BA22A9
S214004340D200A3506A4AA350BB22D200A350694AA7
S214004350A350BC22D200A350BD22D200A350664A6E
S214004360A350BE22D200A350644AA350BF22D2005C
S214004370A350634AA350C022D200A350614AA35060
S214004380C122D200A350604AA350C222D200A3503A
S2140043905E4AA3505E4AA350C422D200A3505D4A90
S2140043A0A350C522D200A3505B4AA350C622D20017
S2140043B0A3505A4AA350C722D200A350584AA3502B
S2140043C0C822D200A350574AA350C922D200A350F5
S2140043D0CA22D200A350544AA350CB22D200A350E4
S2140043E0524AA350CC22D200A350514AA350CD2209
S2140043F0D200A3504F4AA350CE22D200A3504E4A1A
S214004400A350CF22D200A3504C4AA3504C4AA350EC
S214004410D122D200A3504B4AA350D222D200A3509E
S214004420494AA350D322D200A350484AA350D422CC
S214004430D200A350464AA350D522D200A350454AE4
S214004440A350D622D200A3508F22D200A550424AB3
S214004450A050A122D200A350404AA350B622D200B8
S214004460A1503F4AA2513F4EA551A926F600A051A1
S2140044703D4EA3519726F600A3513C4EA151D0269F
S214004480F600A2519C26F600A551394D6051AE208B
S214004490C000235037482350C323DB00E150364B7F
S2140044A0E250364B5A79042A02D805225A711A71FC
S2140044B0334B0022E25404BC9046F0BD82235B00DE
S2140044C0E550304A84235B00E25086235B00E550CB
S2140044D0B8E5C0469C050000A4050000AC05000039
S2140044E0B4050000BC050000C4050000CC050000B3
S2140044F0D4050000DC050000EC050000F405000013
S214004500FC050000040600000C060000140600006F
S2140045101C060000240600002C06000034060000DE
S2140045203C06000044060000540600005C0600003E
S214004530640600006C060000740600007C0600009E
S214004540840600008C060000940600009C0600000E
S214004550A4060000AC060000140500008404000059
S2140045609A99193FAC0400003C050000E4050000E1
S2140045707C050000EC040000B406000078E4FF1F91
S2140045803608000000004842F8B514254557041CBC
S2140045900F1C161C002D06D00A4B83600A4BC36006
S2140045A000230375F8BD081CE268211C331C083084
S2140045B009F004FC381C0C30211DE268331C09F09D
S2140045C0FDFBEFE70AD7233D0D74DA3C70B5041CFB
S2140045D0A020255682B0161C002D36D1251C643529
S2140045E01831281C002B39D0012B62D007F096FF1B
S2140045F0281C2435291C08F0DFFF9C23211CE258C8
S214004600281C5431503D01969823261CE3580091EF
S2140046101436291C09F05CF9301C291C09F06CF8CA
S214004620211C281C483109F0F7F8231C0C33009392
S21400463004330193221D301C211C083B08F034FE75
S2140046400023E360A36002B070BD2F4A9823E250B7
S2140046502E4A9C23E25000232354F4E707F02EFE54
S214004660281C2435291C08F0A7FF9C23211CE2588F
S2140046700196281C5431503D261C9823E35800917F
S2140046801436291C09F024F9301C291C09F034F8CA
S214004690211C281C483109F0BFF8231C0C3300935A
S2140046A004330193221D301C211C083B08F010FD2A
S2140046B0C6E707F099FE281C2435291C08F07CFF65
S2140046C09C23211CE2580196281C5431503D261C80
S2140046D09823E35800911436291C09F0F9F8301C89
S2140046E0291C09F009F8211C281C483109F094F807
S2140046F0231C0C33009304330193221D301C211C11
S214004700083B08F05BFD9BE70AD7233DCCCC4C3E2C
S214004710F0B5041CA020205683B0151C002811D02C
S214004720504A9823E250504A9C23E2504F4B5A7905
S214004730002A02D101225A711A710022A023E254E3
S21400474003B0F0BD261C64363031301C002B2ED052
S214004750012B59D0271C883708F004F8301C391C68
S21400476008F02AFF9C23211CE2582C3E0195543168
S214004770251C9823E3580091381C311C143509F089
S214004780A7F8281C311C08F0B7FF211C301C483144
S21400479009F042F8211C0C31231C009104310191D0
S2140047A0221D0833281C211C08F07EFDC8E7271CA4
S2140047B0883707F06BFF301C391C08F0FDFE9C2381
S2140047C0211CE2582C3E01955431251C9823E358B1
S2140047D00091381C311C143509F07AF8281C311C5D
S2140047E008F08AFF211C301C483109F015F8211CFE
S2140047F00C31231C009104310191221D0833281C22
S214004800211C08F065FC9BE7271C883707F074FF1F
S214004810301C391C08F0D0FE9C23211CE2582C3E8C
S21400482001955431251C9823E3580091381C311CFF
S214004830143509F04DF8281C311C08F05DFF211CCA
S214004840301C483108F0E8FF211C0C31231C009175
S21400485004310191221D0833281C211C08F0AEFCEF
S2140048606EE7C0460AD7233D8888883D78E4FF1F58
S214004870F0B54D4644465F465646F0B489B00393BD
S21400488012AB89460022995E7C230291C35680466D
S214004890002B00D076E04B46DB6849464A4609695D
S2140048A043655269029B8165C265002B00DC9FE070
S2140048B0382364229B469246C244C3440027002302
S2140048C05E00F6184946760042468D694E44546F9F
S2140048D01C23F05EFCF71EFD291CFCF75BFA211C6E
S2140048E0FCF758FA05901E21705EFCF713FD291C94
S2140048F0FCF750FA211CFCF74DFA06902022B05E19
S214004900FCF708FD011C281CFCF744FA011C201CBF
S214004910FCF740FAFE22079005A95046920508F0DB
S21400492081FD01375146584609F002FBFFB2029955
S2140049307BB28B42C4DB44465846143409F094FBE1
S214004940201C594608F0D8FE41465846483108F023
S21400495063FF039A002A2FD0012A3BD041460C3130
S2140049604246434600910431019104320833201C2C
S214004970414608F099FC09B03CBC90469946A246D0
S214004980AB46F0BD1C4B41464B671C4B40468B6705
S214004990143006F0A9FE4046383009F0CFFB184B1D
S2140049A05A79012A04D900227C234146CA54E2E7F8
S2140049B002225A711A71F6E741460C3142464346C6
S2140049C000910431019104320833201C414608F05E
S2140049D07FFBD0E741460C31424643460091043106
S2140049E0019104320833201C414608F0E7FBC2E779
S2140049F038218B46C3449EE70AD7A33B0AD7233DFC
S214004A0078E4FF1FF0B5474680B482B0041C08A8BF
S214004A101D1C0023C65EA8202056002813D0624A1C
S214004A20A023E250614AA423E250614B5A79022A3D
S214004A3002D803225A711A710022A823E25402B047
S214004A4004BC9046F0BD002E40D0012E75D030310B
S214004A50261C271C8C466437131C9836624618336F
S214004A60381C311C08F0ACF9381C2437391C08F007
S214004A70A3FDA423211CE258381C5431503FA02328
S214004A80E35800910195391C08F022FF14231B19E6
S214004A90181C391C984608F02FFE211C381C48317B
S214004AA008F0BAFE231C0C33009304330193221D36
S214004AB04046211C083B08F0F7FB211CA423E258C3
S214004AC09C31301C2B1C09F079F9B8E7261C3031D4
S214004AD0271C8C4664379836131C18336246381CDD
S214004AE0311C07F075FE381C2437391C08F064FDAD
S214004AF0A423211CE258381C5431503FA023E3580D
S214004B0000910195391C08F0E3FE14231B19181CAC
S214004B10391C984608F0F0FD211C381C483108F076
S214004B207BFE231C0C33009304330193221D404666
S214004B30211C083B08F0CCFABFE7261C3031271CA6
S214004B408C4664379836131C18336246381C311C62
S214004B5007F0BAFF381C2437391C08F02DFDA423B3
S214004B60211CE258381C5431503FA023E3580091D2
S214004B700195391C08F0ACFE14231B19181C391CAF
S214004B80984608F0B9FD211C381C483108F044FE50
S214004B90231C0C33009304330193221D4046211C32
S214004BA0083B08F00BFB88E70AD7233D8888883D3A
S214004BB078E4FF1FF0B55F464D4644465646F0B4CF
S214004BC0B5B00E933EAB834607910021585EE94B85
S214004BD090465A46D3568146002B01D000F0C2FFBD
S214004BE0E54B5C46E35E002B1CD10E9C002C01D1ED
S214004BF000F0C1FF012C01D101F014F85C460799C2
S214004C001434201C0C310D9407F088FC5C463834B4
S214004C100D98211C0B9408F0CFFCD74B0122584668
S214004C20C25204E05C4614340D9424340B945A4665
S214004C304146C868516EFCF7D7F944465B46996E04
S214004C4058652069FCF7D0F9594688656069C96ED1
S214004C50FCF7CAF95A46D065B8320892131C0B9A6C
S214004C6013CA13C312685C461A60C8344A460694D0
S214004C70002A4CDDC14800275C460023CB4682460E
S214004C80B9465F00FF1841467F008E69474452468A
S214004C901C23F85EA558FCF73DFB311CFCF77AF8A0
S214004CA0616EFCF7A1F9291CFCF774F813901E211D
S214004CB0785EFCF72FFB311CFCF76CF8A16EFCF756
S214004CC093F9291CFCF766F814902022B85EFCF7CE
S214004CD021FB011C301CFCF75DF8E16EFCF784F943
S214004CE0011C281CFCF756F8FE22159013A90698FE
S214004CF0920508F097FB0898069909F019F94B46B3
S214004D000133DBB299465BB25B45BADBA346584635
S214004D109430089908F0F0FC0E9C9C23002C01D1DE
S214004D2000F0D5FE5846022C01D100F02EFFC458E4
S214004D30802109066418FC23C450FC21D823C058DF
S214004D408905FCF727F884235A465B00D050079B5A
S214004D50D968FCF749F9211CFCF746F95C46F023B4
S214004D60E050A823E45880200006802324185946E3
S214004D705B00CC50DC23C858FC218905FCF70AF8F8
S214004D8086235A465B00D050079B1969FCF72CF91E
S214004D90211CFCF729F95C46F423E050B423E458C0
S214004DA0802000068223594624185B00CC50E0235E
S214004DB0C858FC218905FBF7EDFF88235B005A469F
S214004DC0D050079B5969FCF70FF9211CFCF70CF92A
S214004DD05C46F823E05082235B00E0586849FBF706
S214004DE0D9FF82235A46DB00D05080235B00071C85
S214004DF06449E058FBF7CEFF634B5C46E050FC236B
S214004E00061C5F49E058FBF7C5FF8723DB00E05030
S214004E10051C8020000686233A18DB00E2505B4B18
S214004E203218E2508B232A18DB00E2509023DB0076
S214004E30E4582418211C381CFBF7ACFF544B594689
S214004E40C850071C211C301CFBF7A4FF8423DB0082
S214004E505A46D050211C061C281CFBF79BFF4D4BC6
S214004E605C468021E05009064B4B7F18E7508C23A8
S214004E70DB007618E650494B4018E050B2239B0002
S214004E801C1C5C444648231C099437AC0A94041C3A
S214004E901CAA5C4492461F1C07940C204042804685
S214004EA00799D0448946464600223260B046002420
S214004EB04E4609E041460868291CFBF71BFC4246A3
S214004EC010600434242C26D03D590021281CFBF702
S214004ED0E3FB0028F5D133590021181C9946FBF74F
S214004EE0DBFB0028EDD1FE2148468905FBF7D4FB05
S214004EF00028DFD148462B49FBF7CEFB002800D11F
S214004F00B2E143461868291CFCF76EF804344146A3
S214004F100860242CD8D1B14646460436A1445645EE
S214004F20C2D10C20B04682460A9CC2442437A24511
S214004F30B3D18C2149000C1C5C448620C0000F9421
S214004F400A940024804607945C46D8440C94242196
S214004F50079A0A9849428B468146C344924655B200
S214004F60474600214846AD0019AA016055195C461F
S214004F7025E0C0468E0400008C0400007C0400007F
S214004F8035FA8E3C35FA8EBC14040000540400003A
S214004F901C040000440400003C04000064040000FC
S214004FA00C040000000080BF494608684146FBF735
S214004FB0A1FB4A46106004340C35BC4227D0266854
S214004FC00021301CFBF768FB0028F4D12B68002179
S214004FD0181C9846FBF760FB0028ECD1FE21301C1D
S214004FE08905FBF759FB0028DED1301CA749FBF7E3
S214004FF053FB002800D12BE14B4618684146FBF7CF
S214005000F3FF0434494608600C35BC42D7D15346FA
S2140050100133DBB204205DB281449A46022DA0DD46
S214005020079B2434A0460A9C0133DBB228340A943A
S2140050305CB20793032C8AD10C988A235B00C6586F
S2140050408C256D008346311C4059FBF753FBA0238B
S2140050505B005A4699465B4650514B441968301CD3
S214005060FBF748FB59464944B42708607F005A4678
S214005070D159301CFBF73EFB8E265B46D851760096
S21400508098599E225200902798507F00DB59B020F6
S214005090594640000B50A2235B00CB58B222520068
S2140050A08B509E200F9BB022400052001693011C8E
S2140050B0131C59445B44079117911893009416A843
S2140050C010A912AB11AA06F0C3FE97239B001C1C66
S2140050D05C4419A800210A9480468A46AAE08C23DC
S2140050E05A465B00D158381CFBF754FE0021FBF7EC
S2140050F001FB8146206041464E680021301CFBF7CC
S214005100CBFA00280CD19E235A465B00D158301C9F
S214005110FBF740FE011C4846FBF7ECFA8146206090
S214005120404685680021281CFBF7B6FA00280AD1FD
S214005130B0235A465B00D158281CFBF72BFE494685
S214005140FBF7D8FA2060504660600021381CFBF759
S214005150A3FA002800D093E08E235A465B00D1586D
S214005160381CFBF717FE0021FBF7C4FA8146606087
S214005170301C0021FBF790FA00280CD1A0235A46D9
S2140051805B00D158301CFBF705FE011C4846FBF7B8
S214005190B1FA81466060281C0021FBF77DFA0028E2
S2140051A00AD1B2235A465B00D158281CFBF7F2FD01
S2140051B04946FBF79FFA60605046A0600021381C05
S2140051C0FBF76AFA00285ED190235A465B00D15856
S2140051D0381CFBF7DFFD0021FBF78CFA071CA060EC
S2140051E0301C0021FBF758FA00280CD1A2235B00E4
S2140051F05A46D158301CFBF7CDFD011C381CFBF776
S21400520079FA071CA060281C0021FBF745FA002845
S2140052100AD1B4235B005A46D158281CFBF7BAFDC6
S214005220391CFBF767FAA06009980C230C349844E5
S214005230A0422DD043461F6852462260381C0021EB
S214005240FBF72AFA002800D149E70020814652E7FA
S2140052504146301CFBF79EFD4A46011C1068FBF7D2
S21400526049FA4B461860A6E64946281CFBF792FD0D
S2140052704246011C1068FBF73DFA4346186020E6DC
S2140052800020814674E70027AAE7C046000080BFDA
S2140052905946F023CD58F423CC58F823CF58A023F2
S2140052A09B00C958281CFBF775FD0021FBF722FA66
S2140052B0A1239B005A46D158061C201CFBF76AFD0A
S2140052C0011C301CFBF716FAA9239B005A46D1583E
S2140052D08046281CFBF75EFD0021FBF70BFAAA238D
S2140052E09B005A46D158061C201CFBF753FD011C98
S2140052F0301CFBF7FFF997239B005A46D15881468E
S214005300281CFBF747FD0021FBF7F4F998239B00C8
S2140053105A46D158061C201CFBF73CFD011C301CCD
S214005320FBF7E8F999239B005A46D158061C381C0F
S214005330FBF730FD011C301CFBF7DCF95B461867F9
S214005340A2239B005A46D158381CFBF723FD011CAC
S2140053504046FBF7CFF95B46D867AB239B005A461F
S214005360E420D1588246381CFBF714FD011C484641
S214005370FBF7C0F95B4653441860A3239B005A46CC
S214005380D158281CFBF706FD0021FBF7B3F9A42330
S2140053909B005A46D158061C201CFBF7FBFC011C40
S2140053A0301CFBF7A7F9AC239B005A46D158804621
S2140053B0281CFBF7EFFC0021FBF79CF9AD239B00B4
S2140053C05A46D158061C201CFBF7E4FC011C301C76
S2140053D0FBF790F99A239B005A460C90D158281C4C
S2140053E0FBF7D8FC0021FBF785F99B239B005A4668
S2140053F0D158061C201CFBF7CDFC011C301CFBF70B
S21400540079F99C239B005A46D158061C381CFBF79A
S214005410C1FC011C301CFBF76DF95B465867A523E1
S2140054209B005A468020D1588146381CFBF7B2FCB8
S214005430011C4046FBF75EF95B464B441860AE2302
S2140054409B005A46E820D1588046381CFBF7A2FC41
S214005450011C0C98FBF74EF95B4643441860A623E4
S2140054609B005A46D158281CFBF794FC0021FBF7FA
S21400547041F9A7239B005A46D158061C201CFBF76F
S21400548089FC011C301CFBF735F9AF239B005A46FC
S214005490D1580C90281CFBF77DFC0021FBF72AF95D
S2140054A0B0239B005A46D158061C201CFBF772FC02
S2140054B0011C301CFBF71EF99D235A469B00D15851
S2140054C0061C281CFBF766FC0021FBF713F99E233D
S2140054D09B00051C201C5C46E158FBF75BFC011C8E
S2140054E0281CFBF707F99F239B005A46D158041C3B
S2140054F0381CFBF74FFC011C201CFBF7FBF85B4637
S2140055009867A8239B005A46D158381CFBF742FCE4
S214005510011C0C98FBF7EEF884245B461851B12367
S2140055209B005A46D158381CFBF734FC011C301C33
S214005530FBF7E0F8EC255B46594658517031069863
S214005540A34A07F06FFF069A08990B9808F04CFCE0
S2140055500B9808F089FD0D980B9908F0CDF8594680
S2140055600B98483108F058F95946486EC96FFBF752
S2140055703BFD84235A465B005066D0585B46534436
S2140055801968FBF731FD5A46D82359464A44C85095
S214005590886E1168FBF728FD5B4698665A46862398
S2140055A042445B005946C8581168FBF71DFDDC23D2
S2140055B05946C850C86E0959FBF716FD88235A4647
S2140055C05B005159D066D058FBF70EFD5C46E023D1
S2140055D0E0505B460C330E9C5A460093043301930E
S2140055E004320D985946083B002C00D1B7E2012C36
S2140055F000D1BDE207F058FED4204000079C011CF5
S21400560059445B4607910893A346B4218900242099
S21400561040420C1CBD218146890009985C4488469E
S214005620D94406948246D84400234A461360554619
S214005630069C47460AE0494608684146FBF75AF882
S2140056404A46106004342435A74226D02668002136
S214005650301CFBF721F80028F4D12868002180468A
S214005660FBF71AF80028EDD1FE21301C8905FBF760
S21400567013F80028DFD1301C5549FBF70DF8002839
S21400568000D199E04B4618684146FBF7ADFC043460
S214005690494608602435A742D8D10424A144B84618
S2140056A0A244D945C0D124208346079CCB44A345B9
S2140056B0ABD10A9908988846099A0F990023924612
S2140056C0994606908B464E46544675B2AD005D44EC
S2140056D02F680021381CFAF7DFFF002809D143465F
S2140056E01968381CFBF756FB011C2068FBF77CFC8E
S2140056F020606F6A0021381CFAF7CEFF002809D117
S21400570042465168381CFBF745FB011C2068FBF736
S2140057106BFC2060AD6C0021281CFAF7BDFF00284A
S21400572009D143469968281CFBF734FB011C206806
S214005730FBF75AFC20600136F6B275B20434082D29
S214005740C4DD4B460133DBB228240C209946A24424
S2140057508044092BB7D106998E2252008B46161C20
S21400576000235E441D1C9C46B0460F1CD6246400D5
S214005770231C43441A684346043B1A6063460133BD
S214005780DBB29C465BB2092B24D0D82149000C1C06
S214005790444440466246DE00F3185B1902CC4633AA
S2140057A001329B00D2B2D95153B202C0092BF2D1BA
S2140057B0282201359044D9E74146301CFBF7EAFA27
S2140057C04A46011C1068FAF795FF4B46186039E701
S2140057D0000080BFB32200239200BB50B422920088
S2140057E0BB50B6229200BB50B7229200BB50B822E4
S2140057F09200BB50B9229200BB50BA229200BB5016
S214005800BB229200BB50BD229200BB50BE2292002B
S214005810BB50C0229200BB50C1229200BB50C22295
S2140058209200BB50C3229200BB50C4229200BB50D1
S214005830C5229200BB50C7229200BB50C8229200DD
S214005840BB50CA229200BB50CB229200BB50CC2247
S2140058509200BB50CE229200BB50CF229200BB508B
S214005860D1229200BB50D2229200BB50D32292008B
S214005870BB50D4229200BB50D5229200BB50D622F9
S2140058809200BB50D8229200BB50D9229200BB5047
S214005890DB229200BB50DC229200BB50DD2292003D
S2140058A0BB50DE229200BB50DF229200BB50E022AB
S2140058B09200BB50E2229200BB50E3229200BB5003
S2140058C0E5229200BB50E6229200BB50E7229200EF
S2140058D0BB50E8229200BB50E9229200BB50EA225D
S2140058E09200BB50EB229200BB50EC229200BB50C1
S2140058F0ED229200BB50EF229200BB50F0229200A5
S214005900BB50F1229200BB50F2229200BB50F32211
S2140059109200BB50F4229200BB50F5229200BB507E
S214005920F6229200BB50F7229200BB50F92292005A
S214005930BB50FA229200BB50FB229200BB50FC22C6
S2140059409200BB50FD229200BB50FE229200BB503C
S214005950FF229200BB508022D200BB50B64ABB4604
S214005960BB50B64B5C46FE589123DB00FF58902395
S214005970DB00E5588F23DB00E458C82359465B005C
S214005980CB58802000062D18391C181C9846FAF7AC
S214005990B1FE311CFBF7FEF98C235A465B00011C56
S2140059A0D058FAF7A7FEB2239B005946C850404687
S2140059B0A349FAF79FFED0235A469B00D050291CD5
S2140059C0FBF7E8F9CD2359469B00C850B5239B004A
S2140059D0C85082239B00C958201CFBF7DBF9994965
S2140059E0FAF788FEEE235A469B00D050DC235B0075
S2140059F0D358391C181C9846FAF77CFE311CFBF766
S214005A00C9F9A0235A465B00011CD058FAF772FE6B
S214005A10BC239B005946C85040468949FAF76AFE9F
S214005A20DA235A469B00D050291CFBF7B3F9D7233C
S214005A3059469B00C850BF239B00C8508C239B0030
S214005A40C958201CFBF7A6F97E49FAF753FEF8233F
S214005A505A469B00D050F0235B00D358391C181CC4
S214005A609846FAF747FE311CFBF794F9B4235A46DA
S214005A705B00011CD058FAF73DFEC6239B00594632
S214005A80C8506F494046FAF735FEE4235A469B0055
S214005A90D050291CFBF77EF9E12359469B00C850DD
S214005AA0C9239B00C85096239B00C958201CFBF7AF
S214005AB071F96449FAF71EFE8123DB005A46D0507E
S214005AC035B03CBC90469946A246AB46F0BD59461A
S214005AD0CC58FC23CC50D823C858FC218905FBF7AA
S214005AE059F984235A465B00D050079BD968FAF7C9
S214005AF001FE211CFBF778FA5C46F023E050A82351
S214005B00E45880235B005846C450FC21DC23C05870
S214005B108905FBF73FF9079A86235B005946C8506C
S214005B201169FAF7E7FD211CFBF75EFA5C46F423E1
S214005B30E050B423E45882235B005846C450FC214E
S214005B40E023C0588905FBF725F98823079A5946AC
S214005B505B00C8505169FAF7CDFDFFF736F907F03C
S214005B60B7FA49E55846C8210822FDF737FFA7E7E8
S214005B7007F024FB40E55C4607991434201C0C31E2
S214005B800D9406F09BFBFFF741F8C45880210906E8
S214005B906418FC23C450FC21D823C0588905FBF7A1
S214005BA0F9F884235A465B00D050079BD968FAF769
S214005BB0A1FD211CFBF718FA5C46F023E050A82351
S214005BC0E458802000068023241859465B00CC50F9
S214005BD0DC23C858FC218905FBF7DCF886235A46E7
S214005BE05B00D050079B1969FAF784FD211CFBF770
S214005BF0FBF95C46F423E050B423E458802000060A
S214005C008223594624185B00CC50E023C858FC2158
