S01200004653464B5F4B4C34365A2E737265632E
S21400000000600020710400007511010075110100E8
S21400001075110100751101007511010075110100BF
S21400002075110100751101007511010075110100AF
S214000030751101007511010075110100BB4E01001C
S214000040BB4E0100BB4E0100BB4E0100BB4E010083
S214000050BB4E0100BB4E0100BB4E0100BB4E010073
S214000060BB4E0100BB4E0100BB4E0100BB4E010063
S214000070BB4E0100BB4E0100BB4E0100BB4E010053
S214000080BB4E0100BB4E0100BB4E0100BB4E010043
S214000090BB4E0100BB4E0100BB4E0100BB4E010033
S2140000A0BB4E0100BB4E0100BB4E0100BB4E010023
S2140000B0BB4E0100BB4E0100BB4E0100BB4E010013
S214000400FFFFFFFFFFFFFFFFFFFFFFFF7EFBFFFF7C
S21400041010B5064C2378002B07D1054B002B02D0D5
S214000420044800E000BF0123237010BD8CE0FF1FCE
S214000430000000006C4D010008B5084B002B03D0EF
S2140004400748084900E000BF07480368002B00D1B2
S21400045008BD064B002BFBD09847F9E700000000CC
S2140004606C4D010090E0FF1F8CE0FF1F00000000B5
S21400047009480A4908600A490860EFF3088080F3D3
S2140004800988EFF314800221084380F31488BFF331
S2140004906F8F0FF00FFCC046FFFFFFFF80E100E00C
S2140004A080E200E0002243088B4274D303098B42AB
S2140004B05FD3030A8B4244D3030B8B4228D3030C2F
S2140004C08B420DD3FF22090212BA030C8B4202D3D1
S2140004D01212090265D0030B8B4219D300E0090AF9
S2140004E0C30B8B4201D3CB03C01A5241830B8B4202
S2140004F001D38B03C01A5241430B8B4201D34B03EB
S214000500C01A5241030B8B4201D30B03C01A52414F
S214000510C30A8B4201D3CB02C01A5241830A8B42D4
S21400052001D38B02C01A5241430A8B4201D34B02BD
S214000530C01A5241030A8B4201D30B02C01A524121
S214000540CDD2C3098B4201D3CB01C01A52418309D5
S2140005508B4201D38B01C01A524143098B4201D30F
S2140005604B01C01A524103098B4201D30B01C01A3A
S2140005705241C3088B4201D3CB00C01A52418308B4
S2140005808B4201D38B00C01A524143088B4201D3E1
S2140005904B00C01A5241411A00D201465241104641
S2140005A07047FFE701B5002000F0FCF802BDC0462A
S2140005B00029F7D003B5FFF775FF0EBC4243891A32
S2140005C01847C04603460B437FD4002243088B429D
S2140005D074D303098B425FD3030A8B4244D3030BC5
S2140005E08B4228D3030C8B420DD3FF22090212BA8A
S2140005F0030C8B4202D31212090265D0030B8B4206
S21400060019D300E0090AC30B8B4201D3CB03C01AEF
S2140006105241830B8B4201D38B03C01A5241430BCA
S2140006208B4201D34B03C01A5241030B8B4201D3BA
S2140006300B03C01A5241C30A8B4201D3CB02C01A25
S2140006405241830A8B4201D38B02C01A5241430A9D
S2140006508B4201D34B02C01A5241030A8B4201D38C
S2140006600B02C01A5241CDD2C3098B4201D3CB0133
S214000670C01A524183098B4201D38B01C01A5241E2
S21400068043098B4201D34B01C01A524103098B42E6
S21400069001D30B01C01A5241C3088B4201D3CB00D1
S2140006A0C01A524183088B4201D38B00C01A5241B4
S2140006B043088B4201D34B00C01A5241411A00D264
S2140006C001465241104670475DE0CA0F00D04942CD
S2140006D0031000D34042534000229C4603098B423D
S2140006E02DD3030A8B4212D3FC22890112BA030AC5
S2140006F08B420CD3890192118B4208D38901921147
S2140007008B4204D389013AD0921100E08909C309CB
S2140007108B4201D3CB01C01A524183098B4201D3CD
S2140007208B01C01A524143098B4201D34B01C01AB8
S214000730524103098B4201D30B01C01A5241C30830
S2140007408B4201D3CB00C01A524183088B4201D39F
S2140007508B00C01A5241D9D243088B4201D34B00BA
S214000760C01A5241411A00D20146634652415B10FC
S214000770104601D34042002B00D5494270476346DD
S2140007805B1000D3404201B5002000F00BF802BD1C
S2140007900029F8D003B5FFF715FF0EBC4243891AAF
S2140007A01847C0467047C0468446101C62468C46B2
S2140007B0191C634600E0C0461FB501F0F3FD002893
S2140007C001D40021C8421FBD10B501F037FD4042DC
S2140007D0013010BD10B501F0E5FD002801DB00205A
S2140007E010BD012010BDC04610B501F0DBFD00288D
S2140007F001DD002010BD012010BDC04610B501F07F
S21400080061FD002801DC002010BD012010BDC0469F
S21400081010B501F057FD002801DA002010BD0120B8
S21400082010BDC0468446081C6146FFE71FB500F0B1
S2140008305BFB002801D40021C8421FBD10B500F0A4
S214000840DFFA4042013010BD10B500F04DFB002825
S21400085001DB002010BD012010BDC04610B500F021
S21400086043FB002801DD002010BD012010BDC0465E
S21400087010B500F0EFFA002801DC002010BD0120C2
S21400088010BDC04610B500F0E5FA002801DA0020D9
S21400089010BD012010BDC046F8B54A004302440012
S2140008A04E02C50F240E281C9B09120EC90FB7094D
S2140008B08D4240D0A01A002800DC84E0002A1CD11B
S2140008C0002F5CD15A0704D00F221A40042A00D009
S2140008D004338022D2041A40281C002A24D0013473
S2140008E0FF2C00D17BE09B015B0AE4B25B02E405CF
S2140008F05B0A2343C0071843F8BDFF2CE2D08022D2
S214000900D204174301261B2808DC391C20223E1C73
S214000910C140101A8640771EBE410E439B1B5A01EB
S21400092033D4281C5A07CFD1DB08FF2C1ED05B021D
S2140009305B0AE4B2DAE7A11A002957DD002A3AD0AA
S214000940FF2CBFD08022D204174301261B2972DD5C
S2140009509B195A01E5D50134FF2C00D187E001210F
S2140009608A4A194013405B080B43ABE7002B36D08E
S2140009708022D20313435B025B0AFF24B6E70138EA
S21400098000283FD1DB1B5A01CBD59B019E09301CAA
S21400099002F0CCF905388640844223DC001B1F2475
S2140009A0321C431C201ADA408640131C741EA641D3
S2140009B00024334386E7002F00D183E7013900295E
S2140009C050D1DB19C5E7002820D1621CD2B2012A1B
S2140009D05EDDDE1B720128D5FE1A0D1CD7E7FF244C
S2140009E0002383E7694B241A33406BE7002958D16C
S2140009F0621CD1B201293CDDFF2A37D0FB185B0808
S214000A00141C5FE7FF2C00D07CE75BE7002C1ED0B1
S214000A10FF2A23D08024E404404223431B285BDDC6
S214000A200123FB1A141C0D1CADE7002EAFD10023CA
S214000A300020002478E73A1CCA40944620223E1C38
S214000A40511A8E406246771EBE41164380E7002B41
S214000A503ED0C0430028E4D0FF2ADFD13B1CFF2451
S214000A600D1C2FE7FF2C00D06FE72BE7FF24002399
S214000A705AE7002C5AD1002B7FD0002F00D121E757
S214000A80DB195A0100D44CE7404A0134134019E7F9
S214000A90002C15D1002B2FD1002F5DD03B1C0D1C38
S214000AA010E7002C21D1002B53D0C943002904D0D5
S214000AB0FF2A4BD01B2957DD0123DB19141C48E7FE
S214000AC0002B22D1002F4AD03B1C0D1CFF24F9E638
S214000AD03B1C141C0D1CF5E61D1C2024C540201ACA
S214000AE08340581E83412B439BE7FF2A2ED0802449
S214000AF0E40449422343DDE7002F00D1E2E6DA1B97
S214000B0050013CD5FB1A0D1CDCE6FF24002F00D15B
S214000B10D8E68022DB08D203134204D0FE08164231
S214000B2001D1331C0D1CDB00FF24CBE6002B0DD0BF
S214000B30FF24002F00D1C5E68022DB08D203134233
S214000B40F1D0FE081642EED1331CECE73B1CFF2426
S214000B50B8E63B1C141CB5E6231C0020E4E6802304
S214000B6000209B04FF24DFE61E1C2024CE40611AD2
S214000B708B40591E8B4133439FE73B1CA2E6131E56
S214000B8000D0CEE600230020CEE6C046FFFFFFFBE7
S214000B90F0B556464D465F464446F0B4430245001F
S214000BA0C70F83B08A465C0A2E0EB94641D0FF2E88
S214000BB026D080231B042343DC00002398469B4654
S214000BC07F3E53465B025D0A53465A00DB0F120E09
S214000BD09A4639D0FF2A33D080231B042B43DD00EE
S214000BE000237F3A5146B21A46467940081C0192C5
S214000BF01E430F2E00D976E07E4AB6009659B746B9
S214000C00002C30D108239846063B9B46D9E7802324
S214000C100021DB03FF245B02E4055B0AC9072343CC
S214000C200B43181C03B03CBC90469946A246AB4604
S214000C30F0BD002C28D104239846033B9B46C0E712
S214000C40002D1FD1022302E0002D11D10123B21A7C
S214000C5050464646784001921E430F2E27D86649D6
S214000C60B60089598F460C239846093B9B46A8E751
S214000C70281C02F05BF87622431F52429D40121A4F
S214000C800023AFE70323ADE7201C02F04FF8431F15
S214000C909C4076235B421E1A002398469B4690E7AC
S214000CA00025D1469B465B464846022B6FD1012164
S214000CB0FF2401400023AEE77E23019A5B429B1A85
S214000CC01B2B6DDD01214B46194000240023A2E7B3
S214000CD08023DB031C4249D18023DB0323435B02D2
S214000CE05B0A391C96E763016D01AB4237D3894630
S214000CF01A2001215B1B01241E1C49005B00002EEC
S214000D0001DBAB4201D35B1B214301380028F3D142
S214000D10581E83410B431D1C019C7F34002CCBDDE9
S214000D206B0704D00F232B40042B00D004352B0177
S214000D3004D5019A314B8032141C1D40FE2C07DD71
S214000D404B460121FF241940002364E7251CAAE72F
S214000D5001214A46AB015B0AE4B211405BE7019A07
S214000D608946013A01921B200021C4E71D4207D0A4
S214000D7023435B025B0A391C4CE700256302ABD5B4
S214000D808023DB032B435B025B0A514642E7032BBF
S214000D9025D0012BC0D101210024014000233AE7D1
S214000DA0291CD9402B1C019A9E3293405D1EAB41F4
S214000DB00B435A0704D00F221A40042A00D00433EB
S214000DC05A0105D54B46012101241940002322E78C
S214000DD001214A469B015B0A114000241BE7802341
S214000DE001214A46DB032B435B020A405B0A111CC7
S214000DF010E7C046BC450100FC450100FFFFFFF7B9
S214000E00430270B542004C005D0AC30F4802120E42
S214000E10460A240EC90FFF2A05D0FF2C08D0012051
S214000E20A2420BD070BD0120002DFBD1FF2CF6D1C5
S214000E300120002EF6D10120A242F3D1B542F1D115
S214000E408B4205D0002AEDD1281C431E9841E9E7C5
S214000E500020E7E7F0B543024D024A0044005E0A70
S214000E60240EC30F6D0A120EC90FFF2C0DD0FF2AD9
S214000E7031D0002C0DD177427741002A23D1002DA6
S214000E8021D10020002F0BD107E0002E28D1FF2A09
S214000E9021D0002A05D08B4207D0584201231843A0
S214000EA0F0BD002DF9D08B42F7D19442F5DC04DB7F
S214000EB0AE42F2D80020AE42F2D258424341012060
S214000EC05B421843ECE7002FE5D048424141012041
S214000ED049420843E4E7002D02D1002CCBD0DAE7E4
S214000EE002204042DCE7C0464302F0B542004C0018
S214000EF05E0AC30F4802120E450A240EC90FFF2AC7
S214000F000FD0FF2C1AD0002A10D177427741002C40
S214000F1029D0002F17D048424141012049420843BA
S214000F200BE00220002E08D1FF2C07D0002C0AD19F
S214000F30002D08D1584201231843F0BD0220002D91
S214000F40FBD1002AE1D08B42F4D1A242F2DC04DBD2
S214000F50AE42EFD80020AE42EFD2584243410120C5
S214000F605B421843E9E7002DD3D10020002FE4D1DF
S214000F70E0E7C046F0B55F4656464D464446F0B4F8
S214000F8045024600C40F83B00F1C6D0A360EA346FA
S214000F9045D0FF2E25D080231B041D4300239A46F0
S214000FA0ED007F3E01937B025B0A98467800FB0FBC
S214000FB0000E994640D0FF2838D0802342461B04B6
S214000FC01343DB00984600237F384A46019F3018BB
S214000FD06240411C1F430F2F69D87D4EBF00F65953
S214000FE0B746002D45D108230193063B9A46DAE71B
S214000FF093465346022B2FD15B46012400251C4006
S214001000FF236D02DB056D0AE4071D432543281CFC
S21400101003B03CBC90469946A246AB46F0BD002DB8
S2140010202CD104230193033B9A46BCE743465A421D
S21400103053410322D31AC8E742460123002AC4D0EC
S214001040404601F073FE4246431F9A4076235B42B9
S214001050181A90460023B8E7032B00D1ADE0012B09
S21400106000D08CE05B4654461C40E4B200230025CA
S214001070C7E70C230193093B9A4694E7281C01F026
S21400108055FE7626431F9D4000237642361A01936E
S2140010909A4688E780250024ED03FF23B1E74546FE
S2140010A0CB469A46A5E7454693469A46A1E7434669
S2140010B02C041B0C9C46230C444626041C1C360C95
S2140010C02F0C7443351C66467D4373437743EB18F9
S2140010D0260C9E19B54203D980235B029C466744C2
S2140010E024043304240C1B199D016C1EA5419B0E81
S2140010F0360C2B43BD19AD011D432B0104D501232E
S21400110068081D400543081C031C7F33002B2CDD9C
S214001110690704D00F212940042900D0043529018D
S21400112003D52C4B1D40031C8033FE2B17DD0124FA
S214001130FF231440002564E78020C003054209D041
S2140011404346034206D1454605436D026D0A4C46AA
S214001150FF2356E705436D026D0AFF2351E701247E
S214001160AD016D0ADBB214404BE77E235B421B1ACF
S2140011701B2B07DD012400231440002541E7081C33
S2140011805A46C1E79E30291C8540D940681E8541D5
S2140011900D436B0704D00F232B40042B00D00435DF
S2140011A06B0104D5012401231440002529E70124FE
S2140011B0AD016D0A1440002323E78023DB031D43A3
S2140011C001245B466D0223401C1C6D0AFF2318E7B2
S2140011D03C460100FFFFFFF7F8B54A004302440013
S2140011E04D02C00F240E061C9B09120EC90FAD0936
S2140011F0FF2A00D175E001277940884250D0A01A16
S214001200002800DC8FE0002A1ED1002D00D075E0FB
S2140012105A0704D00F221A40042A00D00433802232
S2140012200120D2041A403040002A32D00134FF2C6C
S21400123000D184E09B015B0AE4B25B02E4055B0A32
S2140012402343C0071843F8BDFF2CE1D08022D20408
S21400125015431B287ADD01255B1B5A015DD59B01D2
S2140012609F09381C01F062FD05388740844269DC1E
S214001270001B1F243A1C431C201ADA408740131C0C
S2140012807C1EA74100243B43C2E7131E45D1002322
S2140012900020DB08FF2C28D05B025B0AE4B2CCE718
S2140012A0A11A00295BDD002A2ED0FF2CB0D08022A8
S2140012B0D20415431B2974DC2F1C2022CF40511A60
S2140012C08D40691E8D413D435B195A0125D5013479
S2140012D0FF2C74D001217E4A194013405B080B4353
S2140012E096E7002D00D088E785E7002B27D08022E0
S2140012F0D20313435B025B0AFF249EE701380028F3
S214001300AAD0FF2CA5D183E7002D00D180E70139B4
S2140013100029D9D0FF2CCDD17AE75A0700D079E73B
S21400132001203040B5E7002825D1621CD2B2012A40
S21400133055DD5F1B7A012DD5EF1A0E1C91E7FF24B1
S21400134000237AE7624B241A3B4061E7291C2022DF
S214001350C140101A8540681E85410D437CE7002970
S21400136046D1621CD1B201292BDDFF2A26D0EB180C
S2140013705B08141C4CE7002C15D0FF2A1AD08024DA
S214001380E404404223431B284DDD0123EB1A141CC2
S2140013900E1C62E7002F00D063E700230020002425
S2140013A077E7012590E7002B39D0C0430028EDD021
S2140013B0FF2AE8D12B1CFF240E1C29E7FF2400235C
S2140013C067E7002C5AD1002B7FD0002D00D11FE7F5
S2140013D05B195A01A1D53E4A0134134018E7002C88
S2140013E015D1002B2FD1002D5ED02B1C0E1C0FE725
S2140013F0002C21D1002B54D0C943002904D0FF2A49
S2140014004CD01B2958DD01235B19141C5DE7002B0B
S21400141023D1002D4BD02B1C0E1CFF24F8E62B1CD2
S214001420141C0E1CF4E61E1C2024C640201A834002
S214001430581E83413343A9E7FF2A2FD08024E404B3
S21400144049422343DDE7002D00D1E1E65A1B500157
S21400145000D41AE7EB1A0E1CDAE6FF24002D00D1A2
S214001460D6E68022DB08D203134204D0ED081542EC
S21400147001D12B1C0E1CDB00FF24C9E6002B0DD06F
S214001480FF24002D00D1C3E68022DB08D2031342DE
S214001490F1D0ED081542EED12B1CECE72B1CFF24F7
S2140014A0B6E62B1C141CB3E6231C0020F1E68023B2
S2140014B000209B04FF24ECE61F1C2024CF40611A6A
S2140014C08B40591E8B413B439EE72B1CA0E6C04633
S2140014D0FFFFFFFB4202510A4200C30F120E00201C
S2140014E07E2A0DDD9D2A0CDC802000040143952A0F
S2140014F00ADC9620821AD1400A1C58424240D01874
S2140015007047034A9818FBE7963A91400A1CF4E79E
S214001510FFFFFF7F70B5041E39D0C50F00D04442D0
S214001520201C01F003FC9E23261C1B1A962B07DCAE
S214001530082801DD083884406402640AD8B21EE038
S214001540992B0ADD0522211C121AD1400A1C011C07
S2140015501B318E40711E8E411643052801DD421F49
S21400156096400F4C3440720704D00F221640042ECB
S21400157000D0043462010ED4A401640AD8B2640216
S214001580C005640AED0704432C43201C70BD0025EB
S21400159000200024F3E7024B1C409F231B1AEBE7B6
S2140015A0FFFFFFFBF0B5454657464E4694464C00B7
S2140015B00A03C90FE0B488460E1C1903470FC5007E
S2140015C0480A6146490F01436046520A1743C00065
S2140015D05A00640D520DDB0F8446984500D1A7E0F3
S2140015E0A01A002800DC01E1002A3DD163460B4327
S2140015F000D0D4E06B0700D188E00F232B40042BEB
S21400160000D183E02A1DAA42AD4180236D427F1996
S2140016101B043B404646151C002B00D17CE0CC4BFF
S21400162001349C4200D1FDE03A1CCA4BED081A403A
S2140016305007640552020543120B640D0021120385
S2140016400B0D1B056405120B1A436308C24CF60704
S21400165014401C43640064083443281C211C1CBC32
S21400166090469946A246F0BDB94B9C42C2D0802314
S2140016701B041943382800DDECE01F2800DD21E1BB
S21400168020220E1C6346121A9640C3403343664619
S2140016909640321C561EB24113430A1CC240EB1A37
S2140016A09D42B6411D1CBA1A7642971B3B0200D4D7
S2140016B097E07A02560A002E00D1B6E0301C01F000
S2140016C035FB031C083B1F2B00DDB7E09E40371C94
S2140016D028262A1C361AF240161C9D403E439C4281
S2140016E000DDB2E01C1B621C1F2A00DDD8E01F23B1
S2140016F0291C1C1B331CA540A340D1406C1EA541D1
S214001700D64019430D43371C002473E780231B047F
S2140017103B40464600D082E78D4BED0878070543F0
S214001720FA089C4232D012036405120B640D85E75A
S214001730A31A002B00DC94E0002A3CD0844A944292
S21400174000D157E7802212041143382B00DC05E154
S21400175063461943481E81410022C8B24019A84278
S2140017609B41051CD2195B42D7183B0239D5784BF2
S21400177001349C4200D14CE10120764A6B083A4085
S21400178028401843D5070543570833E72B1C134357
S21400179048D080231B031A431203120B4EE701386E
S2140017A0002878D16346EE1AB5429B417A1A5B420E
S2140017B0D71A351C7AE7021C0A4300D11AE7013B08
S2140017C0002B00D0F2E04019A8429B41CA195B42A8
S2140017D0D718051CC9E7131C334300D118E1171CA2
S2140017E0351C46466B0700D007E795E700287AD1F8
S2140017F0621C5205520D012A00DCFBE06246AA1A62
S2140018009542B6419146781A7242861A320200D440
S21400181093E06246551BAC458041CF1B40423E1AC2
S214001820984648E70022002508E7281C01F07EFAC3
S2140018302030031C083B1F2B00DC47E72838854078
S2140018402E1C00259C4200DC4CE7424AE41A164057
S214001850371CCFE6634619434B1E99410022CBB294
S2140018601DE7002B00D0F2E0601C43055B0D012B4A
S21400187000DCA4E0364B984200D121E163465C19B7
S214001880AC429B41CF195B42FA186408D507254342
S2140018905708041CAEE62E4B9C4200D0EAE6A9E6AA
S2140018A0211C331C1F39CB40191C202A00D182E092
S2140018B03F231C1BA64035436E1EB54100270D4333
S2140018C000248EE7031C0E1C203BDE40202874D02C
S2140018D040231B1A99400B1C62461343591E8B412A
S2140018E000223343DBE6002C50D0194CA24200D134
S2140018F0A8E08024240440422743382800DDD9E0AD
S2140019001F2800DD39E120243E1C241AA640B046DC
S2140019102E1CA146C640444626434C46A5406C1E97
S214001920A541C74035436046451BCF1BAC458941A2
S21400193049427F1A141C9846B8E64B464D46334338
S21400194000D0B8E60026002700240025E4E6C046BE
S214001950FF070000FFFF7FFFFFFF0F801F2B5BDCF2
S2140019602022081CD21A9040814660469246D840F3
S2140019704A4610438146524660469040021C501E1E
S2140019808241484610430A1CDA40E7E63C1C2C43DA
S21400199058D0C043002851D16046451BAC45804115
S2140019A0CF1B40423F1A141C98467FE68F4A94424B
S2140019B000D0CAE61EE600267DE700238CE73B1C27
S2140019C02B43002C00D0BDE0002B00D1F5E0634691
S2140019D00B4300D10EE663465B19AB428041CA1941
S2140019E0404217183A0200D4FCE0814A1D1C1740FA
S2140019F00134FFE53A1C2A43002C51D1002A00D0BE
S214001A0085E062460A4303D00F1C65469846F1E51A
S214001A100026002700257FE6181C0A1C2038C24036
S214001A20202B00D1A7E04020C01A8140081C634646
S214001A301843411E8841104300228FE66B4CA24299
S214001A4000D05AE70F1C6546141C9846D2E5002CB9
S214001A503AD1381C284371D0DB43002B18D063489A
S214001A6082426BD0382B00DD9DE01F2B00DDA7E007
S214001A7020203C1CC01A8440A1462C1C8246DC4018
S214001A804846044350468540681E8541DF4025434E
S214001A90654465459B417F185B42FF18141C64E64D
S214001AA0002A19D162460A4377D00F1C654698462D
S214001AB04E4C9FE53D436F1EBD410027EDB232E719
S214001AC0041C0027002527E64848824236D080209E
S214001AD000045B420743C5E762460A4349D08024B8
S214001AE0ED087807FA0824032843224209D0CE08D6
S214001AF0264206D162464F07381CD2081043984645
S214001B00321CD200470F1743C500384C72E56246B8
S214001B100A4300D16EE56246AE1AB5429241781A83
S214001B205242821A100200D455E66246551BAC4556
S214001B308041CA1B4042171A98465BE50F1C654653
S214001B40141C57E5002B34D063460B4311D0802479
S214001B50ED087807FA08240328432242D1D0CB08A0
S214001B602342CED162464F07381CD20810431A1CB7
S214001B70C7E71E4C3EE5002059E7041C3E1C203CEF
S214001B80E640341C20282BD04026301A87403D43A0
S214001B906F1EBD4100272543C5E680270026FF03AC
S214001BA0124C0025B8E53D436F1EBD410027EDB23F
S214001BB06EE70F1C65460D4C1CE50F1C654619E5C7
S214001BC01C1C381C203CE040041C202B0CD0402061
S214001BD0C31A9F403D436F1EBD410027254357E76C
S214001BE00027D4E71D1CFCE50027F3E7FF070000ED
S214001BF0FFFF7FFFF0B55F4656464D464446F0B4BD
S214001C000F0387B098464D003B0BCC0F061C924640
S214001C1081469B466D0D01946BD0664B9D4235D038
S214001C2080275B467F031F43F3009946624BFF0005
S214001C30400F9C4607430023BB460026654400939E
S214001C40424617035000D20F53463F0B400D9046B6
S214001C5000D172E0574A904267D080235B031F434F
S214001C605346554A5B0FFF001F43944653460021D8
S214001C70DB0060444246624092462D1A0E430F2E09
S214001C8000D9A1E04D48B600805987465B461E4302
S214001C9000D076E000239B46994602330826009340
S214001CA0CEE799464346BB4601930091009B022B24
S214001CB06BD1019B9A460021534601220027894694
S214001CC01A403C4B00213F030C0D24053F0B2743D5
S214001CD03B4C1B0527401F437F00D2077F08174356
S214001CE04846391C07B03CBC90469946A246AB46CF
S214001CF0F0BD03433ED05B46002B00D19CE1584626
S214001D0001F014F82823311C1B1A021C5F46D94028
S214001D10083A97400B1C96403B439B46B14600232F
S214001D20284D00262D1A00938AE7524603213A438F
S214001D30A0D10027002302219CE752463A4315D043
S214001D40002F00D185E1381C00F0F0FF021C28218E
S214001D505046891A131CC8405146083B99409F407C
S214001D600B1C074317480021801A83E7002700232F
S214001D7001217FE700239B46994601330426009302
S214001D805EE703230C2600935AE7032B00D13CE2C0
S214001D90012B00D0BFE11A1C019B1A400021002332
S214001DA0002789468EE700238027994600223F03B6
S214001DB0004B87E7FF07000001FCFFFF7C460100A1
S214001DC0FFFF0F800DFCFFFFBB4500D951E100D19E
S214001DD04CE14A46039200225C469046013D180EAE
S214001DE03F0238431B020193030C994603041B0C65
S214001DF04946061C201C1F1C0093FEF753FB021CC2
S214001E007A4302904946201C171CFEF7D1FB039B21
S214001E1009041B0C19438F420CD9029B8919013BFC
S214001E208E4200D952E18F4200D84FE1029B8919B9
S214001E30023B0293CC1B201C4946FEF733FB009F57
S214001E40834647434946201CFEF7B2FB039A0B0421
S214001E501404240C23439F420DD95A469B19013A79
S214001E609E4200D930E19F4200D82DE10222524224
S214001E7094469B19E344029ADB1B17045A463A43DE
S214001E809346019C170C220C101C04925A4611040F
S214001E902204120C141C090C7C4305924A4341434D
S214001EA047436118100C09188C4203D98020400261
S214001EB0844667440C0C12040804120C3C19811862
S214001EC0A34200D2E5E000D1DFE01F1B43465C1AC8
S214001ED0A04592415242BF1AB74200D10EE1381CCB
S214001EE04946FEF7DFFA009B029043434946381CFA
S214001EF09846FEF75DFB230C0F041F43B8450CD92C
S214001F00029BBF19013BBE4200D9FBE0B84500D892
S214001F10F8E0029BBF19023B02934346FF1A49466C
S214001F20381CFEF7BFFA009B039043434946381C13
S214001F309846FEF73DFB24040904240C21438845FB
S214001F400CD9039B8919013B8E4200D9DCE08845F9
S214001F5000D8D9E0039B8919023B03934346C91A6C
S214001F60029B039A1B04059C1A43100C130491460B
S214001F70221C049F1B0C5A4344437B437843E318BC
S214001F80170CDB199C4203D980246402A4466044E3
S214001F901C0C12041B04120C00199B18814200D260
S214001FA096E000D1FCE04A4601231A4391469B4B3B
S214001FB0EB18002B00DC99E04A4652070AD00F22A5
S214001FC049460A40042A05D00431494592418946CB
S214001FD0524293445A46D20106D55A46904B1A406E
S214001FE080239346DB00EB188E4A934200DD62E6C0
S214001FF04A465946D208490711435A468946570267
S214002000514601225B053F0B5B0D0A405AE68020D5
S2140020105A460003024208D0074206D107433F0350
S21400202099463F0B4246804B4CE65F4607433F03CC
S2140020303F0B221C7C4B45E600F078FE031C20304C
S214002040272800DC5EE6083B9E400023B346994600
S21400205065E6504600F06AFE021C2032272A00DCA5
S21400206075E657460838874000237BE6994500D238
S214002070AFE65A46594654084A46C807520802432D
S21400208003924A46D2079046A9E60027884500D321
S2140020901CE7019F5A46BC46E044B845BF417F4214
S2140020A0BF19FF18013ABE4206D2BC425FD800D123
S2140020B09FE03F1B934609E7B742FAD1019B434591
S2140020C0F3D9371B934601E79346D4E60293B1E66D
S2140020D04A468919013A8E4218D99146814200D063
S2140020E061E7019A9A4200D05DE760E74F4F7F1B99
S2140020F0382F13DD012253461A404FE601235B4278
S214002100994654E7029308E7039327E788423CD8AA
S21400211074D0914647E7019B9A4648E71F2F44DC58
S214002120434B4A469C465B466544FA40AB401343E5
S2140021304A46AA40151C6A1E95415A46FA402B4349
S214002140171C5A0709D00F221A40042A05D01A1D58
S2140021509A429B415B42FF18131C3A023ED55346F7
S214002160012200211A40002701238946AAE50223FE
S2140021705B429C46019AE3449446E04490459B416A
S2140021805B429B19DF193F1BA0E6019F4A467C0075
S214002190BC42BF417F42BF19023AC91901949CE76D
S2140021A0002B95D1002201929BE75A46214B5B1BE0
S2140021B0DA40202F27D0204B9C465B466544AB4038
S2140021C049460B43591E8B411343072200271A40EA
S2140021D007D00F2200271A40042AB8D17A077F02B8
S2140021E03F0BDB0813439946012253461A4000234F
S2140021F068E54145BBD89346002767E6019C9C42AC
S214002200C3D391466DE70023DAE780275B463F039A
S2140022101F433F033F0B019A034B53E5FF030000A8
S214002220FFFFFFFEFE070000FF07000002FCFFFFA7
S2140022301E040000E2FBFFFF3E040000F0B55F4610
S2140022404D4644465646F0B41F035C00DB0F9946E5
S2140022501B4B0E034D00C90F8446360B6D0D8B4687
S21400226090463F0B640D9D420CD0154B9C4210D0FF
S2140022700123A54214D0181C3CBC90469946A246A1
S214002280AB46F0BD311C01230143F4D10C4B9C42FC
S214002290EED13A430123002AEDD10123A542EAD12B
S2140022A0BE42E8D1C445E6D1CB4506D0002DE2D1EA
S2140022B03043031C581E8341DDE70023DBE7C0469E
S2140022C0FF070000F0B5574645464E46E0B40F03FC
S2140022D04E00C90F8A4632491D035C0084463F0BF8
S2140022E0760D90462D0B640DDB0F8E420FD08C4280
S2140022F039D0002E10D13843414241418946002C46
S21400230027D12A4325D1002000290ED108E0391C08
S21400231001432ED1B44226D0002C0BD09A450DD0C6
S2140023205346594201231943081C1CBC9046994643
S214002330A246F0BD2A43F3D09A45F1D1A642EFDC7F
S2140023401ADA504641424841012341421943081CCB
S214002350EBE74A46002AE1D0584258410122414262
S2140023601143081CE1E7291C114302D1002EC2D0FC
S214002370D4E702204042D8E7AF42D1D809D00020A7
S214002380AF42D2D250464142484101234042184310
S214002390CBE7C445C4D80020C445F3D3C5E7C04640
S2140023A0FF070000F0B55F464D4644465646804659
S2140023B0F0B4061C0803000B84462C484C001F0390
S2140023C05D00C90F640D8B4691463F0B6D0DDB0F0C
S2140023D0844212D0854225D0002C14D161460E438B
S2140023E070424641002D35D0002E21D0584258412B
S2140023F0012143420B43181C0EE061460220314384
S2140024000AD1A5420ED0002D12D13A4310D15B4618
S214002410594201231943081C3CBC90469946A246E3
S214002420AB46F0BD391C02201143F5D1002CD5D0A7
S2140024309B45ECD1AC42EADC05DBBC45E7D80FD0C7
S2140024400020BC45E8D2584641424841414201205E
S2140024500843E1E73A43C7D10020002EDCD1D6E797
S214002460C845D4D80020C845EDD3D5E7FF070000FF
S214002470F0B54D4644465F465646F0B40E1C111C59
S2140024803203520A470F1743C5001A035800DB0FE2
S2140024909946520A4B0F83B01A43CB000193CF4B99
S2140024A07400F60F640DB046400D984200D1E8E087
S2140024B00123494659400B1C9E4200D1B1E0261A22
S2140024C0002E00DC1CE1002842D1131C01990B43AE
S2140024D000D0E6E06B0700D18EE00F232B40042BE4
S2140024E000D189E02A1DAA42AD418023012641463B
S2140024F06D427F191B043B400E40151C002B00D17B
S21400250083E0B64B01349C4200D116E13A1CB44B32
S214002510ED081A405007640552020543120B640D7D
S214002520002112030B0D1B056405120B1A436308EA
S214002530AC4CF60714401C43640064083443281C63
S214002540211C03B03CBC90469946A246AB46F0BD63
S214002550A24B9C42BED080231B041A43382E00DDBB
S21400256003E11F2E00DD3FE12020831B9946131C4C
S21400257049468B409C46019B6046F34003430198C6
S214002580F2408840011C481E81410B43EB1A9D42D5
S21400259080411D1CBA1A4042171A3B0200D4A8E01C
S2140025A07A02560A002E00D1CAE0301C00F0BEFBAC
S2140025B0031C083B1F2B00DDCBE02822291C121A27
S2140025C0D1409E400A1C9D4032439C4200DDC8E03C
S2140025D01C1B671C1F2F00DDEDE01F23291C1C1B86
S2140025E0131CA540A340F9406C1EA541FA401943B0
S2140025F00D43171C00246DE78023012642461B046A
S2140026003B401640002B00D07BE7744BED08780764
S2140026100543FA089C423BD012036405120B640D76
S2140026207EE7231A9A46002B00DCA5E0002844D05B
S2140026306A48844200D14DE7802000040243534696
S214002640382B00DC1CE1019B1A43511E8A41D1B293
S21400265000224919A94280410D1CD2194042171880
S2140026603B0246D55D4B01349C4200D169E1012016
S2140026705B4A6B083A4028401843D507054357087D
S21400268028E7131C01990B4300D111E74B4613E7CB
S2140026902B1C134351D080231B031A431203120B27
S2140026A03EE7013E002E00D080E0691A8D429B4135
S2140026B0BA1A5B42D71A0D1C6FE7101C019B184311
S2140026C000D107E701235B429C46E2445346002BB9
S2140026D000D002E1019BD2195919A9429B415B42E5
S2140026E0D7180D1CBCE76346034300D128E1071C3E
S2140026F065466B0700D0F0E6012643461E4084E799
S214002700002E00D081E0601C4005400D012800DC52
S21400271007E10199681A84466545B641B81A7642BB
S214002720861B300200D4A1E08C464D1BAC45894187
S214002730D21B4942561A984634E700220025EFE697
S214002740281C00F0F3FA2030031C083B1F2B00DC8B
S21400275033E7021C283A95402A1C00259C4200DCE0
S21400276036E71F4FE41A1740B4E6019B1A43511E82
S2140027708A41D3B2002209E7002B00D001E1601C99
S21400278043055B0D012B00DCB0E0144B984200D1F2
S2140027901EE1019BD2195919A9429B415B42D218EE
S2140027A04908D5070D435708041C93E60B4B9C427B
S2140027B000D0D3E68EE6211C131C1F39CB40191C13
S2140027C0202F00D18EE03F231C1BA24015436A1E1B
S2140027D0954100270D4300248BE7C046FF07000005
S2140027E0FFFF7FFFFFFF0F80331C101C203BD840ED
S2140027F0202E79D040239B1B9A40131C019A13432A
S214002800591E8B4100220343C0E6002C53D0C74C10
S214002810A04200D1B0E080247142894624042743B8
S2140028204946382900DDCDE01F2900DD59E1202486
S2140028303E1C611A8E408A46B04649462E1CCE4043
S2140028405146B4468D4064464646494626436C1E6D
S214002850A541CF4035430199D71B8C464D1BAC454F
S21400286092415242BF1A041C984696E66346654655
S214002870334300D096E60026002700240025C4E651
S2140028801F2B61DC2020C31A9B46131C59468B4025
S21400289051469946019BCB409C464B4660460343B7
S2140028A09C465B46019999406346481E8141194300
S2140028B05346DA40CDE63C1C2C435DD0F1438946B6
S2140028C0002955D10199D21B8C464D1BAC45894138
S2140028D04942571A041C98465FE69448844200D042
S2140028E0ADE6F7E5002271E7002387E73B1C2B43A4
S2140028F0002C00D0DAE0002B00D113E1131C019964
S2140029000B4300D1E6E54919A9429B41D2195B4227
S214002910D7183B0200D421E1854B0D1C1F40041C38
S214002920D8E5381C2843002C40D1002800D083E08E
S214002930101C0199084303D0171C0D1C9846C9E5C6
S21400294000260027002560E65046131C2038C340AA
S214002950181C5346202B00D1C1E0402351465B1A79
S2140029609A40019911434A1E91410022014370E6A4
S2140029706E4CA04200D053E7171C019D041C9846DD
S214002980A8E5002C28D13C1C2C4300D18AE0DB4370
S2140029909A46002B00D082E0019BD2199C466544E3
S2140029A09D42894149425718041C59E600285BD1CC
S2140029B0101C0199084300D1A4E0171C0D1C984672
S2140029C05A4C87E53D436F1EBD410027EDB242E7F6
S2140029D0041C0027002518E6544CA04262D053463B
S2140029E080245B429A46240427435346382B00DD56
S2140029F08EE01F2B00DD9DE02024E31A9B463B1C47
S214002A0059468B40514699462B1CCB409C464B461C
S214002A10644623439C465B469D4063466C1EA54128
S214002A20CF401D43019BBF189C4665449D42924182
S214002A305242BF18041C13E6101C0199084300D12B
S214002A4048E5681A844685428041BE1A4042301ADC
S214002A50060200D447E68C464D1BAC458941D21B86
S214002A604942571A984635E5101C0199084334D058
S214002A7080247807ED08FF0824032843274208D05F
S214002A80D608264205D1C90852070A43101C371C2F
S214002A909846FF00420F1743C500244C1AE5234C06
S214002AA0A042A2D1171C019D041C13E5002B35D0B3
S214002AB0131C01990B4310D080247807ED08FF08FB
S214002AC0240328432742E4D0D3082342E1D1C9088F
S214002AD052070A43101C1F1CDBE7144CFAE40022C2
S214002AE03FE74C463E1C203CE6404946341C202925
S214002AF032D04026761AB7403D436F1EBD410027B0
S214002B002543A8E680270026FF03084C00257CE521
S214002B103D436F1EBD410027EDB283E7171C019DA4
S214002B20024CD7E4171C019DD4E4C046FF07000002
S214002B30FFFF7FFF54463B1C203CE3401C1C5346D3
S214002B40202B0DD0402351465B1A9F403D436F1EFD
S214002B50BD410027254365E70027CDE70D1CC8E5E6
S214002B600027F3E74200120E511C38B5C9B24302E3
S214002B705D0AC40F012915DDE02189008C466D072A
S214002B801B0B62440021281C0D0D2D052B431C4DEC
S214002B9052052B40520813435B00E4075B082343AF
S214002BA0191C38BD002A15D1002D1FD0281C00F096
S214002BB0BDF80A281DDC0B232A1C1B1ADA40131C3E
S214002BC0021C153295400F4A1B03121A52051B0BA6
S214002BD0520DD7E7002D06D080221B0B120313439D
S214002BE06D07094ACEE7084A0023CBE700220023F8
S214002BF0C8E7031C0B3B9D402B1C0025E3E7C046A3
S214002C00FFFF0F8089030000FF07000070B50B036D
S214002C104D00440F6D0D5B0A23436C1C6405C90F01
S214002C20C200640D012C2ADD3B4C2C19FE2C1ADC4C
S214002C30002C35DD8001451EA841DB000343520F02
S214002C4013435A0704D00F221A40042A00D0043334
S214002C508022D2041A4027D00134FF2C03D09B01D7
S214002C605B0AE4B201E0FF2400235B02E4055B0A92
S214002C7023435B00C9075B080B43181C70BD002D7F
S214002C8006D113430ED100245B025B0AE4B2ECE7E4
S214002C901A43E8D08020DB0080040343FF24D0E7FB
S214002CA017340CDA05230024DB08FF2CECD1002BAC
S214002CB02DD08022D20313435B025B0AD5E7802423
S214002CC0164824042343401B1F280DDC144CA4463E
S214002CD06544AB401C1C131CAB405D1EAB41C240A0
S214002CE0234313430024ACE71E1C0E4C641BE64033
S214002CF0341C20280DD00C4884466544AB401D1C6F
S214002D002A43531E9A41131C2343002499E70023A9
S214002D10ABE70025F4E7C04680FCFFFF9E030000FB
S214002D2082FCFFFF7E030000A2FCFFFF1C210123A4
S214002D301B04984201D3000C10391B0A984201D399
S214002D40000A08391B09984201D30009043902A277
S214002D50105C40187047C0460403020201010101DE
S214002D600000000000000000054808B5026F6C2354
S214002D709446C35A0121634403670DF03BFA08BD2D
S214002D80600500207047C046742201230249885C13
S214002D9003438B547047C04660050020742202230C
S214002DA00249885C03438B547047C0466005002088
S214002DB07047C04610B5041C00790EF00BFE211CAF
S214002DC0012201C90FF058F810BDC046FE21F8B523
S214002DD08905041CFDF756FD002801D04848F8BDBB
S214002DE0201C4849FDF73AFD00286CD1211C201C08
S214002DF0FEF7C0F8011CFE208005FEF7EDF90FF087
S214002E0005FE011C201CFDF7C3FE0021041CFDF777
S214002E101BFD002600284ED1FE21201C8905FDF74B
S214002E2027FD00284DD0FE20211C8005FDF7B0FEB2
S214002E300125041C201C3449FDF71AFD002844D047
S214002E40201C3249FEF7C8F93049071C201CFEF743
S214002E5091F8FE218905FDF71FFD011C381CFDF7C2
S214002E6097FE041C211CFEF785F82949071CFEF76F
S214002E7081F82849FDF710FD011C201CFEF77AF8A2
S214002E802549041C381CFDF707FD011C201CFDF716
S214002E907FFE2249FDF700FD011C002D03D01848D7
S214002EA0FEF79AF9011C081C002E98D080231B06FA
S214002EB09C46604493E780231B069C460126644498
S214002EC0AAE70025B6E7164889E7211C201CFEF76E
S214002ED051F80F49071CFEF74DF80E49FDF7DCFCCC
S214002EE0011C201CFEF746F80B49041C381CFDF795
S214002EF0D3FC011C201CFDF74BFE011CCDE7C04691
S214002F000000B442000080BFA330893E3ACD133F94
S214002F100EB2C841EE49C142DCE7D73F0000F0419F
S214002F200000B4C2FE21F8B58905041CFDF7AAFC12
S214002F30002801D00020F8BD201C9449FDF78EFC27
S214002F40002875D1201C0021FDF778FC00286DD1E3
S214002F50201C0021FDF78CFC00286BD0211C201CB7
S214002F60FEF708F8011CFE208005FEF735F90FF085
S214002F704DFD211CFDF70CFE0021041CFDF764FC32
S214002F800026002800D0F8E0FE21201C8905FDF769
S214002F906FFC002800D1F6E0FE20211C8005FDF71E
S214002FA0F7FD0125041C201C7949FDF761FC00286B
S214002FB000D1A6E0201C7749FEF70EF97549071CDC
S214002FC0201CFDF7D7FFFE218905FDF765FC011CD7
S214002FD0381CFDF7DDFD041C211CFDF7CBFF6E49F8
S214002FE0071CFDF7C7FF6D49FDF756FC011C201CAA
S214002FF0FDF7C0FF6A49041C381CFDF74DFC011C98
S214003000201CFDF7C5FD6749FDF746FC011C002D99
S21400301003D06548FEF7E0F8011C081C002E00D11E
S21400302089E780231B069C46604484E75E4882E767
S2140030305E4880E7211C201CFDF79CFF011CFE203B
S2140030408005FEF7C9F80FF0E1FC211CFDF7A0FD96
S2140030500021041CFDF7F8FB002600286BD1FE219A
S214003060201C8905FDF704FC00286AD0FE20211CE0
S2140030708005FDF78DFD0125041C201C4449FDF745
S214003080F7FB00285FD0201C4249FEF7A5F841490F
S214003090071C201CFDF76EFFFE218905FDF7FCFBD3
S2140030A0011C381CFDF774FD041C211CFDF762FF93
S2140030B03949071CFDF75EFF3849FDF7EDFB011C9B
S2140030C0201CFDF757FF3649041C381CFDF7E4FBAF
S2140030D0011C201CFDF75CFD3249FDF7DDFB011CE1
S2140030E0002D03D03048FEF777F8011C002E03D0E1
S2140030F080231B069C466144081C2C49FDF7CCFB2C
S21400310019E7211C201CFDF735FF2349071CFDF796
S21400311031FF2249FDF7C0FB011C201CFDF72AFFEA
S2140031201F49041C381CFDF7B7FB011C201CFDF7CB
S2140031302FFD011C6BE780231B069C46012664447A
S2140031408DE7002599E7211C201CFDF713FF124987
S214003150071CFDF70FFF1149FDF79EFB011C201C05
S214003160FDF708FF0E49041C381CFDF795FB011CF3
S214003170201CFDF70DFD011CB2E780231B069C46B4
S2140031800126644400E700250DE7C046000080BF26
S214003190A330893E3ACD133F0EB2C841EE49C14234
S2140031A0DCE7D73F0000F0410000B44200003443A3
S2140031B0F8B50021041CFDF747FB0025002869D15F
S2140031C0FE21201C8905FDF753FB002800D16EE088
S2140031D0FE20211C8005FDF7DBFC0126041C201CBC
S2140031E03449FDF745FB00283AD0201C3249FDF74C
S2140031F0F3FF3149071C201CFDF7BCFEFE218905A4
S214003200FDF74AFB011C381CFDF7C2FC041C211C00
S214003210FDF7B0FE2949071CFDF7ACFE2849FDF76F
S2140032203BFB011C201CFDF7A5FE2649041C381C90
S214003230FDF732FB011C201CFDF7AAFC2249FDF716
S2140032402BFB011C002E03D02048FDF7C5FF011CF8
S214003250002D03D080231B069C466144081CF8BD45
S214003260211C201CFDF786FE1449071CFDF782FE74
S2140032701349FDF711FB011C201CFDF77BFE1149CD
S214003280041C381CFDF708FB011C201CFDF780FC05
S214003290011CD7E780231B069C46FE216444201CA5
S2140032A089050125FDF7E4FA002800D090E70026FE
S2140032B095E7C046A330893E3ACD133F0EB2C841CB
S2140032C0EE49C142DCE7D73F0000F0410000B442BF
S2140032D0F8B5051C0C1C081C0021FDF7AFFA0028E9
S2140032E008D0281C0021FDF7C3FA002800D1B6E05C
S2140032F0CF48F8BD201C0021FDF7BAFA002848D0B8
S214003300211C281CFDF744FC0021041CFDF79CFA38
S2140033100026002800D0DBE0FE21201C8905FDF7F2
S214003320A7FA002800D1D1E0FE20211C8005FDF779
S2140033302FFC0125041C201CBE49FDF799FA002825
S21400334000D095E0211C201CFDF714FEBA49071C8E
S214003350FDF710FEB949FDF79FFA011C201CFDF78A
S21400336009FEB749041C381CFDF796FA011C201C00
S214003370FDF70EFC011C002D03D0AD48FDF72CFF19
S214003380011C081C002EB4D080231B069C466044FB
S214003390AFE7201C0021FDF757FA002800D0B7E061
S2140033A0211C281CFDF7F4FB0021041CFDF74CFA39
S2140033B00026002800D013E1FE21201C8905FDF719
S2140033C057FA002800D109E1FE20211C8005FDF7F0
S2140033D0DFFB0125041C201C9649FDF749FA00284E
S2140033E07CD0201C9749FDF7F7FE9649071C201C49
S2140033F0FDF7C0FDFE218905FDF74EFA011C381CBD
S214003400FDF7C6FB041C211CFDF7B4FD8A49071C0A
S214003410FDF7B0FD8949FDF73FFA011C201CFDF7BA
S214003420A9FD8749041C381CFDF736FA011C201C30
S214003430FDF7AEFB8449FDF72FFA011C002D03D0E3
S2140034407B48FDF7C9FE011C002E03D080231B0617
S2140034509C466144081C7D49FDF7BEFE49E7281CD2
S2140034600021FDF7F1F9002800D0B5E0002040E784
S214003470201C7449FDF7B0FE7249071C201CFDF79E
S21400348079FDFE218905FDF707FA011C381CFDF7BA
S2140034907FFB041C211CFDF76DFD6749071CFDF72B
S2140034A069FD6649FDF7F8F9011C201CFDF762FD71
S2140034B06349041C381CFDF7EFF9011C201CFDF7BE
S2140034C067FB6149FDF7E8F9011C54E7002532E780
S2140034D080231B069C46012664441DE7211C201CF5
S2140034E0FDF748FD5449071CFDF744FD5349FDF719
S2140034F0D3F9011C201CFDF73DFD5149041C381C66
S214003500FDF7CAF9011C201CFDF742FB011C95E7DC
S214003510281C0021FDF7ACF9002800D140E7211C4B
S214003520281CFDF735FB0021041CFDF78DF900264D
S214003530002875D1FE21201C8905FDF799F9002881
S21400354074D0FE20211C8005FDF722FB0125041CFB
S214003550201C3849FDF78CF9002847D0201C394933
S214003560FDF73AFE3749071C201CFDF703FDFE2138
S2140035708905FDF791F9011C381CFDF709FB041CB1
S214003580211CFDF7F7FC2C49071CFDF7F3FC2B4923
S214003590FDF782F9011C201CFDF7ECFC2849041CF1
S2140035A0381CFDF779F9011C201CFDF7F1FA2649B5
S2140035B0FDF772F9011C002D03D01D48FDF70CFE27
S2140035C0011C002E03D080231B069C466144081C69
S2140035D01E49FDF761F98CE61D488AE60025FAE6E5
S2140035E080231B069C4601266444E5E6211C201C1D
S2140035F0FDF7C0FC1049071CFDF7BCFC0F49FDF7A2
S2140036004BF9011C201CFDF7B5FC0D49041C381CA9
S214003610FDF742F9011C201CFDF7BAFA011CCAE7A7
S21400362080231B069C460126644483E700258FE71B
S2140036300000B442A330893E0EB2C841EE49C142F2
S214003640DCE7D73F3ACD133F0000F041000034439B
S2140036500000B4C2F0B557464E464546E0B4602278
S21400366082B089460021041C0EF0A4F82C4B0121E0
S2140036709846262342461370002353707422294E20
S214003680201CB35C01278B43B35441460123723A96
S2140036900DF0D6FF6B469D1D74239A4603E05346F5
S2140036A0F35C1F420ED1201C291C0EF0B9F82B88A3
S2140036B0002BF4D0002040B202B01CBC90469946C5
S2140036C0A246F0BD6B465D1D201C291C0EF0B6F808
S2140036D02B78012BF8D1414626220A7093324A7085
S2140036E07421725C201C9A437254012341460222C4
S2140036F00DF0A6FF74210122735C1A42FCD0201C38
S214003700291C0EF09BF82B78012BF8D1DE234A46B5
S2140037109B051361EE239B0553610120CBE7C04652
S2140037202C04002060050020F0B54F464646C0B485
S214003730894683B0002190461E22061C0EF03AF8F9
S2140037402A23564F74223B7000230121544D7B7070
S214003750AB5C301C8B43AB54391C723A01230DF022
S2140037606FFF742101226B5C1A42FCD06B46DC1D95
S214003770301C211C0EF062F82378012BF8D15B2256
S21400378074213A703C3A7A706A5C301C9A436A54E8
S2140037900123391C02220DF053FF742101226B5CB9
S2140037A01A42FCD0301C211C0EF048F82378012B5E
S2140037B0F8D15C2274213A703C3A7A706A5C301C0C
S2140037C09A436A540123391C02220DF039FF7421F2
S2140037D001226B5C1A42FCD0301C211C0EF02EF825
S2140037E02378012BF8D10E2274217B703A706A5C24
S2140037F0301C9A436A540123391C02220DF020FF24
S214003800742101226B5C1A42FCD0301C211C0EF085
S21400381015F82378012BF8D12B2274213A70293A17
S2140038207A706A5C301C9A436A540123391C02225F
S2140038300DF006FF742101226B5C1A42FCD0301C8E
S214003840211C0DF0FBFF2378012BF8D12A227421CE
S2140038503A701D3A7A706A5C301C9A436A540123A7
S214003860391C02220DF0ECFE742101226B5C1A4218
S214003870FCD0301C211C0DF0E1FF2378012BF8D181
S214003880E4234A469B0553624246064BD363064BE7
S214003890136403B00CBC90469946F0BD2C0400207F
S2140038A060050020CDCCCC3D00002041F0B5474659
S2140038B080B4202282B088460021061C0DF07AFFD4
S2140038C013232C4F74223B70002301212A4D7B705A
S2140038D0AB5C301C8B43AB54391C723A01230DF0A1
S2140038E0AFFE742101226B5C1A42FCD06B46DC1DD5
S2140038F0301C211C0DF0A2FF2378012BF8D10D22DD
S2140039003A70002274217A706A5C301C9A436A54BA
S2140039100123391C02220DF093FE742101226B5CF8
S2140039201A42FCD0301C211C0DF088FF2378012B96
S214003930F8D1132274213A70113A7A706A5C301CFE
S2140039409A436A540123391C02220DF079FE742131
S21400395001226B5C1A42FCD0301C211C0DF06EFF5D
S2140039602378012BF8D14246044B936102B004BC85
S2140039709046F0BD2C04002060050020CDCC4C3DC8
S214003980F0B5602283B00F1C0021051C0DF012FF5D
S214003990012174221C4E1D4C3170A35C281C8B43E5
S2140039A0A354311C733A00230DF04AFE7420012103
S2140039B0235C74221942FBD00221A35C281C8B4393
S2140039C0A354311C6F3A01230DF098FE7421022295
S2140039D0635C1A42FCD06B46DC1D281C211C0DF0D3
S2140039E02DFF2378012BF8D173781A0433781B0641
S2140039F01343B278120213433B60F37832791B020A
S214003A0013437B8303B0F0BD2C0400206005002028
S214003A10F0B5474680B4884682B00021171C1E22A7
S214003A20061C0DF0C7FE01217422404D404C297043
S214003A30A35C301C8B43A354291C733A00230DF05F
S214003A40FFFD74200121235C74221942FBD0022161
S214003A50A35C301C8B43A354291C683A01230DF049
S214003A604DFE74210222635C1A42FCD06B46DC1DBC
S214003A70301C211C0DF0E2FE2378012BF8D12E78A5
S214003A806B7836021E4343461E85AC78EB782402DC
S214003A901C4343465C8528796B79000218434346ED
S214003AA09885A979EB79090219434423F9522A7AB1
S214003AB06B7A12021A434623FA52AB7AED7A1B024D
S214003AC02B4348257B5335B21A4EB5422AD0194DA2
S214003AD024B2AC4222D0174C00B2A0421AD01548ED
S214003AE009B2814212D0134912B28A420AD0114A50
S214003AF01BB2934202D148230F4AFA5202B004BCCA
S214003B009046F0BD46220C49B952F0E744210A48D7
S214003B107852E8E744460848A085E0E74546064C64
S214003B206C85D8E74646044D3585D0E72C04002042
S214003B30600500200080FFFF0180FFFFF0B54746CC
S214003B4080B4884682B00021161C2022051C0DF089
S214003B5031FE01217422314F314C3970A35C281C90
S214003B608B43A354391C733A00230DF069FD74206F
S214003B700121235C74221942FBD00221A35C281C7D
S214003B808B43A354391C6E3A01230DF0B7FD742104
S214003B900222635C1A42FCD06B46DC1D281C211CEA
S214003BA00DF04CFE2378012BF8D171008B195B00C9
S214003BB04344181C3A787C78120222439A83BA78D7
S214003BC0FC7812022243DA833A797C791202224385
S214003BD01A841C23C25E134B18309A421AD08B19D3
S214003BE05B0043441E22985E0E4A1A3390420ED063
S214003BF08E19760046442023F25E0A4B1C369A4203
S214003C0001D1094BB38002B004BC9046F0BD064A11
S214003C109A80EDE7044B8380E1E7C0462C04002041
S214003C20600500200080FFFF0180FFFFF8B54F46CB
S214003C304646C0B4171C0022B14B041CC252081CD6
S214003C40FDF768FC011CFE208005FCF7A1FFAD4BCC
S214003C50051CE050381CFDF75DFC011C281CFDF718
S214003C6089F99023DB00E050A74B011C9946FA2700
S214003C70FDF780F94B46BF05E0500C3BE750A34BE1
S214003C800025984691234246DB00E250A04B201CBC
S214003C90E5500433E5509F4B9F4AE5500433E5500A
S214003CA09E4B1430E5500433E5500833E5509C4BEA
S214003CB00026E5500433E5509A4BE5500433E550B2
S214003CC0994BE5500433E550984BE5500433E550E6
S214003CD00833E550964BE5500433E550954BE550D8
S214003CE00433E550944BE5500433E550934BE550D0
S214003CF00433E550FE239B05A350914AA350914AF6
S214003D00A35008F05DFC201C38300BF0D9F9231CBA
S214003D1064331E705E709E70DE701E715E719E71E2
S214003D20DE711E725E729E72DE7280331E705E7070
S214003D309E70DE701E715E719E71DE711E725E7206
S214003D409E72DE72683B1E705E709E70DE701E7124
S214003D505E719E71DE711E725E729E72DE720C3B2A
S214003D601E705E709E70DE701E715E719E71DE71DA
S214003D701E725E729E72DE724B467349E058FDF705
S214003D80F9F84146FDF7F6F87049FCF785FD8A23F9
S214003D905B00E050B933FF33E5500433E550083399
S214003DA0E5500433E5500433E5500433E55004335E
S214003DB0E5500433E5500833E5500433E550083346
S214003DC0E5500433E5500433E5500433E55004333E
S214003DD0E5500433E5500833E5500433E550083326
S214003DE0E5500433E5500433E5500833E55004331A
S214003DF0E5500833E5500433E5500433E55004330A
S214003E00E5500433E5500433E5500833E5500433F9
S214003E10E5500833E5500433E5500433E5500433E9
S214003E20E5500433E5500433E5500833E5500433D9
S214003E30E5500833E5500433E550EE210433E550F1
S214003E400433E5500433E5500433E5500433E550BD
S214003E500433E5500433E5500833E5500433E550A9
S214003E600433E5500433E5500433E5500433E5509D
S214003E700433E5500433E5500433E5500833E55089
S214003E800433E5500433E5500433E5500433E5507D
S214003E900433E5500433E5500433E5502C4B2D4AEB
S214003EA0E5503D3BFF3BE2507833E7500C3BE55096
S214003EB0603BE550284B89006350C8396250783122
S214003EC067500C39655060396550E4316350C83925
S214003ED06250E4229200A7500C3AA550603AA550D2
S214003EE0E432A3501D4B5A79032A02D804225A7191
S214003EF01A7100221A4BE2540CBC90469946F8BD43
S214003F008C0400007C040000840400009A99993E0A
S214003F100C04000014040000740400001C040000DC
S214003F202C040000340400003C040000440400009C
S214003F30540400005C040000640400006C040000EC
S214003F404C040000240400000FB59F39D5E8D5388E
S214003F50040400000AD7A33C17B7D138DC050020BC
S214003F608E040000F0B5474680B40F1C002198462A
S214003F70FD4B041CC152101CFDF7CCFA011CFE20A0
S214003F808005FCF705FEF94B051CE0504046FDF7A2
S214003F90C1FA011C281CFCF7EDFFF54B011CE05094
S214003FA0FCF7E8FFF34BF44AE050FA239B05A350D6
S214003FB00432A35083230025F04A1B01E250793BCC
S214003FC0FF3BE550EE4BE722E5500433E550ED4B62
S214003FD0201CE5500433E550EB4BD200E550EB4B8C
S214003FE01430E5500433E550E94B0026E550043321
S214003FF0E550E84BE5500433E550E74BE550043315
S214004000E550E64BE5500433E550E54BE550043308
S214004010E5500833E550E34BE5500433E550E24BFA
S214004020E5500433E550E14BE5500433E550E04BF2
S214004030E5500433E550DF4BE5500433E550DE4BE6
S214004040E550DE4BE5500433E550DD4BE5500433D8
S214004050E550DC4BE5500433E550DB4BE5500433CC
S214004060E550DA4BE5500433E550D94BE5500433C0
S214004070E5500833E550D74BE5500433E550D64BB2
S214004080E5500433E550D54BE5500433E550D44BAA
S214004090E5500433E550D34BE5500433E550D24B9E
S2140040A0E550D24BE5500433E550D14BE550043390
S2140040B0E550D04BE5500433E550CF4BE550043384
S2140040C0E550CE4BE5500433E550CD4BE550043378
S2140040D0E550FE239B05A350CA4AA350343AA3508A
S2140040E0C94BCA4AA350343AA350C94AA35008F051
S2140040F067FA201C38300AF0E3FF231C64331E7076
S2140041005E709E70DE701E715E719E71DE711E7234
S2140041105E729E72DE7230331E705E709E70DE704F
S2140041201E715E719E71DE711E725E729E72DE720E
S2140041301E735E739E73DE731E745E749E74DE74EE
S2140041401E755E759E75DE75183B1E705E709E70E1
S214004150DE701E715E719E71DE711E725E729E72E0
S214004160DE720C3B1E705E709E70DE701E715E719D
S2140041709E71DE711E725E729E72DE72B823E5500C
S214004180002F00D024E2A34A4C33E2500433E5501B
S2140041900433E550774BA049E058FCF7EBFE77492F
S2140041A0051CFCF7E7FE9D49FCF776FB88235B00C1
S2140041B0E0509849281CFCF7DDFE9649FCF7DAFE2D
S2140041C06E49FCF7D7FE9649FCF766FB8A235B0030
S2140041D0E0500023934AFA20A3500432A35008323A
S2140041E0A350914A914DA3500432A350904A8005A3
S2140041F0A3500432A3508F4A8F49A3500432A350D1
S2140042008E4A8F4EA3500432A3500832A3508D4AD4
S214004210A3508D4AA3500432A3508C4AA3500432B4
S214004220A3508B4AA3500432A3508A4AA3500432A8
S214004230A350894AA350894AA3500432A350083297
S214004240A350874AA3500432A350864AA350043290
S214004250A350854AA350854AA3500432A35008327F
S214004260A350834AA3500432A350824AA350043278
S214004270A350814AA3500432A350804AA35004326C
S214004280A3500832A3507E4AA3507E4AA35004325D
S214004290A3507D4AA3500432A3507C4AA350043254
S2140042A0A3507B4AA3500432A3507A4AA3507A4ABA
S2140042B0A3500432A3500832A350784AA3500432C5
S2140042C0A350774AA3500432A350764AA350043230
S2140042D0A350754AA3500432A350744AA350043224
S2140042E0A350734AA350734AA3500432A350724A91
S2140042F0A3500432A350714AA3500432A350704A0C
S214004300A3500432A3506F4AA3500432A3506E4AFF
S214004310A3500432A3500832A3506C4AA350043270
S214004320A3506B4AA3500432A3506A4AA3500432E7
S214004330A350694AA3500432A350684AA3500432DB
S214004340A350674AA350674AA3500432A350664A54
S214004350A3500432A350654AA3500432A350644AC3
S214004360A3500432A350C5E034080000240800001F
S214004370280800002C0800001C0800009A99993EA6
S214004380BC060000C4060000CC060000D4060000F0
S214004390DC060000E4060000EC060000F406000060
S2140043A0FC0600000C070000140700001C070000B5
S2140043B0240700002C070000340700003C0700001C
S2140043C0440700004C070000540700005C0700008C
S2140043D064070000740700007C07000084070000E4
S2140043E08C070000940700009C070000A40700004C
S2140043F0AC070000B4070000BC070000C4070000BC
S214004400CC07000004070000000080BFD4070000AF
S2140044106C070000000048420FB59F39D5E8D53834
S2140044209A99193F7C0400008C0400000AD7A33C2C
S214004430940400009C04000017B7D138A4040000C0
S2140044404C060000B4040000BC040000C4040000D5
S214004450CC040000D4040000DC040000E4040000E7
S214004460F4040000FC040000040500000C05000035
S2140044701C050000240500002C0500003405000083
S214004480440500004C050000540500005C050000D3
S214004490640500006C05000074050000840500003B
S2140044A08C050000940500009C050000A405000093
S2140044B0AC050000B4050000BC050000C405000003
S2140044C0CC050000D4050000DC050000EC0500006B
S2140044D0F4050000FC050000040600000C060000C1
S2140044E0140600001C060000240600002C0600002F
S2140044F0340600003B4AA3500432A3503A4AA35065
S2140045000432A3500832A350384AA3500432A350B2
S214004510374AA3500432A350364AA3500432A3505D
S214004520354AA3500432A350344AA3500432A35051
S214004530334AA350334AA3500432A350324AA350FE
S2140045400432A350314AA3500432A350304AA35039
S2140045500432A3502F4AA3500432A3502E4AA3502D
S2140045600432A3508F22D200A5502C4AA0500C3AF9
S214004570A3502B4AA3502D32FF32A150294AA251F4
S214004580294EA5519C36A051284EA351843EA351D6
S214004590274EA1519C36A251A13EFF3EA551254D66
S2140045A06051AE20C000235023482350C323DB00B5
S2140045B0E150224BE250224B5A79042A02D80522B7
S2140045C05A711A7100221F4BE25404BC9046F0BD8B
S2140045D082231D4A5B00E5500433E2500433E55065
S2140045E0D8E5C0463C06000044060000540600001D
S2140045F05C060000640600006C06000074060000FE
S2140046007C060000840600008C060000940600006D
S2140046109C060000A4060000AC060000140500007E
S214004620840400009A99193FAC0400003C05000081
S214004630E40500007C050000EC040000B406000061
S214004640DC050020360800000000484270B514243F
S2140046500457002C06D00C4B83600C4BC360002321
S214004660037570BD041C161C081C0D1CE268211C7A
S214004670331C08300AF064FB281C211D0C30E2684D
S214004680331C0AF05DFBECE70AD7233D0D74DA3CD9
S21400469070B5A024065782B0002E38D1061C6436AA
S2140046A0041C151C1831301C002B39D0012B62D08D
S2140046B008F0D0FE301C2436311C09F035FF9C2350
S2140046C0E258043BE358211C0195251C543138352B
S2140046D0301C0091743E291C0AF0B4F8301C291CCA
S2140046E009F0C4FF211C281C48310AF04FF8231C8F
S2140046F00C33009304330193221D301C211C083B0D
S21400470009F086FD0023E360A36002B070BD982325
S2140047102E4AC2502E4A0433C25000230355F4E7F3
S21400472008F064FD301C2436311C09F0FDFE9C2385
S214004730E258043BE358211C0195251C54313835BA
S2140047400091301C291C743E0AF07CF8301C291C91
S21400475009F08CFF211C281C48310AF017F8231C8E
S2140047600C33009304330193221D301C211C083B9C
S21400477009F05AFCC6E708F0D1FD301C2436311C7F
S21400478009F0D2FE9C23E258043BE358211C019515
S214004790251C543138350091301C291C743E0AF013
S2140047A051F8301C291C09F061FF211C281C4831D7
S2140047B009F0ECFF231C0C33009304330193221DF5
S2140047C0301C211C083B09F0A9FC9BE70AD7233DB7
S2140047D0CCCC4C3EF0B5A024045783B0002C11D0AE
S2140047E09823514AC250514A0433C250504B5A790A
S2140047F0002A02D101325A711A710022A023C25433
S21400480003B0F0BD061C6436041C151C3031301C89
S214004810002B2ED0012B59D0271C883708F046FFD6
S214004820301C391C09F080FE9C23211CE258043BF6
S214004830E3580195251C2C3E54310091381C311C40
S214004840143509F0FFFF281C311C09F00FFF211C4E
S214004850301C483109F09AFF211C231C0C310091B2
S21400486004310191221D0833281C211C09F0D0FCBC
S214004870C6E7271C883708F0ADFE301C391C09F047
S21400488053FE9C23211CE258043BE3580195251C4B
S2140048902C3E54310091381C311C143509F0D2FFDF
S2140048A0281C311C09F0E2FE211C301C483109F09E
S2140048B06DFF211C231C0C31009104310191221D37
S2140048C00833281C211C09F0AFFB99E7271C883702
S2140048D008F0B6FE301C391C09F026FE9C23211C6D
S2140048E0E258043BE3580195251C2C3E54310091B8
S2140048F0381C311C143509F0A5FF281C311C09F0A2
S214004900B5FE211C301C483109F040FF211C231C39
S2140049100C31009104310191221D0833281C211C02
S21400492009F0FCFB6CE7C0460AD7233D8888883D23
S214004930DC050020F0B54D4644465F465646F0B4CA
S21400494089B0039312AB00229B5E804602931A1C2A
S2140049507C23C3568946002B00D075E04946C968BB
S214004960416549460969816549464969C165002A24
S21400497000DC9BE0642343449A46382343449B462A
S214004980002500234A465C00E3185B004B441C1CD1
S214004990976942461C23E05E566FFCF7BBFD391C48
S2140049A0FCF7E8FA311CFCF7E5FA05901E23E05EFA
S2140049B0FCF7B0FD391CFCF7DDFA311CFCF7DAFA1F
S2140049C006902023E05EFCF7A5FD011C381CFCF7D2
S2140049D0D1FA011C301CFCF7CDFAFE220790920596
S2140049E0504605A909F0D6FC0135584651460AF04E
S2140049F061FAEDB2029A6BB29342C3DB4446584664
S214004A0014340AF0F3FA201C594609F02FFE4146EA
S214004A105846483109F0BAFE039B002B2CD0012BD8
S214004A2037D0414643460C31009104311A1D01919E
S214004A300833201C414609F0EBFB09B03CBC90460D
S214004A409946A246AB46F0BD1A4B143003661A4B85
S214004A50436607F0B5FD404638300AF031FB174B89
S214004A605A79012A04D900227C234146CA54E4E735
S214004A7002225A711A71F6E7414643460C310091FC
S214004A8004311A1D01910833201C414609F0CCFA66
S214004A90D3E7414643460C31009104311A1D01917B
S214004AA00833201C414609F039FBC6E73823434447
S214004AB09B46A3E70AD7A33B0AD7233DDC05002085
S214004AC0F0B5474680B482B008AC0026A65FA8249E
S214004AD00457002C13D0A023604AC250604A043307
S214004AE0C250604B5A79022A02D803225A711A71B0
S214004AF00022A823C25402B004BC9046F0BD1D1C80
S214004B00041C131C002E3ED0012E71D0061C071C60
S214004B100A1C6437983630321833381C311C09F0BA
S214004B20FDF8381C2437391C09F0FEFCA423211C90
S214004B30E258381C5431503F043BE358009101952D
S214004B40391C09F07FFE14239846A0444046391CC1
S214004B5009F08CFD211C381C483109F017FE231C77
S214004B600C33009304330193221D4046211C083B5E
S214004B7009F04EFB211CA4239C31E258301C2B1C50
S214004B800AF0DEF8B7E7061C071C0A1C64379836DE
S214004B9030321833381C311C08F0BEFD381C243760
S214004BA0391C09F0C1FCA423211CE258381C5431DE
S214004BB0503F043BE35800910195391C09F042FE32
S214004BC014239846A0444046391C09F04FFD211C8A
S214004BD0381C483109F0DAFD231C0C3300930433EB
S214004BE00193221D4046211C083B09F01DFAC1E72F
S214004BF0061C071C0A1C6437983630321833381CDB
S214004C00311C08F009FF381C2437391C09F08CFCCD
S214004C10A423211CE258381C5431503F043BE3586F
S214004C2000910195391C09F00DFE14239846A04406
S214004C304046391C09F01AFD211C381C483109F081
S214004C40A5FD231C0C33009304330193221D40461C
S214004C50211C083B09F062FA8CE7C0460AD7233DC0
S214004C608888883DDC050020F0B55F4656464D46F0
S214004C704446F0B4B7B00B9340AB904600229B5E20
S214004C8083469946EF4B8A46C356002B01D000F068
S214004C90C1FF021CEC4BD35E002B1BD10B9B002BE1
S214004CA001D100F0C8FF012B01D101F020F8142338
S214004CB05B44181C0C310C9308F0CCFB38235B4487
S214004CC0191C0C980E9309F02FFC01225946DE4B56
S214004CD0CA5205E014235B440C9338235B440E93BE
S214004CE04346D8685B46596EFCF776FA5B465865CD
S214004CF0434618695B46996EFCF76EFA5B46986504
S214004D00434658695B46D96EFCF766FA5B46D8653B
S214004D10B8230E9A5B44049313CA13C312681A602E
S214004D204B46002B01DC00F0EBFFC8235B441A1C4B
S214004D3051460F935E460025002393460291424655
S214004D405C00E3185B00434492691C1C9246BF4A11
S214004D501C23E05EB758FCF7DDFB5146FCF70AF96A
S214004D60716EFCF739FA391CFCF704F915901E230E
S214004D70E05EFCF7CFFB5146FCF7FCF8B16EFCF7A3
S214004D802BFA391CFCF7F6F816902023E05EFCF7A9
S214004D90C1FB011C5046FCF7EDF8F16EFCF71CFA5F
S214004DA0011C381CFCF7E6F8FE22179015A9584699
S214004DB09205013509F0EEFAEDB2049859460AF06C
S214004DC079F86BB24B45BADB029BB3469A46584617
S214004DD00499943009F04AFC0B9B002B01D100F09B
S214004DE0C2FE022B01D100F02FFF9C235A46D45856
S214004DF080231B06E2185946FC23CA50243BC85899
S214004E00FC218905FCF7B6F884235A465B00D0508F
S214004E105346D968FCF7E0F9211CFBF73DFD5A46DE
S214004E20F023D050483BD45880231B06E21880233A
S214004E3059465B00CA50243BC858FC218905FCF73C
S214004E4099F886235A465B00D05053461969FCF7FA
S214004E50C3F9211CFBF720FD5A46F423D050403BF3
S214004E60D45880231B06E218822359465B00CA509A
S214004E70243BC858FC218905FCF77CF888235A4651
S214004E805B00D05053465969FCF7A6F9211CFBF786
S214004E9003FDF8235A46D05082235A465B00D0586A
S214004EA06B49FCF767F882235A46DB00D050802314
S214004EB05B00061C6749D058FCF75CF85A46664B00
S214004EC0051CD050FC236249D058FCF753F88723C2
S214004ED05A46DB00D05080231B06F218862359461C
S214004EE0DB00CA5080231B06EA185C4B071CCA501E
S214004EF080231B06C2188B23DB00CA502833CC58ED
S214004F0080231B069C466444301C211CFCF732F8A8
S214004F105A46534B061CD050211C281CFCF72AF876
S214004F2084235A46DB00D050051C211C381CFCF795
S214004F3021F85A464B4BD05080231B069C464A4BC2
S214004F406644D6508C236544DB00D550474B6044FE
S214004F50D0501BAB1093B2239B005B44444A039390
S214004F601F1C1BAB5A449A465B46934602930C237F
S214004F70D0469C46D9464646E2440023B0463360B7
S214004F8000244E4609E04346291C1868FBF784FCBB
S214004F90434618600434242C26D03D590021281C92
S214004FA0FBF74CFC0028F5D133590021181C994614
S214004FB0FBF744FC0028EDD1FE2148468905FBF7A7
S214004FC03DFC0028DFD148462A49FBF737FC00287D
S214004FD000D1BDE14346291C1868FCF7FDF843469E
S214004FE004341860242CD8D12423B14646469C4667
S214004FF00436E1445645C0D124375F45B7D1029BFD
S2140050009B468623DB005B4498468C235B005B4410
S21400501006930D93002305935B460793069B9946DC
S2140050202423059A5B4243449B469246474655B224
S2140050304B4600221A601BAB9C46AD0065445C469E
S21400504025E0C0468E0400008C0400007C040000AE
S21400505035FA8E3C35FA8EBC140400005404000069
S2140050601C040000440400003C040000640400002B
S2140050700C040000000080BF4B4641461868FBF752
S2140050800BFC4B46186004340C35BC4227D026680F
S2140050900021301CFBF7D2FB0028F4D12B6800213E
S2140050A0181C9846FBF7CAFB0028ECD1FE21301CE2
S2140050B08905FBF7C3FB0028DED1301CAD49FBF7A2
S2140050C0BDFB002800D137E14B4641461868FCF787
S2140050D083F84B46043418600C35BC42D7D1042301
S2140050E09C4653466A4608250133DBB21372555771
S2140050F0E1449A46022D9BDD059D0135EDB2EBB2EB
S214005100059324239846069BA04428330693032D34
S21400511085D1079BB4269B468A235A465B00D45803
S2140051208C225B4652009858211CFBF7B5FB8C225C
S2140051305B4652009850A0235B0098465B4642466A
S214005140201C9958FBF7A8FB5B4642467600985011
S2140051509959201CFBF7A0FB5B469E22902798518E
S2140051604C3E9959520099507F00D9592432995093
S214005170A2235A465B00D358B22202935B4602999A
S214005180520099500D9B009518939E235B005B443C
S2140051901193199324331A9318A814AB12A913AABF
S2140051A007F0CEFD97239B005B441C1C002399460A
S2140051B08C235B00029324330593243306934346E3
S2140051C0089324330993109B07960A9798461094E1
S2140051D0A4E05B46029A381C9958FBF7CBFE0021E8
S2140051E0FBF75AFB8246206043465E680021301C6F
S2140051F0FBF724FB00280BD15B46059A301C995818
S214005200FBF7B8FE011C5046FBF746FB82462060C3
S21400521043469D680021281CFBF710FB002809D197
S2140052205B46069A281C9958FBF7A4FE5146FBF7E6
S21400523033FB20604B46381C63600021FBF7FEFA08
S214005240002800D090E05B46079A381C9958FBF778
S21400525091FE0021FBF720FB82466060301C002197
S214005260FBF7ECFA00280BD15B46089A301C9958DD
S214005270FBF780FE011C5046FBF70EFB8246606083
S214005280281C0021FBF7DAFA002809D15B46099AA8
S214005290281C9958FBF76EFE5146FBF7FDFA606036
S2140052A04B46381CA3600021FBF7C8FA00285ED1E5
S2140052B05B460A9A381C9958FBF75CFE0021FBF700
S2140052C0EBFA071CA060301C0021FBF7B7FA002899
S2140052D00CD1A2235A465B00D158301CFBF74AFE7D
S2140052E0011C381CFBF7D8FA071CA060281C0021FC
S2140052F0FBF7A4FA00280AD1B4235A465B00D1581B
S214005300281CFBF737FE391CFBF7C6FAA0600C23F7
S2140053109C46039B0C34E044A3422DD04B462360AE
S21400532043461F680021381CFBF788FA002800D186
S2140053304FE700239A4657E74146301CFBF71AFE14
S2140053404B46011C1868FBF7A7FA4B4618609AE60E
S2140053504946281CFBF70EFE4346011C1868FBF75F
S2140053609BFA4346186015E600239A4676E7002720
S214005370A9E7C046000080BF109B5A469A46F02315
S214005380D4580433D6580433D7588933FF33D1580A
S214005390201CFBF7EFFD0021FBF77EFAA1235A46FF
S2140053A09B00D158051C301CFBF7E4FD011C281C93
S2140053B0FBF772FAA9235A469B00D1588046201C58
S2140053C0FBF7D8FD0021FBF767FAAA235A469B0095
S2140053D0D158051C301CFBF7CDFD011C281CFBF723
S2140053E05BFA97235A469B00D1588146201CFBF750
S2140053F0C1FD0021FBF750FA98235A469B00D1586E
S214005400051C301CFBF7B6FD011C281CFBF744FAF4
S21400541099235A469B00D158051C381CFBF7AAFD59
S214005420011C281CFBF738FA5B461867A2235A466D
S2140054309B00D158381CFBF79DFD011C4046FBF72E
S2140054402BFA5B46D867AB235A469B00D158381CCC
S214005450FBF790FD011C4846FBF71EFA5B46E4226C
S2140054609850A3235A469B00D158201CFBF782FD78
S2140054700021FBF711FAA4235A469B00D158051CBD
S214005480301CFBF777FD011C281CFBF705FAAC2344
S2140054905A469B00D1588046201CFBF76BFD002126
S2140054A0FBF7FAF9AD235A469B00D158051C301C71
S2140054B0FBF760FD011C281CFBF7EEF99A235A4601
S2140054C09B00D1580290201CFBF754FD0021FBF7EF
S2140054D0E3F99B235A469B00D158051C301CFBF76A
S2140054E049FD011C281CFBF7D7F99C235A469B0054
S2140054F0D158051C381CFBF73DFD011C281CFBF78A
S214005500CBF95B46586780239946A5235A469B00ED
S214005510D158381CFBF72EFD011C4046FBF7BCF9A2
S2140055205B464A469850E8235A469846D133FF339E
S214005530D158381CFBF71EFD011C0298FBF7ACF98E
S2140055405B4642469850A6235A469B00D158201CDC
S214005550FBF710FD0021FBF79FF9A7235A469B0097
S214005560D158051C301CFBF705FD011C281CFBF759
S21400557093F9AF235A469B000290D158201CFBF7A4
S214005580F9FC0021FBF788F9B0235A469B00D15856
S214005590051C301CFBF7EEFC011C281CFBF77CF9F5
S2140055A09D235A469B00D158051C201CFBF7E2FCA5
S2140055B00021FBF771F99E235A469B00D158041C24
S2140055C0301CFBF7D7FC011C201CFBF765F99F235A
S2140055D05A469B00D158041C381CFBF7CBFC011C18
S2140055E0201CFBF759F95B469867A8235A469B0090
S2140055F0D158381CFBF7BEFC011C0298FBF74CF98F
S21400560084245B461851B1235A469B00D158381C57
S214005610FBF7B0FC011C281CFBF73EF9EC265B46AA
S21400562059460F9F98517031381C3F4A08F0B2FE19
S2140056300E9D3A1C0499281C09F098FB281C09F0BA
S214005640D5FC0C98291C09F011F85946281C48313D
S21400565009F09CF85B46586ED96FFBF7BDFD5B46BC
S214005660586684235A465B00D0585B46E422995815
S214005670FBF7B2FD5A46D823D050906E5B464A469A
S2140056809958FBF7A9FD5B46986686235A465B0049
S214005690D0585B4642469958FBF79EFD5A46DC2397
S2140056A0D0501159D06EFBF797FD5B46D86688231D
S2140056B05A465B00D0589159FBF78EFDE0235A46B8
S2140056C0D0500B9B002B00D198E2012B00D1A6E214
S2140056D05B460C3300930433019304320C9859460E
S2140056E0083B08F095FD119B1A1CD4235B005B4415
S2140056F00493534605935B469346069324235B42E6
S2140057005B449946B4239B005B440293039B9A46F2
S214005710BD239B005B4498464B46002255461A60C4
S214005720029C47460DE0C046000080BF4B464146FF
S2140057301868FBF7B1F84B46186004342435A742C6
S21400574027D026680021301CFBF778F80028F4D113
S2140057502B680021181C9846FBF770F80028ECD13F
S214005760FE21301C8905FBF769F80028DED1301CC5
S214005770EE49FBF763F8002800D1E8E14B464146C6
S2140057801868FBF729FD4B46043418602435A742F9
S214005790D7D104239C46E144B846E244D945BBD160
S2140057A020334B449B46049B9B45A7D1059B9A46BA
S2140057B0069B9B46002398465B460493039B9B46AA
S2140057C00D9B99466A46454608245E461572145750
S2140057D0A4004C4427680021381CFBF72FF800284B
S2140057E009D15346381C1968FBF7C4FB011C306806
S2140057F0FBF7F2FC3060676A0021381CFBF71EF8E6
S214005800002809D15346381C5968FBF7B3FB011C26
S2140058103068FBF7E1FC3060A46C0021201CFBF72D
S2140058200DF8002809D15346201C9968FBF7A2FB07
S214005830011C3068FBF7D0FC30600135EDB26CB26D
S2140058400436082CC4DD43460133DBB2DAB2904698
S214005850282294461C3AE3449446E244092BB1D1EC
S214005860049B00269B468E235B005B449C460025DB
S214005870B1465F466346AD33FF331A6863464E460D
S214005880043B1A606A460136F3B213729846137ADE
S21400589013729946137A5BB2092B11D064466046A0
S2140058A04A46B134FF34DE00F3185B1902CC4633A7
S2140058B001329B00D2B2D95153B202C0092BF2D1A9
S2140058C028239A4643460135D444092BD2D1B32225
S2140058D000239200BB500432BB500832BB50043247
S2140058E0BB500432BB500432BB500432BB500432AF
S2140058F0BB500832BB500432BB500832BB50043297
S214005900BB500432BB500432BB500432BB5004328E
S214005910BB500832BB500432BB500832BB50043276
S214005920BB500432BB500832BB500432BB50083266
S214005930BB500432BB500432BB500432BB5004325E
S214005940BB500432BB500832BB500432BB50083246
S214005950BB500432BB500432BB500432BB5004323E
S214005960BB500432BB500832BB500432BB50391C0B
S2140059700832BB500432BB500432BB500432BB501A
S2140059800432BB500432BB500432BB500432BB500E
S2140059900432BB500832BB500432BB500432BB50FA
S2140059A00432BB500432BB500432BB500432BB50EE
S2140059B00432BB500432BB500832BB500432BB50DA
S2140059C00432BB500432BB500432BB500432BB50CE
S2140059D00432BB500432BB50554ABB46BB50554BF5
S2140059E0FE580433FF58083BCC5880231B069C46C1
S2140059F08F23DB00CD58C8235B00CB58391C181CFE
S214005A0064449846FAF748FF311CFBF7B3FA8C2338
S214005A105A465B00011CD058FAF73EFFB2235A469E
S214005A209B00D05044494046FAF736FFD0235A46EA
S214005A309B00D050211CFBF79DFACD235A469B00B5
S214005A40D050603BD050CC3BD158281CFBF792FA84
S214005A503A49FAF721FFEE235A469B00D050DC2342
S214005A605B00D358391C181C9846FAF715FF311CF2
S214005A70FBF780FAA0235A465B00011CD058FAF7C1
S214005A800BFFBC235A469B00D0502B494046FAF7E2
S214005A9003FFDA235A469B00D050211CFBF76AFA14
S214005AA0D7235A469B00D050603BD050CC3BD158B1
S214005AB0281CFBF75FFA2149FAF7EEFEF8235A4650
S214005AC09B00D050F0235B00D358391C181C984616
S214005AD0FAF7E2FE311CFBF74DFAB4235A465B0098
S214005AE0011CD058FAF7D8FEC6235A469B00D05061
S214005AF011494046FAF7D0FEE4235A469B00D050A0
S214005B00211CFBF737FAE1235A469B00D050603B36
S214005B10D050CC3BD158281CFBF72CFA0749FAF793
S214005B20BBFE81235A46DB00D05009E0000080BF50
S214005B3004040000840400005F70893017B7D13871
S214005B4037B03CBC90469946A246AB46F0BD4146AF
S214005B50301CFBF70FFA4B46011C1868FAF79CFE40
S214005B604B461860E9E55A469C23FC21D45860331E
S214005B70D450243BD0588905FBF7FCF984235A46B9
S214005B805B00D0505346D968FAF786FE211CFBF717
S214005B9023FB5A46F023FC21D050483BD4585833B8
S214005BA0D450243BD0588905FBF7E4F986235A469F
S214005BB05B00D05053461969FAF76EFE211CFBF7BE
S214005BC00BFB5A46F423FC21D050403BD4585033AC
S214005BD0D450243BD0588905FBF7CCF988235A4685
S214005BE05B00D05053465969FAF756FE211CFBF766
S214005BF0F3FAF8235A46D050FFF74EF95B460C33BB
S214005C0000930433019304320C985946083B08F07D
